S01600004672656552544F532D54657374322E7372656345
S11300000C9448000C9465000C9465000C946500F5
S11300100C9465000C9465000C9465000C946500C8
S11300200C9465000C9465000C9465000C946500B8
S11300300C9465000C9485080C9465000C94650080
S11300400C942E060C9465000C9465000C946500C9
S11300500C949C090C94DA090C9465000C946500CA
S11300600C9465000C9465000C9465000C94650078
S11300700C94220A0C94600A0C946500C214C214F5
S1130080C214FD14EB14FA14C214C214FD14EB14BC
S113009011241FBECFEFD8E0DEBFCDBF11E0A0E03A
S11300A0B1E0EEE1FEE202C005900D92A838B1077E
S11300B0D9F728E0A8E8B1E001C01D92AD3EB2072F
S11300C0E1F70E946B050C940D170C94000061E09D
S11300D08EE593E00E9457060895CF93DF9300D0F6
S11300E000D0CDB7DEB761E070E080E090E00E9420
S11300F0BA100F2EF1E96F2EF1E07F2EF02D33248C
S11301003394212C0F2EFFEAAF2EF2E0BF2EF02DF8
S11301100F2EF5E98F2EF1E09F2EF02D0F2EFDEA24
S1130120CF2EF2E0DF2EF02D19821A8280918B01FE
S113013090918C01892B09F0F2C0D3018D919C918F
S113014011979C01220F331F880F991F880F991F45
S1130150880F991F820F931F1296ED91FC911397AC
S11301608E0F9F1FFC01E455FD4F80818111D3C088
S113017020E04FEF5FEF60E070E0809160039091CA
S113018061030E94C70C882309F4C9C0EDEAF2E0B8
S1130190FC83EB8347E951E0BF01CF010FC08D9190
S11301A090E081939193E217F307C9F7C801665F62
S11301B07F4F4C5E5F4F4A155B0539F09A012E5E06
S11301C03F4FFA01DB018C01EACF09EA11E0432C2D
S11301D0522CE12CF12C1C830B838C010E94AC1655
S11301E081709078992324F401978E6F9F6F019604
S11301F0D4018D939C93B2E0EB16F1042CF0EDE066
S11302004E165104E1F490C00E94AC1681709078AF
S1130210992324F401978E6F9F6F0196AB81BC8163
S11302208D939C93019719F4BFEFEB1AFB0AC2015B
S113023083709927892B39F4E980FA8004C0EB8113
S1130240FC8111821082FFEF4F1A5F0A8B819C811F
S113025044969C838B839EE04916510409F0BECFDB
S11302601C830B83A401C8010DC0808132968D9339
S1130270E217F307D1F7CB014C5E5F4F0A964C159A
S11302805D0539F09A012E5E3F4FDC01FA01BC0195
S1130290ECCFD3018D919C911197FC01EE0FFF1FC0
S11302A0880F991F880F991F880F991FE80FF91F4E
S11302B012968D919C911397E80FF91FEE0FFF1F73
S11302C0EB56FE4F30822182EDE8F1E0808191818E
S11302D0FC01EE0FFF1F880F991F880F991F880FCD
S11302E0991FE80FF91F80918F0190919001E80FF9
S11302F0F91FEE0FFF1FEB56FE4F3082218220E0E4
S113030040E050E060E070E0809160039091610310
S11303100E94DA0B04C030928B0120928C0188EE8B
S113032093E00E94711002CF0E94AC168170907805
S1130330992324F401978E6F9F6F0196AB81BC8142
S11303408D939C93019709F08BCF6ECFCF93DF935E
S113035000D000D000D0CDB7DEB766E070E080E01A
S113036090E00E94BA10EE24E394F12C01E911E02C
S11303700F2EF3E0CF2ED12CF02D6894AA24A1F8EF
S1130380B12C80918B0190918C01892B09F04AC08A
S1130390F801808191819C838B83828193819E83E8
S11303A08D8330990EC01A82198220E04FEF5FEFDF
S11303B0BE016F5F7F4F80915703909158030E9455
S11303C0DA0B31990EC0BA82A98220E04FEF5FEFB9
S11303D0BE016F5F7F4F80915703909158030E9435
S11303E0DA0B36990EC0FA82E98220E04FEF5FEF14
S11303F0BE016F5F7F4F80915703909158030E9415
S1130400DA0B379915C0DA82C98220E04FEF5FEF2B
S1130410BE016F5F7F4F80915703909158030E94F4
S1130420DA0B06C04B9904C0F0928A01E09289016C
S113043086E990E00E947110A4CFCF93DF931F92BE
S1130440CDB7DEB780915D03811123C020E04AE07F
S113045050E06EE573E080915B0390915C030E9431
S1130460C70C8823B1F061E08EE593E00E94570643
S113047081E080935D030E94500F0AE010E020E0C9
S113048030E0AC0161E080915503909156030E94E5
S11304906113198220E04AE050E0BE016F5F7F4F94
S11304A08091590390915A030E94C70C882329F024
S11304B061E0CE0101960E9457068EE190E00E9411
S11304C07110C0CFCF93DF93CDB7DEB728970FB6A7
S11304D0F894DEBF0FBECDBF69E070E080E090E02D
S11304E00E94BA100F2EF9E3CF2EF3E0DF2EF02D89
S11304F00F2EFCE7EF2EF12CF02D0F2EFDE8AF2E82
S1130500F1E0BF2EF02D20E048EE53E0BE01685F1D
S11305107F4F80916203909163030E94C70C8823EC
S1130520E9F1F601F182E0828885982F907C90347D
S113053031F5807288618F83F501808191819C837C
S11305408B83828193819E838D831A82198220E01A
S113055048EE53E0BE01695F7F4F8091590390914B
S11305605A030E94DA0B20E048EE53E0BE016F5FAD
S11305707F4F80915703909158030E94DA0B109299
S11305805D030AE010E020E030E040E050E063E08A
S113059080915503909156030E9461138EE190E07F
S11305A00E947110B0CFFB018130910509F453C052
S11305B040F08230910509F49DC0039709F4ECC022
S11305C0089522813381C90101968A30910508F08A
S11305D042C040815181DA01AA0FBB1FBA01660FE4
S11305E0771F660F771F660F771FA60FB71FA80F19
S11305F0B91FAA0FBB1FAB56BE4F8D919C91892B7F
S113060051F5DA01AA0FBB1FA60FB71FA20FB31F24
S1130610AA0FBB1FAB56BE4F1D921C922081318185
S113062082819381019693838283F901EE0FFF1FE8
S1130630220F331F220F331F220F331FE20FF31F2A
S1130640E80FF91FEE0FFF1FEB56FE4F81E090E01D
S1130650918380830895228133812115310509F422
S1130660EBC040815181DA01AA0FBB1FCA01880F78
S1130670991F880F991F880F991FA80FB91FA20FE0
S1130680B31FAA0FBB1FAD56BE4F8D919C91892BF2
S113069009F0D2C0DA01AA0FBB1F440F551F440F43
S11306A0551F440F551FA40FB51FA20FB31FAA0F48
S11306B0BB1FAB56BE4F1D921C9282819381019742
S11306C09383828320813181F901EE0FFF1F220F72
S11306D0331F220F331F220F331FE20FF31FE80FC4
S11306E0F91FEE0FFF1FEB56FE4F81E090E0918360
S11306F08083089520813181C90101968E3091054E
S113070008F09AC042815381DC01AA0FBB1F880FF5
S1130710991F880F991F880F991FA80FB91FA40F3D
S1130720B51FAA0FBB1FAB56BE4F8D919C91892B51
S113073009F082C0C901880F991F220F331F220FAD
S1130740331F220F331F280F391FD901A40FB51FE0
S1130750AA0FBB1FAB56BE4F1D921C928081918184
S11307600196918380830280F381E02D9C01220F06
S1130770331F880F991F880F991F880F991F820FA5
S1130780931FE80FF91FEE0FFF1FEB56FE4F81E09A
S113079090E0918380830895208131812115310572
S11307A009F44AC042815381C9010197DC01AA0FAF
S11307B0BB1F880F991F880F991F880F991FA80FB7
S11307C0B91FA40FB51FAA0FBB1FAB56BE4F8D9107
S11307D09C91892B89F5C901880F991F220F331F1A
S11307E0220F331F220F331F280F391FD901A40FE3
S11307F0B51FAA0FBB1FAB56BE4F1D921C92808122
S113080091810197918380830280F381E02D9C0183
S1130810220F331F880F991F880F991F880F991F64
S1130820820F931FE80FF91FEE0FFF1FEB56FE4FC9
S113083081E090E0918380830895CF92DF92EF92DC
S1130840FF920F931F93CF93DF93C9E3D3E045E95E
S113085051E00DEA12E0C12CD12C61E070E0DE0120
S113086019821882FA018C2D9D2D2191319121300C
S1130870310579F4ED90FC9011979B01082E02C08C
S1130880220F331F0A94E2F72E293F2911963C9335
S11308902E9301968A30910541F722964C5E5F4F64
S11308A040175107E1F6DF91CF911F910F91FF900F
S11308B0EF90DF90CF90089563E070E080E090E0E7
S11308C00E94BA100E941D0484E690E00E947110F8
S11308D0F9CFE5E9F1E02DEA32E04DEA52E00CC04F
S11308E0119211921D92E817F907D1F7265F3F4F35
S11308F0FC014817590721F0CF014496D901F0CFE4
S1130900E1E9F1E085E090E09183808389E090E083
S113091093838283EDE8F1E09183808387E090E024
S11309209383828381E090E090930C0280930B0286
S113093090935802809357020895CF93DF9300D089
S113094000D000D0CDB7DEB767E070E080E090E083
S11309500E94BA1001E010E00F2EF1E9EF2EF1E051
S1130960FF2EF02D0F2EFDE8CF2EF1E0DF2EF02D1F
S113097080918B0190918C01892B09F050C020E06B
S113098040ED57E0BE016F5F7F4F80915703909118
S113099058030E94C70C882309F45BC020E04FEF82
S11309A05FEF60E070E080916003909161030E94CA
S11309B0C70C882309F44DC08B819C81F7012081E9
S11309C031818217930769F44D815E8122813381DD
S11309D04217530731F4B70189819A810E94D302E7
S11309E012C0F601208131818217930761F42D81B1
S11309F03E81828193812817390729F4B6018981C0
S1130A009A810E94D30220E040E050E060E070E070
S1130A1080916003909161030E94DA0B1AC02091C7
S1130A20890130918A0180910A0190910B01820F12
S1130A30931F029771F410928C0110928B01109203
S1130A408A011092890110930B0100930A010E94FC
S1130A5069048BE490E00E9471108ACF5A9A089539
S1130A605D9A5D985C9A5C985A980895809582B9CD
S1130A7085B1836085B985B193709095892385B9D3
S1130A800895CF93C0918801C1110EC00E942E0514
S1130A908091390390913A030E9436050E943005F3
S1130AA081E08093880114C0EC2FF0E0EE0FFF1F6B
S1130AB0E75CFC4F808191810E9436050E943005DD
S1130AC0CF5FCE3018F4C093880102C01092880121
S1130AD0CF91089508950E94600640E061E08EE1A0
S1130AE00E94A90B90936303809362030E941706EC
S1130AF007E610E021E030E040E062E270E080E1EF
S1130B0091E00E942F13909356038093550340E085
S1130B1061E084E00E94A90B90935C0380935B03E3
S1130B2040E061E084E00E94A90B90935A03809313
S1130B30590340E066E084E00E94A90B90935803B7
S1130B40809357035E980E94690481E00E94730CAD
S1130B509093610380936003E12CF12C02E020E088
S1130B6030E04BE350E068E171E08CE594E00E94F2
S1130B700C0E03E020E030E04BE350E068E271E06B
S1130B808DE994E00E940C0E00E020E030E04BE39D
S1130B9050E063E371E08DE690E00E940C0E01E00A
S1130BA020E030E04BE350E06DE371E086EA91E051
S1130BB00E940C0E05E020E030E04BE350E06EE4D0
S1130BC071E08DE192E00E940C0E04E020E030E040
S1130BD04BE350E063E671E082E692E00E940C0E83
S1130BE081E495E00E941C0678940E941C0FFFCFBC
S1130BF0CF93DF9300D0CDB7DEB76A838091AC0387
S1130C009091AD03009771F0198220E0AE014F5F1F
S1130C105F4FBE016E5F7F4F0E948D0C89818111F1
S1130C200E942C080F900F90DF91CF91089590931C
S1130C30AD038093AC0308959093AB038093AA0310
S1130C408AE087BD84B5826084BDEEE6F0E08081F1
S1130C508260808385B5856085BD08951F920F925B
S1130C600FB60F9211242F933F934F935F936F937B
S1130C707F938F939F93AF93BF93EF93FF93E091F1
S1130C80AA03F091AB03309709F00995FF91EF9116
S1130C90BF91AF919F918F917F916F915F914F9190
S1130CA03F912F910F900FBE0F901F901895462FD4
S1130CB0BC018091AE039091AF030E94590908953D
S1130CC08F929F92AF92BF92CF92DF92EF920F9347
S1130CD087E893E00E94B90684E693E00E94B9068F
S1130CE00F2EF8EF8F2EF5E09F2EF02D0F2EF4E649
S1130CF0AF2EF3E0BF2EF02D0F2EF7E8CF2EF3E04A
S1130D00DF2EF02DE12C00E023E040E052EC61E026
S1130D1070E080E00E94DF089093AF038093AE03FD
S1130D2088B1836C88B95B9A8AB184678AB95E9A00
S1130D3081B18FEF81B984B1836084B984B18C634C
S1130D4084B90F91EF90DF90CF90BF90AF909F90B8
S1130D508F90089595B1937C95B925B134E0839F24
S1130D60C0011124822B85B9089585B1837C85B98E
S1130D700895FC0110A211A212A20895FC0182A1FF
S1130D808823D9F081A1DF01A80FB11D8C91DB016B
S1130D908C9321A130E02F5F3F4F2F7130783323A4
S1130DA034F421503109206E3F6F2F5F3F4F21A350
S1130DB082A1815082A380E0089581E00895FC011E
S1130DC042A14032B8F420A130E0E20FF31F608367
S1130DD02F5F3F4F2F713078332334F42150310982
S1130DE0206E3F6F2F5F3F4FFC0120A34F5F42A354
S1130DF080E0089582E00895FC0103969283818344
S1130E002FEF3FEF348323839683858390878783F3
S1130E1010820895FC01118610860895CF93DF9304
S1130E209C01FB01DC011196CD91DC911297D383D7
S1130E30C2838C819D81958384838C819D81DC0117
S1130E4013967C936E9312977D836C8331872087EE
S1130E50F90180818F5F8083DF91CF910895CF93D3
S1130E60DF93EB01488159814F3F2FEF520721F463
S1130E70FC01A781B0850DC0DC01139601C0DF0120
S1130E801296ED91FC9113972081318142175307FB
S1130E90B0F71296ED91FC911397FB83EA83D58307
S1130EA0C483BD83AC831396DC93CE931297998746
S1130EB08887FC0120812F5F2083DF91CF910895E3
S1130EC0CF93DF93FC01A085B185C281D381848156
S1130ED095819D838C83C481D581828193819B83F9
S1130EE08A831196CD91DC911297CE17DF0731F4E6
S1130EF08C819D8112969C938E93119711861086F6
S1130F008C9181508C93DF91CF91089531E1FC0154
S1130F103083319722E220833197A3E3A083319772
S1130F2060833197708331971082319760E86083D2
S1130F3031971082319762E06083319763E0608378
S1130F40319764E06083319765E06083319766E0B0
S1130F506083319767E06083319768E060833197FD
S1130F6069E06083319760E1608331973083319722
S1130F7032E13083319733E13083319734E1308388
S1130F80319735E13083319736E13083319737E15A
S1130F903083319738E13083319739E130833197A9
S1130FA030E23083319731E23083319720833197B7
S1130FB023E220833197408331975083319726E28F
S1130FC02083319727E22083319728E220833197C9
S1130FD029E22083319720E32083319721E3208382
S1130FE0869708951092890085EE809388008BE09F
S1130FF080938100EFE6F0E0808182608083A0919D
S1131000CB08B091CC08CD91CDBFDD91DEBFFF916F
S1131010EF91DF91CF91BF91AF919F918F917F918C
S11310206F915F914F913F912F911F910F91FF907D
S1131030EF90DF90CF90BF90AF909F908F907F9074
S11310406F905F904F903F902F901F900F900FBE26
S11310500F90089581E008950F920FB6F8940F92BF
S11310601F9211242F923F924F925F926F927F9220
S11310708F929F92AF92BF92CF92DF92EF92FF92A4
S11310800F931F932F933F934F935F936F937F938C
S11310908F939F93AF93BF93CF93DF93EF93FF937C
S11310A0A091CB08B091CC080DB60D920EB60D925E
S11310B00E94C910A091CB08B091CC08CD91CDBFAE
S11310C0DD91DEBFFF91EF91DF91CF91BF91AF91A1
S11310D09F918F917F916F915F914F913F912F914C
S11310E01F910F91FF90EF90DF90CF90BF90AF9042
S11310F09F908F907F906F905F904F903F902F9034
S11311001F900F900FBE0F9008951F920F920FB66D
S11311100F9211242F933F934F935F936F937F9379
S11311208F939F93AF93BF93EF93FF930E945A0FB4
S1131130FF91EF91BF91AF919F918F917F916F91AB
S11311405F914F913F912F910F900FBE0F901F9081
S11311501895CF93DF93EC010E944A0F8091B0035E
S11311609091B103892B31F485EB93E09093B10313
S11311708093B0032091B2033091B303CE01820F68
S1131180931F853A44E0940770F42817390770F4E4
S1131190C091B003D091B103C20FD31F9093B30396
S11311A08093B20305C0C0E0D0E002C0C0E0D0E04C
S11311B00E94FA0FCE01DF91CF91089508954F92C6
S11311C05F926F927F928F929F92AF92BF92CF92D3
S11311D0DF92FF920F931F93CF93DF93CDB7DEB7C8
S11311E0F82E2A013B0188E090E00E9433158C011F
S11311F08F2D90E0880F991FFC01E65AF74F118359
S11312000083FC01E45FFE4F80819181D801119637
S11312109C938E931396BC92AE9212971596DC9281
S1131220CE92149717969C928E921697FFB6F894C6
S1131230ED91FC9111973697808182608083CD90E7
S1131240DC90D301C201880F991FAA1FBB1F880F0E
S1131250991FAA1FBB1F9C01AD01220F331F441FFE
S1131260551F60E070E081EE90E00E940B15215064
S1131270F60132972083D801ED91FC9111973597AF
S113128088E98083ED91FC91349786E08083FFBEEA
S1131290C801DF91CF911F910F91FF90DF90CF9004
S11312A0BF90AF909F908F907F906F905F904F9082
S11312B00895EF92FF920F931F93CF93DF93FC0156
S11312C0A281B381109779F0E42FF0E092965C91BB
S11312D020E230E0251B31092E173F071CF17C0169
S11312E0411104C016C04230F8F4F9CFEB0141506B
S11312F0042F10E00F5F1F4F060F171F6991D701CE
S113130012968D919C9113970E94DF06C017D10706
S1131310A9F7D701ED91FC91359780818062808394
S113132080E003C082E001C082E0DF91CF911F9191
S11313300F91FF90EF9008951F920F920FB60F92A6
S113134011242F933F934F935F936F937F938F93C6
S11313509F93AF93BF93CF93EF93FF93E0915A087A
S1131360F0915B083097A1F0C091C6006C2F848186
S113137095810E94DF0680915A0890915B08DC01F8
S11313801696ED91FC911797309711F06C2F0995F3
S1131390FF91EF91CF91BF91AF919F918F917F91E9
S11313A06F915F914F913F912F910F900FBE0F90CE
S11313B01F9018951F920F920FB60F9211242F931E
S11313C03F934F935F936F937F938F939F93AF93C9
S11313D0BF93EF93FF93CF93DF931F92CDB7DEB705
S11313E0E0915A08F0915B08309799F0BE016F5F65
S11313F07F4F828193810E94BE06811104C089813E
S11314008093C6000BC0E1ECF0E080818F7D808387
S113141005C0E1ECF0E080818F7D80830F90DF9147
S1131420CF91FF91EF91BF91AF919F918F917F9158
S11314306F915F914F913F912F910F900FBE0F903D
S11314401F9018951F920F920FB60F9211242F938D
S11314503F934F935F936F937F938F939F93AF9338
S1131460BF93CF93EF93FF93E0915C08F0915D08F5
S11314703097A1F0C091CE006C2F848195810E9499
S1131480DF0680915C0890915D08DC011696ED9171
S1131490FC911797309711F06C2F0995FF91EF91FC
S11314A0CF91BF91AF919F918F917F916F915F91F8
S11314B04F913F912F910F900FBE0F901F90189551
S11314C01F920F920FB60F9211242F933F934F93B5
S11314D05F936F937F938F939F93AF93BF93EF9398
S11314E0FF93CF93DF931F92CDB7DEB7E0915C08F3
S11314F0F0915D08309799F0BE016F5F7F4F828154
S113150093810E94BE06811104C089818093CE001C
S11315100BC0E9ECF0E080818F7D808305C0E9ECAD
S1131520F0E080818F7D80830F90DF91CF91FF91D8
S1131530EF91BF91AF919F918F917F916F915F9147
S11315404F913F912F910F900FBE0F901F901895C0
S11315500F931F93CF93DF93EC01042F1A8D8C8D7F
S113156081110CC088819981892B09F044C08A813A
S11315709B810E9463121B821A8244C0411118C0CD
S1131580482F50E08C819D810E94BC162C8D8C814B
S11315909D81820F911D9D838C832A813B818217BB
S11315A0930758F1888199819D838C8380E02AC0B8
S11315B0482F50E08E819F810E94BC168C8D90E054
S11315C09195819591092E813F81280F391F3F8381
S11315D02E83488159812417350730F42A813B81B1
S11315E0820F931F9F838E83023049F4112349F0A5
S11315F0115080E007C080E005C080E003C080E0B7
S113160001C080E01F5F1A8FDF91CF911F910F916E
S11316100895FC01448D4423A9F050E026813781CC
S1131620240F351F37832683828193812817390736
S113163020F08081918197838683CB0166817781B5
S11316400E94BC160895EF92FF920F931F93CF93BD
S11316508C010FB6F8940F92FC01C68D1C16ACF4E5
S11316608189811106C011C0F8019189911105C0C9
S11316700CC07801F1E1EF0EF11CC7010E946A1160
S113168081110E94EF11C15079F78FEFF801868F15
S11316900F900FBE0FB6F8940F92C58D1C16ACF4C4
S11316A08085811106C011C0F8019085911105C093
S11316B00CC07801F8E0EF0EF11CC7010E946A111A
S11316C081110E94EF11C15079F78FEFF801858FD6
S11316D00F900FBECF911F910F91FF90EF9008953F
S11316E0CF93DF93EC010FB6F8940F9248815981A0
S11316F02C8D30E07B8D729FC001739F900D11245F
S1131700FA01E80FF91FFB83EA831A8E5D834C8389
S1131710821B930B840F951F9F838E838FEF8D8F76
S11317208E8F611108C08885882369F0CE010896E0
S11317300E946A1108C0CE0108960E94FC06CE01E0
S113174041960E94FC060F900FBE81E0DF91CF917D
S11317500895FF920F931F93CF93DF93082F162FB3
S1131760F42E6623C9F0869FC001112481960E943D
S1131770A908EC01009749F416C00B8F1C8F61E097
S1131780CE010E94700BF8A20EC0819699838883C3
S1131790F4CFD983C883F1CF81E290E00E94A908F5
S11317A0EC01892BB1F7CE01DF91CF911F910F91FD
S11317B0FF9008959F92AF92BF92CF92DF92EF92E3
S11317C0FF920F931F93CF93DF9300D000D01F920B
S11317D0CDB7DEB78C016B015D834C83A22EB12C97
S11317E0992493947C0188E0E80EF11C0FB6F894D8
S11317F00F92F801328D938D391718F0F2E0AF1281
S113180011C04A2DB601C8010E94A80AF8018189B5
S1131810882321F0C80141960E946A110F900FBEDF
S113182081E050C0EC81FD81EF2B21F40F900FBEBD
S113183080E048C0B11005C0CE0101960E94B211EB
S1131840B92C0F900FBE0E944A0F0FB6F8940F9256
S1131850F801858D8F3F09F4158EF801868D8F3F31
S113186009F4168E0F900FBEBE016C5F7F4FCE0140
S113187001960E94BD1181111FC00FB6F8940F92FA
S1131880F801928D0F900FBE838D98130FC06C8159
S11318907D81C7010E943D11C8010E94230B0E9453
S11318A0FA0F8111A3CF0E942C08A0CFC8010E9477
S11318B0230B0E94FA0F9ACFC8010E94230B0E94A7
S11318C0FA0F80E00F900F900F900F900F90DF9120
S11318D0CF911F910F91FF90EF90DF90CF90BF9029
S11318E0AF909F900895CF93DF93482F60E081E0FD
S11318F00E94A90BEC01009761F01B821A821982E5
S113190018821E8220E040E050E060E070E00E9417
S1131910DA0BCE01DF91CF910895EF92FF920F93EE
S11319201F93CF93DF938A01FC01528D338D53179C
S113193010F02230F1F4422F7801EC011E8D0E9448
S1131940A80A1F3F81F489898823A9F0CE01419612
S11319500E946A11882389F0E114F10481F081E086
S1131960F70180830DC0FF24F394F10EFE8E81E015
S113197007C080E005C081E003C081E001C081E0D0
S1131980DF91CF911F910F91FF90EF9008958F9267
S11319909F92AF92BF92CF92DF92EF92FF920F93FA
S11319A01F93CF93DF9300D000D01F92CDB7DEB743
S11319B08C015B015D834C83822EE12C99249394EA
S11319C06C0181E1C80ED11C0FB6F8940F92F80196
S11319D0F28CFF2059F1C680D780B501C8010E945E
S11319E0090B811015C0FA94F801F28E808191815F
S11319F0892B29F40E94A312F80193838283F801AE
S1131A008085882379F0C80108960E946A110AC06B
S1131A10F801D782C6828189882321F0C8014196C2
S1131A200E946A110F900FBE81E064C04C815D81F9
S1131A30452B21F40F900FBE80E05CC0E11005C07F
S1131A40CE0101960E94B211E92C0F900FBE0E94A4
S1131A504A0F0FB6F8940F92F801858D8F3F09F461
S1131A60158EF801968D9F3F09F4168E0F900FBEC8
S1131A70BE016C5F7F4FCE0101960E94BD118111A2
S1131A802BC00FB6F8940F92F801828D0F900FBE01
S1131A9081111CC080819181892B49F40FB6F8947F
S1131AA00F92828193810E9401120F900FBE6C816C
S1131AB07D81C6010E943D11C8010E94230B0E9432
S1131AC0FA0F811181CF0E942C087ECFC8010E9499
S1131AD0230B0E94FA0F78CFC8010E94230B0E94A7
S1131AE0FA0F0FB6F8940F92F801828D0F900FBE83
S1131AF081116ACF0F900F900F900F900F90DF918C
S1131B00CF911F910F91FF90EF90DF90CF90BF90F6
S1131B10AF909F908F900895CF93DF93EC010FB611
S1131B20F8940F928D8D8F3F09F41D8E8E8D8F3F0B
S1131B3009F41E8E0F900FBE8A8D811104C0CE0150
S1131B4041960E945011CE010E94230BDF91CF9148
S1131B500895E0918108F09182088081811107C085
S1131B608FEF9FEF90936208809361080895E0914E
S1131B708108F09182080580F681E02D0680F781C6
S1131B80E02D828193819093620880936108089587
S1131B900F931F93CF93DF93EC0100916908109189
S1131BA06A088091CB089091CC0802960E94600745
S1131BB0C00FD11FE091CB08F091CC08D383C2832E
S1131BC0C017D10768F46091CB087091CC0880915C
S1131BD07F08909180086E5F7F4F0E942F0717C087
S1131BE06091CB087091CC08809181089091820813
S1131BF06E5F7F4F0E942F07809161089091620869
S1131C00C817D90720F4D0936208C0936108DF9104
S1131C10CF911F910F9108954F925F926F927F928F
S1131C208F929F92AF92BF92CF92DF92EF92FF92E8
S1131C300F931F93CF93DF934C01EB016A012901AA
S1131C40CA010E94A9085C01892B09F4E3C08CE253
S1131C5090E00E94A9083C010097B9F0FC01B08E05
S1131C60A78AA60165EA70E0C5010E94C516F1E0E5
S1131C70CF1AD108F3018789908DC80ED91E8881A7
S1131C80818F8881811105C014C0C5010E94DE08BE
S1131C90C1C0D3015A96FE0131969E01285F3F4F81
S1131CA0EF0181918D938881882319F0E217F3075E
S1131CB0B9F7F30110A2063008F005E0F301068B32
S1131CC003A314A2E3012296CE010E940A07C301D2
S1131CD00C960E940A07F3017186608686E090E004
S1131CE0801B910995878487738A628A16A215A23C
S1131CF017A210A611A612A613A6A201B401C6012A
S1131D000E948607F30191838083E114F10419F0A2
S1131D10F701718260820FB6F8940F9280916B087C
S1131D208F5F80936B088091CB089091CC08892BAE
S1131D30A9F57092CC086092CB0880916B08813031
S1131D40F1F505E918E00F2EFBECEF2EF8E0FF2E7D
S1131D50F02DC8010E94FC06075F1F4F0E151F05DA
S1131D60C1F78CE898E00E94FC0683E898E00E94A2
S1131D70FC0686E798E00E94FC068DE698E00E9447
S1131D80FC068CE898E0909382088093810883E8AD
S1131D9098E09093800880937F0811C08091670831
S1131DA081110DC0E091CB08F091CC089689F30124
S1131DB08689891720F07092CC086092CB088091B4
S1131DC063088F5F80936308F30181A386899091F0
S1131DD06808981710F48093680890E09C01220F1B
S1131DE0331F220F331F220F331F820F931FBE0195
S1131DF08B56974F0E940E070F900FBE8091670875
S1131E00882331F08091CB089091CC0881E003C005
S1131E1081E001C08FEFDF91CF911F910F91FF906F
S1131E20EF90DF90CF90BF90AF909F908F907F9076
S1131E306F905F904F900895EF92FF920F930F2E43
S1131E40FFE5EF2EF8E0FF2EF02D00E020E030E07B
S1131E504BE350E06AE771E085E890E10E940C0EE4
S1131E608130A1F40E940D13813081F4F8948FEF36
S1131E709FEF909362088093610881E080936708E4
S1131E8010926A08109269080E94F2070F91FF905D
S1131E90EF90089580915E088F5F80935E080895A7
S1131EA00FB6F8940F928091690890916A080F9088
S1131EB00FBE0895EF92FF920F931F93CF93DF937A
S1131EC080915E08811189C0E0906908F0906A08E9
S1131ED08FEFE81AF80AF0926A08E0926908E114B0
S1131EE0F104B9F4809181089091820820917F08CF
S1131EF03091800830938208209381089093800861
S1131F0080937F08809164088F5F809364080E94A7
S1131F10A90D8091610890916208E816F90608F409
S1131F2061C0E0918108F09182088081882379F072
S1131F30E0918108F09182080580F681E02DC68148
S1131F40D7818A819B81E816F906D8F415C08FEFF2
S1131F509FEF909362088093610844C0E0918108E8
S1131F60F09182080580F681E02DC681D7818A81AF
S1131F709B81E816F90628F490936208809361081F
S1131F8031C08E010E5F1F4FC8010E9460078C890B
S1131F909D89892B21F0CE010C960E9460072E8921
S1131FA080916808821710F42093680830E0C90112
S1131FB0880F991F880F991F880F991F820F931FED
S1131FC0B8018B56974F0E940E07E0918108F0915B
S1131FD0820880818111C2CFBACF809166088F5F59
S1131FE08093660880E0DF91CF911F910F91FF905D
S1131FF0EF900895DF92EF92FF920F931F93CF9388
S1132000DF930FB6F8940F9280915E08815080930D
S11320105E0880915E08811159C080916B0881111E
S113202033C054C0D7011596ED91FC911697C68123
S1132030D781CE010C960E9460078E010E5F1F4F60
S1132040C8010E9460072E8980916808821710F4E5
S11320502093680830E0C901880F991F880F991FE1
S1132060880F991F820F931FB8018B56974F0E94B8
S11320700E07E091CB08F091CC089E8986899817C9
S113208068F0D09265080AC0C0E0D0E00F2EF6E7F1
S1132090EF2EF8E0FF2EF02DDD24D394F70180819C
S11320A08111C0CFCD2B11F00E94A90DC0916608FB
S11320B0CC2351F0D1E00E945A0F8111D0936508CE
S11320C0C150C9F710926608809165080F900FBE41
S11320D080E0DF91CF911F910F91FF90EF90DF90FF
S11320E00895CF93DF93EC01892B51F00E944A0F9E
S11320F060E0CE010E94C80D0E94FA0F811102C057
S11321000E942C08DF91CF9108950DE618E029C0B4
S11321100E944A0FD801CC910E94FA0FCC2309F1F6
S11321200FB6F8940F92D8011596ED91FC9116977D
S1132130C681D781CE0102960E94600780916B0808
S1132140815080936B0880916C08815080936C0857
S11321500F900FBE8F89988D0E94DE08CE010E94D9
S1132160DE0880916C088111D3CF0E942C080E9454
S11321706A05F7CF009721F48091CB089091CC08A1
S11321800FB6F8940F92FC0176A365A30F900FBECF
S1132190089580915E08882321F081E0809365088A
S11321A0089510926508E091CB08F091CC0885A1C0
S11321B00E94B50620916808822F90E0FC01EE0F82
S11321C0FF1FEE0FFF1FEE0FFF1FE80FF91FEB5667
S11321D0F74F3081311111C02150822F90E0FC0162
S11321E0EE0FFF1FEE0FFF1FEE0FFF1FE80FF91F8B
S11321F0EB56F74F3081332379F3AC01440F551F6D
S1132200440F551F440F551F480F591FDA01AB5691
S1132210B74F1196ED91FC9112970280F381E02D56
S11322201296FC93EE9311974856574FE417F5070F
S113223029F442815381FD0152834183FC01EE0F55
S1132240FF1FEE0FFF1FEE0FFF1F8E0F9F1FFC01DE
S1132250EB56F74F0180F281E02D868197819093B0
S1132260CC088093CB0820936808E091CB08F091C8
S1132270CC0885A10E94AA060895CF93DF93EB01B1
S11322802091CB083091CC08B901645F7F4F0E9444
S11322902F0761E0CE010E94C80DDF91CF91089510
S11322A00F931F93CF938B01C42F2091CB083091B0
S11322B0CC08B901645F7F4F0E940E07CC2311F054
S11322C00FEF1FEF6C2FC8010E94C80DCF911F9113
S11322D00F9108950F931F93CF93DF93DC0115960D
S11322E0ED91FC911697C681D7818E01045F1F4F33
S11322F0C8010E94600780915E0881111CC00A50C9
S11323001109C8010E9460072E898091680882170C
S113231010F42093680830E0C901880F991F880FD2
S1132320991F880F991F820F931FB8018B56974FDF
S11323300E940E0705C0B80186E798E00E940E07C8
S1132340E091CB08F091CC089E898689891720F406
S113235081E08093650801C080E0DF91CF911F91F7
S11323600F91089520916408FC012083209169084D
S113237030916A08328321830895CF93DF93FC015F
S11323800FB6F8940F922091690830916A088091F1
S113239064089081981729F0818192812817390760
S11323A0B0F4A181B281EB0148815981C9018A1B32
S11323B09B0B8417950768F4CF01A21BB30B4A0F3C
S11323C05B1F598348830E94B21180E003C081E0FF
S11323D001C081E00F900FBEDF91CF91089581E09D
S11323E080936508089580916708882331F080916F
S11323F05E08882321F080E0089581E0089582E05A
S113240008950F931F93CF93DF93FC01892B09F455
S113241055C02689A091CB08B091CC0856968C91D2
S1132420281708F04BC084859585992364F0A09102
S1132430CB08B091CC0856963C9186E090E0831B83
S113244091099587848730E0C901880F991F880F07
S1132450991F880F991F280F391F2B56374F8285D4
S113246093858217930719F58F01EF012296CE0108
S11324700E946007E091CB08F091CC082689F8010E
S1132480268B80916808821710F42093680830E046
S1132490C901880F991F880F991F880F991F820FF0
S11324A0931FBE018B56974F0E940E0707C0A09141
S11324B0CB08B091CC0856968C91868BDF91CF9146
S11324C01F910F9108950F931F93CF93DF93FC01F6
S11324D0892B79F184A1815084A3268993A129179A
S11324E051F181112AC0EF018F010E5F1F4FC80106
S11324F00E9460072BA12E8B46E050E0421B51093D
S11325005D874C8780916808821710F420936808CF
S113251030E0C901880F991F880F991F880F991FF0
S1132520820F931FB8018B56974F0E940E0781E0CC
S113253005C080E003C080E001C080E0DF91CF915E
S11325401F910F9108958091CB089091CC08892B0D
S113255039F0E091CB08F091CC0884A18F5F84A37B
S11325608091CB089091CC080895FC017383628319
S1132570918780874617570790F0421B530B848539
S1132580958548175907E0F4BF016E5F7F4F80912E
S1132590D3089091D4080E942F0780E00895421731
S11325A0530718F46217730768F4BF016E5F7F4F17
S11325B08091D5089091D6080E942F0780E0089555
S11325C081E0089581E008950FB6F8940F92809108
S11325D0D1089091D208892BE9F480EE98E00E940A
S11325E0FC0687ED98E00E94FC0680EE98E090934C
S11325F0D6088093D50887ED98E09093D40880930B
S1132600D30840E065E082E00E94A90B9093D208D1
S11326108093D1080F900FBE0895EF92FF920F930D
S11326200E94E4128091D1089091D208892B91F0F4
S11326300F2EFFECEF2EF8E0FF2EF02D05E020E04A
S113264030E042E350E06FE771E089E194E10E94F9
S11326500C0E01C080E00F91FF90EF9008959F92BF
S1132660AF92BF92CF92DF92EF92FF920F931F939C
S1132670CF93DF935C016B01942E790184E190E0A8
S11326800E94A908EC01892B79F00E94E412B98216
S1132690A882DD86CC869E86F88AEF861A8B098B03
S11326A0CE0102960E940A07CE01DF91CF911F91BD
S11326B00F91FF90EF90DF90CF90BF90AF909F90DD
S11326C008950F931F93CF93DF9300D000D01F92F0
S11326D0CDB7DEB7E091D108F091D208309771F10F
S11326E0D90169835B834A839D838C836630ECF4D0
S11326F00E94F311823061F420E0A801BE016F5FF3
S11327007F4F8091D1089091D2080E94DA0B17C0B4
S113271020E040E050E0BE016F5F7F4F8091D10820
S11327209091D2080E94DA0B0AC020E0AD01BE01EC
S11327306F5F7F4FCF010E948D0C01C080E00F902E
S11327400F900F900F900F90DF91CF911F910F91E9
S11327500895AF92BF92CF92DF92EF92FF920F93C0
S11327601F93CF93DF936C010E94500F7C018091E3
S1132770CD089091CE08E816F90608F048C030C09C
S11327800580F681E02DA080B180C681D7818E01BD
S11327900E5F1F4FC8010E946007E989FA89CE01C4
S11327A009958E858130E1F48C859D858A0D9B1D6C
S11327B0A816B90660F49B838A83D987C887B801B1
S11327C08091D5089091D6080E942F0709C000E097
S11327D010E020E030E0A50160E0CE010E9461132A
S11327E0E091D508F091D60890819111C9CF8091DC
S11327F0D3089091D4089093D6088093D508F09389
S1132800D408E093D30881E0F601808302C0F60186
S11328101082F092CE08E092CD08C701DF91CF91EB
S11328201F910F91FF90EF90DF90CF90BF90AF90EA
S11328300895CF93DF9300D000D000D0CDB7DEB79A
S1132840CE0101964C0144244394E12CF12CD12C6B
S1132850582EC92CE091D508F091D60880818823A0
S113286079F00580F681E02DA080B1800E944A0FA6
S1132870C4010E94A9138C018981882359F05DC089
S11328800E944A0FC4010E94A9138C0189818823E4
S1132890C1F153C00A151B0508F43EC00E94FA0F8B
S11328A0E091D508F091D6080580F681E02D668088
S11328B07780C30102960E946007D3011E968C9113
S11328C01E978130B1F41C966D917C911D976A0D11
S11328D07B1D9501A801C3010E94B512882349F00C
S11328E00E2D1F2D2E2D3F2DA5016D2DC3010E94F0
S11328F06113D3015196ED91FC915297C30109954F
S11329007CC0E091D308F091D408442D80818111DA
S11329104D2DAE2CBF2C01C04D2DB501601B710B8C
S11329208091D1089091D2080E948C0D0E94FA0FD8
S1132930811163C00E942C0860C00E94FA0F5DC020
S1132940898188230CF459C0AC80BD80F50182854F
S11329509385892B21F0C50102960E946007CE0160
S113296006960E94A913E9810E2FEE0F110B220B7C
S1132970330B0A30110508F040C0F801E25CFF4F48
S11329800C942D152A813B81D5011C966D917C9167
S11329901D97620F731FAC01C5010E94B5128823F5
S11329A061F1D5015196ED91FC915297C5010995BC
S11329B0F5018685813009F5448555858A819B8199
S11329C0480F591F0E2D1F2D2E2D3F2D6D2DC50186
S11329D00E94611312C06A817B81D5011D967C938C
S11329E06E931C97680F791F9C01AC01C5010E946E
S11329F0B51203C0C5010E94DE082D2D4E2D5F2D9A
S1132A00652D7C2D8091D1089091D2080E94C70C2D
S1132A10811196CF1FCFA1E21A2EAA1BBB1BFD0169
S1132A200DC0AA1FBB1FEE1FFF1FA217B307E407A9
S1132A30F50720F0A21BB30BE40BF50B661F771F01
S1132A40881F991F1A9469F76095709580959095E1
S1132A509B01AC01BD01CF010895EE0FFF1F05904E
S1132A60F491E02D0994CF93DF938230910510F413
S1132A7082E090E0E091EB08F091EC0820E030E097
S1132A80C0E0D0E0309711F14081518148175907D7
S1132A90C0F04817590761F482819381209719F097
S1132AA09B838A832BC09093EC088093EB0826C009
S1132AB02115310519F04217530718F49A01BE0184
S1132AC0DF01EF010280F381E02DDCCF2115310518
S1132AD009F1281B390B2430310590F412968D919D
S1132AE09C9113976115710521F0FB0193838283F7
S1132AF004C09093EC088093EB08FD01329644C027
S1132B00FD01E20FF31F81939193225031092D931C
S1132B103C933AC02091E9083091EA08232B41F410
S1132B2020910201309103013093EA082093E908CF
S1132B3020910001309101012115310541F42DB797
S1132B403EB74091040150910501241B350BE091DF
S1132B50E908F091EA08E217F307A0F42E1B3F0BF3
S1132B602817390778F0AC014E5F5F4F24173507FB
S1132B7048F04E0F5F1F5093EA084093E908819391
S1132B80919302C0E0E0F0E0CF01DF91CF9108958E
S1132B900F931F93CF93DF93009709F48CC0FC012C
S1132BA03297138212820091EB081091EC08011500
S1132BB0110581F420813181820F931F2091E9084E
S1132BC03091EA082817390779F5F093EA08E09379
S1132BD0E90871C0D80140E050E0AE17BF0750F4D7
S1132BE012962D913C911397AD012115310509F1F0
S1132BF0D901F3CF9D01DA0133832283608171818E
S1132C00860F971F8217930769F4EC012881398195
S1132C10260F371F2E5F3F4F318320838A819B818C
S1132C2093838283452B29F4F093EC08E093EB081B
S1132C3042C01396FC93EE931297ED01499159917A
S1132C409E01240F351FE217F30771F480819181EF
S1132C50840F951F029611969C938E938281938183
S1132C6013969C938E931297E0E0F0E0D8011296AD
S1132C708D919C911397009719F0F8018C01F6CF70
S1132C808D919C9198012E5F3F4F820F931F20914D
S1132C90E9083091EA082817390769F4309729F4CC
S1132CA01092EC081092EB0802C013821282109367
S1132CB0EA080093E908DF91CF911F910F910895DD
S1132CC08F929F92AF92BF92CF92DF92EF92FF9238
S1132CD0CF93DF93EC01688179818A819B816115AF
S1132CE071058105910521F464E279ED8BE597E0A6
S1132CF02DE133EF41E050E00E94CC1649015A0126
S1132D009B01AC01A7EAB1E40E94EB166B017C01C4
S1132D10ACEEB4EFA50194010E94F916DC01CB01DD
S1132D208C0D9D1DAE1DBF1DB7FF03C00197A109EA
S1132D30B04888839983AA83BB839F77DF91CF911F
S1132D40FF90EF90DF90CF90BF90AF909F908F90C7
S1132D5008950E946016089586E091E00E9460162E
S1132D600895A0E0B0E08093060190930701A0933A
S1132D700801B09309010895FB01DC0102C0019030
S1132D800D9241505040D8F70895DC0101C06D9375
S1132D9041505040E0F70895052E97FB1EF400942F
S1132DA00E94E31657FD07D00E940B1507FC03D0C1
S1132DB04EF40C94E31650954095309521953F4F71
S1132DC04F4F5F4F089590958095709561957F4F13
S1132DD08F4F9F4F08950E94FE16A59F900DB49F9C
S1132DE0900DA49F800D911D11240895B7FF0C949C
S1132DF0EB160E94EB16821B930B0895A29FB00161
S1132E00B39FC001A39F700D811D1124911DB29F1A
S1112E10700D811D1124911D0895F894FFCFBB
S1132E1E0000ED082000010000000100C600CE00F5
S1132E2E54696D656F757400446973706C617920B3
S1132E3E757064617465720047616D65206C6F67AF
S1132E4E6963004F62737461636C6573004A6F79D2
S1132E5E737469636B2073616D706C657200436F7C
S1132E6E6D6D756E69636174696F6E2073656E64E2
S1132E7E657200436F6D6D756E69636174696F6E13
S1132E8E2072656365697665720049444C45005449
S10B2E9E6D72205376630000FD
S9030000FC
