S01600004672656552544F532D54657374322E7372656345
S11300000C9448000C9465000C9465000C946500F5
S11300100C9465000C9465000C9465000C946500C8
S11300200C9465000C9465000C9465000C946500B8
S11300300C9465000C9410080C9465000C946500F5
S11300400C9466050C9465000C9465000C94650092
S11300500C94C3080C9401090C9465000C9465007D
S11300600C9465000C9465000C9465000C94650078
S11300700C9449090C9487090C946500001400142D
S113008000143B1429143814001400143B142914CC
S113009011241FBECFEFD8E0DEBFCDBF11E0A0E03A
S11300A0B1E0EAE9FCE202C005900D92AC35B1077B
S11300B0D9F72AE0ACE5B1E001C01D92A630B20741
S11300C0E1F70E94F0040C944B160C940000CF93BB
S11300D0DF9300D000D0CDB7DEB762E070E080E0FF
S11300E090E00E942A100F2EF5E66F2EF1E07F2E8D
S11300F0F02D33243394212C0F2EF3E8AF2EF2E0AD
S1130100BF2EF02D0F2EF9E68F2EF1E09F2EF02D4D
S11301100F2EF1E8CF2EF2E0DF2EF02D19821A8295
S113012080915F0190916001892B09F0CFC0D301C8
S11301308D919C9111979C01220F331F880F991F59
S1130140880F991F880F991F820F931F1296ED91A4
S1130150FC9113978E0F9F1FFC01E058FD4F808187
S11301608111B0C020E04FEF5FEF60E070E080915C
S11301703103909132030E94FA0B882309F4A6C03C
S11301800F2EF1E8EF2EF2E0FF2EF02D4BE651E0BA
S1130190B7010EC08D9190E081939193E217F3071C
S11301A0C9F7665F7F4F4C5E5F4F4A155B0531F0C0
S11301B09A012E5E3F4FFA01DB01ECCFEDE7F1E04F
S11301C0432C522C00E010E0FC83EB830E94EA15E0
S11301D081709078992324F401978E6F9F6F019614
S11301E0D4018D939C93023011052CF0BDE04B1685
S11301F05104D9F470C00E94EA1581709078992353
S113020024F401978E6F9F6F0196EB81FC8191839B
S11302108083019711F40F5F1F4FC20183709927E8
S1130220892B39F409811A8104C0AB81BC811D92E8
S11302301C92BFEF4B1A5B0AEB81FC817496FC8322
S1130240EB83FEE04F16510409F6A4010EC0808131
S113025032968D93E217F307D1F74C5E5F4F8AE035
S1130260E80EF11C4C155D0531F09A012E5E3F4FEE
S1130270D701FA01ECCFD3018D919C911197FC0128
S1130280EE0FFF1F880F991F880F991F880F991F62
S1130290E80FF91F12968D919C911397E80FF91F9F
S11302A0EE0FFF1FE759FE4F3082218220E040E02D
S11302B050E060E070E080913103909132030E943D
S11302C0050B04C030925F012092600188EE93E038
S11302D00E94D70F25CF0E94EA1581709078992348
S11302E024F401978E6F9F6F0196EB81FC819183BB
S11302F08083019709F0A9CF8ECFCF93DF9300D0ED
S113030000D000D0CDB7DEB765E070E080E090E0CB
S11303100E942A10EE24E394F12C05E611E00F2E3E
S1130320F3E0CF2ED12CF02D6894AA24A1F8B12C9F
S113033080915F0190916001892B09F04AC0F80116
S1130340808191819C838B83828193819E838D8321
S113035030990EC01A82198220E04FEF5FEFBE0180
S11303606F5F7F4F8091290390912A030E94050BB0
S113037031990EC0BA82A98220E04FEF5FEFBE012F
S11303806F5F7F4F8091290390912A030E94050B90
S113039036990EC0FA82E98220E04FEF5FEFBE018A
S11303A06F5F7F4F8091290390912A030E94050B70
S11303B0379915C0DA82C98220E04FEF5FEFBE01A2
S11303C06F5F7F4F8091290390912A030E94050B50
S11303D006C04B9904C0F0925E01E0925D0184E690
S11303E090E00E94D70FA4CFCF92DF92EF92FF92BA
S11303F00F931F93CF93DF93CDE0D3E049E651E011
S113040001E812E0C12CD12C61E070E0DE01198218
S11304101882FA018C2D9D2D2191319121303105C5
S113042079F4ED90FC9011979B01082E02C0220FE5
S1130430331F0A94E2F72E293F2911963C932E93F9
S113044001968A30910541F722964C5E5F4F401722
S11304505107E1F6DF91CF911F910F91FF90EF903B
S1130460DF90CF9008958130910509F462C040F087
S11304708230910509F4BAC0039709F414C10895B0
S1130480DB0112962D913C911397C90101968A3094
S1130490910508F063C14D915C91DA01AA0FBB1F6D
S11304A0FA01EE0FFF1FEE0FFF1FEE0FFF1FEA0F03
S11304B0FB1FE80FF91FEE0FFF1FE759FE4F808166
S11304C09181892B09F04AC1FD01440F551F440F46
S11304D0551F440F551FE40FF51FE20FF31FEE0FD6
S11304E0FF1FE759FE4F11821082FB0120813181E9
S11304F082819381019693838283F901EE0FFF1F1A
S1130500220F331F220F331F220F331FE20FF31F5B
S1130510E80FF91FEE0FFF1FE759FE4F81E090E04F
S1130520918380830E94F40188EC90E00E94D70FAD
S11305300895DB0112962D913C91139721153105F5
S113054009F40CC14D915C911197FA01EE0FFF1F54
S1130550CA01880F991F880F991F880F991FE80FE8
S1130560F91FE20FF31FEE0FFF1FE959FE4F8081C1
S11305709181892B09F0F2C0FA01EE0FFF1F440F9D
S1130580551F440F551F440F551FE40FF51FE20F6D
S1130590F31FEE0FFF1FE759FE4F118210821296D0
S11305A08D919C911397019713969C938E93129718
S11305B02D913C91F901EE0FFF1F220F331F220FE3
S11305C0331F220F331FE20FF31FE80FF91FEE0F43
S11305D0FF1FE759FE4F81E090E0918380830E94E2
S11305E0F40188EC90E00E94D70F0895FB0120816C
S11305F03181C90101968E30910508F0AFC0428166
S11306005381FC01EE0FFF1F880F991F880F991F5C
S1130610880F991FE80FF91FE40FF51FEE0FFF1F56
S1130620E759FE4F80819181892B09F097C0C90158
S1130630880F991F220F331F220F331F220F331FDE
S1130640280F391FF901E40FF51FEE0FFF1FE759BB
S1130650FE4F11821082DB018D919C9111970196BE
S113066011969C938E931296ED91FC9113979C0195
S1130670220F331F880F991F880F991F880F991F06
S1130680820F931FE80FF91FEE0FFF1FE759FE4F6C
S113069081E090E0918380830E94F40188EC90E0F3
S11306A00E94D70F0895FB01208131812115310566
S11306B009F454C042815381C9010197FC01EE0F32
S11306C0FF1F880F991F880F991F880F991FE80F24
S11306D0F91FE40FF51FEE0FFF1FE759FE4F80814E
S11306E09181892BD9F5C901880F991F220F331FD6
S11306F0220F331F220F331F280F391FF901E40F74
S1130700F51FEE0FFF1FE759FE4F11821082DB0128
S11307108D919C911197019711969C938E931296AB
S1130720ED91FC9113979C01220F331F880F991FA1
S1130730880F991F880F991F820F931FE80FF91FC5
S1130740EE0FFF1FE759FE4F81E090E09183808315
S11307500E94F40188EC90E00E94D70F089563E0B2
S113076070E080E090E00E942A100E94F40189E287
S113077090E00E94D70FF9CFE9E6F1E021E832E0FA
S113078041E852E00CC0119211921D92E817F9074A
S1130790D1F7265F3F4FFC014817590721F0CF01DD
S11307A04496D901F0CFE5E6F1E086E090E091834C
S11307B0808389E090E09383828381E090E090934A
S11307C0F4018093F3010895CF93DF9300D000D018
S11307D000D0CDB7DEB764E070E080E090E00E9426
S11307E02A1001E010E00F2EF5E6EF2EF1E0FF2EC7
S11307F0F02D0F2EF1E6CF2EF1E0DF2EF02D8091BB
S11308005F0190916001892B09F053C020E04FEF04
S11308105FEFBE016F5F7F4F8091290390912A03A0
S11308200E94FA0B882309F43FC020E04FEF5FEFEA
S113083060E070E080913103909132030E94FA0BE2
S1130840882391F18B819C81F7012081318182176A
S1130850930769F44D815E812281338142175307E6
S113086031F4B70189819A810E94330212C0F601E2
S1130870208131818217930761F42D813E81828129
S113088093812817390729F4B60189819A810E9436
S1130890330220E040E050E060E070E080913103FA
S11308A0909132030E94050B82E390E00E94D70FDF
S11308B0A6CF20915D0130915E0180910A01909153
S11308C00B01820F931F029709F099CF10926001D8
S11308D010925F0110925E0110925D0110930B0162
S11308E000930A010E94BC038ACF61E070E080E0BB
S11308F090E00E942A100E94BC0381E00E94A60B93
S11309009093320380933103E12CF12C02E020E038
S113091030E045E550E060E171E08FEA93E00E9449
S1130920460D07E020E030E045E550E060E271E08C
S113093084EE93E00E94460D06E020E030E045E5B9
S113094050E06BE271E087E690E00E94460D03E020
S113095020E030E045E550E065E371E08DE791E0AB
S11309600E94460DFFCF5A9A08955D9A5D985C9A4D
S11309705C985A980895809582B985B1836085B949
S113098085B193709095892385B90895CF93C091CB
S11309905C01C1110EC00E94B30480910D039091BB
S11309A00E030E94BB040E94B50481E080935C01A5
S11309B014C0EC2FF0E0EE0FFF1FE35FFC4F8081CB
S11309C091810E94BB040E94B504CF5FCE3018F41D
S11309D0C0935C0102C010925C01CF910895089508
S11309E00E948F0540E061E08EE10E94D40A90935A
S11309F034038093330340E061E084E10E94D40A2D
S1130A009093300380932F0340E061E084E10E94DF
S1130A10D40A90932E0380932D0340E061E084E197
S1130A200E94D40A90932C0380932B0340E066E049
S1130A3084E10E94D40A90932A03809329035E9848
S1130A40E12CF12C00E020E030E045E550E066E4E4
S1130A5071E085E794E00E94460D86EC94E00E94E4
S1130A60540578940E945F0EFFCFCF93DF9300D09C
S1130A70CDB7DEB76A8380917D0390917E030097A2
S1130A8071F0198220E0AE014F5F5F4FBE016E5FCF
S1130A907F4F0E94C00B898181110E945B070F90D8
S1130AA00F90DF91CF91089590937C0380937B0303
S1130AB08AE087BD84B5826084BDEEE6F0E0808183
S1130AC08260808385B5856085BD08951F920F92ED
S1130AD00FB60F9211242F933F934F935F936F930D
S1130AE07F938F939F93AF93BF93EF93FF93E09183
S1130AF07B03F0917C03309709F00995FF91EF9106
S1130B00BF91AF919F918F917F916F915F914F9121
S1130B103F912F910F900FBE0F901F9018958F92B9
S1130B209F92AF92BF92CF92DF92EF920F9388E59C
S1130B3093E00E94E80585E393E00E94E8050F2E08
S1130B40F5E38F2EF5E09F2EF02D0F2EF5E3AF2E5B
S1130B50F3E0BF2EF02D0F2EF8E5CF2EF3E0DF2EBD
S1130B60F02DE12C00E023E040E052EC61E070E085
S1130B7080E00E9449089093800380937F0388B1AA
S1130B80836C88B95B9A8AB184678AB95E9A81B1A9
S1130B908FEF81B984B1836084B984B18C6384B9E3
S1130BA00F91EF90DF90CF90BF90AF909F908F9078
S1130BB0089595B1937C95B925B134E0839FC00124
S1130BC01124822B85B9089585B1837C85B9089554
S1130BD0FC0110A211A212A20895FC0182A1882393
S1130BE0D9F081A1DF01A80FB11D8C91DB018C9399
S1130BF021A130E02F5F3F4F2F713078332334F43D
S1130C0021503109206E3F6F2F5F3F4F21A382A1F6
S1130C10815082A380E0089581E00895FC0142A1FF
S1130C204032B8F420A130E0E20FF31F60832F5F5D
S1130C303F4F2F713078332334F421503109206E23
S1130C403F6F2F5F3F4FFC0120A34F5F42A380E023
S1130C50089582E00895FC010396928381832FEF27
S1130C603FEF348323839683858390878783108221
S1130C700895FC01118610860895CF93DF939C019B
S1130C80FB01DC011196CD91DC911297D383C283D1
S1130C908C819D81958384838C819D81DC01139655
S1130CA07C936E9312977D836C8331872087F9013F
S1130CB080818F5F8083DF91CF910895CF93DF93FD
S1130CC0EB01488159814F3F2FEF520721F4FC017A
S1130CD0A781B0850DC0DC01139601C0DF01129617
S1130CE0ED91FC9113972081318142175307B0F79E
S1130CF01296ED91FC911397FB83EA83D583C48309
S1130D00BD83AC831396DC93CE931297998788871F
S1130D10FC0120812F5F2083DF91CF910895CF9331
S1130D20DF93FC01A085B185C281D3818481958143
S1130D309D838C83C481D581828193819B838A83A3
S1130D401196CD91DC911297CE17DF0731F48C8187
S1130D509D8112969C938E931197118610868C9187
S1130D6081508C93DF91CF91089531E1FC01308360
S1130D70319722E220833197A3E3A08331976083E4
S1130D803197708331971082319760E8608331978F
S1130D901082319762E06083319763E0608331971A
S1130DA064E06083319765E06083319766E0608337
S1130DB0319767E06083319768E06083319769E039
S1130DC06083319760E1608331973083319732E1FA
S1130DD03083319733E13083319734E13083319775
S1130DE035E13083319736E13083319737E1308311
S1130DF0319738E13083319739E13083319730E2EC
S1130E003083319731E2308331972083319723E265
S1130E1020833197408331975083319726E2208392
S1130E20319727E22083319728E22083319729E202
S1130E302083319720E32083319721E32083869711
S1130E4008951092890085EE809388008BE080934A
S1130E508100EFE6F0E0808182608083A091E40964
S1130E60B091E509CD91CDBFDD91DEBFFF91EF914A
S1130E70DF91CF91BF91AF919F918F917F916F91AE
S1130E805F914F913F912F911F910F91FF90EF90A0
S1130E90DF90CF90BF90AF909F908F907F906F9096
S1130EA05F904F903F902F901F900F900FBE0F9028
S1130EB0089581E008950F920FB6F8940F921F924F
S1130EC011242F923F924F925F926F927F928F9252
S1130ED09F92AF92BF92CF92DF92EF92FF920F93C5
S1130EE01F932F933F934F935F936F937F938F93AE
S1130EF09F93AF93BF93CF93DF93EF93FF93A0910F
S1130F00E409B091E5090DB60D920EB60D920E945A
S1130F103910A091E409B091E509CD91CDBFDD91DF
S1130F20DEBFFF91EF91DF91CF91BF91AF919F9180
S1130F308F917F916F915F914F913F912F911F916D
S1130F400F91FF90EF90DF90CF90BF90AF909F9064
S1130F508F907F906F905F904F903F902F901F9055
S1130F600F900FBE0F9008950F920FB6F8940F9242
S1130F701F9211242F923F924F925F926F927F9211
S1130F808F929F92AF92BF92CF92DF92EF92FF9295
S1130F900F931F932F933F934F935F936F937F937D
S1130FA08F939F93AF93BF93CF93DF93EF93FF936D
S1130FB0A091E409B091E5090DB60D920EB60D921B
S1130FC00E949D0E81110E943910A091E409B091F4
S1130FD0E509CD91CDBFDD91DEBFFF91EF91DF91AA
S1130FE0CF91BF91AF919F918F917F916F915F91BD
S1130FF04F913F912F911F910F91FF90EF90DF90B0
S1131000CF90BF90AF909F908F907F906F905F90A4
S11310104F903F902F901F900F900FBE0F90089508
S11310200E94B4071895CF93DF93EC010E948D0EB4
S11310308091810390918203892B31F486E893E0B7
S113104090938203809381032091830330918403DE
S1131050CE01820F931F8B3D45E0940770F428174F
S1131060390770F4C0918103D0918203C20FD31F5A
S1131070909384038093830305C0C0E0D0E002C052
S1131080C0E0D0E00E94580FCE01DF91CF910895C7
S113109008954F925F926F927F928F929F92AF9238
S11310A0BF92CF92DF92FF920F931F93CF93DF9360
S11310B0CDB7DEB7F82E2A013B0188E090E00E940C
S11310C071148C018F2D90E0880F991FFC01EF594A
S11310D0F64F11830083FC01E45FFE4F8081918110
S11310E0D80111969C938E931396BC92AE9212974C
S11310F01596DC92CE92149717969C928E92169720
S1131100FFB6F894ED91FC91119736978081826037
S11311108083CD90DC90D301C201880F991FAA1F50
S1131120BB1F880F991FAA1FBB1F9C01AD01220F73
S1131130331F441F551F60E070E081EE90E00E9471
S113114049142150F60132972083D801ED91FC9186
S11311501197359788E98083ED91FC91349786E067
S11311608083FFBEC801DF91CF911F910F91FF9043
S1131170DF90CF90BF90AF909F908F907F906F90B3
S11311805F904F9008951F920F920FB60F92112403
S11311902F933F934F935F936F937F938F939F937B
S11311A0AF93BF93CF93EF93FF93E0916109F091D5
S11311B062093097A1F0C091C6006C2F848195819B
S11311C00E940E068091610990916209DC011696D5
S11311D0ED91FC911797309711F06C2F0995FF91C1
S11311E0EF91CF91BF91AF919F918F917F916F912B
S11311F05F914F913F912F910F900FBE0F901F90D1
S113120018951F920F920FB60F9211242F933F93AC
S11312104F935F936F937F938F939F93AF93BF93FA
S1131220EF93FF93CF93DF931F92CDB7DEB7E09197
S11312306109F0916209309799F0BE016F5F7F4FA9
S1131240828193810E94ED05811104C0898180937C
S1131250C6000BC0E1ECF0E080818F7D808305C087
S1131260E1ECF0E080818F7D80830F90DF91CF915E
S1131270FF91EF91BF91AF919F918F917F916F916A
S11312805F914F913F912F910F900FBE0F901F9040
S113129018951F920F920FB60F9211242F933F931C
S11312A04F935F936F937F938F939F93AF93BF936A
S11312B0CF93EF93FF93E0916309F0916409309722
S11312C0A1F0C091CE006C2F848195810E940E06FE
S11312D08091630990916409DC011696ED91FC916B
S11312E01797309711F06C2F0995FF91EF91CF91DB
S11312F0BF91AF919F918F917F916F915F914F912A
S11313003F912F910F900FBE0F901F9018951F9231
S11313100F920FB60F9211242F933F934F935F9325
S11313206F937F938F939F93AF93BF93EF93FF93A9
S1131330CF93DF931F92CDB7DEB7E0916309F091AD
S11313406409309799F0BE016F5F7F4F828193816A
S11313500E94ED05811104C089818093CE000BC0E9
S1131360E9ECF0E080818F7D808305C0E9ECF0E05A
S113137080818F7D80830F90DF91CF91FF91EF91DA
S1131380BF91AF919F918F917F916F915F914F9199
S11313903F912F910F900FBE0F901F9018950F93B0
S11313A01F93CF93DF93EC01042F1A8D8C8D811141
S11313B00CC088819981892B09F044C08A819B8162
S11313C00E94D3111B821A8244C0411118C0482FB5
S11313D050E08C819D810E94FA152C8D8C819D8119
S11313E0820F911D9D838C832A813B8182179307F1
S11313F058F1888199819D838C8380E02AC0482F8D
S113140050E08E819F810E94FA158C8D90E0919519
S1131410819591092E813F81280F391F3F832E83A7
S1131420488159812417350730F42A813B81820F82
S1131430931F9F838E83023049F4112349F0115086
S113144080E007C080E005C080E003C080E001C008
S113145080E01F5F1A8FDF91CF911F910F91089544
S1131460FC01448D4423A9F050E026813781240FE8
S1131470351F37832683828193812817390720F00B
S11314808081918197838683CB01668177810E94D5
S1131490FA150895EF92FF920F931F93CF938C0147
S11314A00FB6F8940F92FC01C68D1C16ACF481891A
S11314B0811106C011C0F8019189911105C00CC0B9
S11314C07801F1E1EF0EF11CC7010E94DA108111DD
S11314D00E945F11C15079F78FEFF801868F0F904A
S11314E00FBE0FB6F8940F92C58D1C16ACF4808510
S11314F0811106C011C0F8019085911105C00CC07E
S11315007801F8E0EF0EF11CC7010E94DA10811196
S11315100E945F11C15079F78FEFF801858F0F900A
S11315200FBECF911F910F91FF90EF900895CF932D
S1131530DF93EC010FB6F8940F92488159812C8DFA
S113154030E07B8D729FC001739F900D1124FA01CE
S1131550E80FF91FFB83EA831A8E5D834C83821B99
S1131560930B840F951F9F838E838FEF8D8F8E8FA8
S113157061110CC08885882389F0CE0108960E94E9
S1131580DA10882359F00E945B0708C0CE01089640
S11315900E942B06CE0141960E942B060F900FBE8F
S11315A081E0DF91CF910895FF920F931F93CF9322
S11315B0DF93082F162FF42E6623C9F0869FC001EF
S11315C0112481960E941308EC01009749F416C077
S11315D00B8F1C8F61E0CE010E94970AF8A20EC007
S11315E0819699838883F4CFD983C883F1CF81E22C
S11315F090E00E941308EC01892BB1F7CE01DF9132
S1131600CF911F910F91FF9008959F92AF92BF9237
S1131610CF92DF92EF92FF920F931F93CF93DF93BA
S113162000D000D01F92CDB7DEB78C016B015D8373
S11316304C83A22EB12C992493947C0188E0E80E6B
S1131640F11C0FB6F8940F92F801328D938D39176F
S113165018F0F2E0AF1219C04A2DB601C8010E9479
S1131660CF09F8019189992349F0C80141960E9454
S1131670DA10882331F00E945B0703C081110E94B5
S11316805B070F900FBE81E050C0EC81FD81EF2B12
S113169021F40F900FBE80E048C0B11005C0CE0108
S11316A001960E942211B92C0F900FBE0E948D0E3C
S11316B00FB6F8940F92F801858D8F3F09F4158EBB
S11316C0F801868D8F3F09F4168E0F900FBEBE0170
S11316D06C5F7F4FCE0101960E942D1181111FC0B6
S11316E00FB6F8940F92F801928D0F900FBE838D70
S11316F098130FC06C817D81C7010E94AD10C80191
S11317000E944A0A0E94580F81119BCF0E945B07D6
S113171098CFC8010E944A0A0E94580F92CFC8016C
S11317200E944A0A0E94580F80E00F900F900F9079
S11317300F900F90DF91CF911F910F91FF90EF9039
S1131740DF90CF90BF90AF909F900895CF93DF9399
S1131750482F60E081E00E94D40AEC01009761F018
S11317601B821A82198218821E8220E040E050E017
S113177060E070E00E94050BCE01DF91CF910895E7
S1131780EF92FF920F931F93CF93DF938A01FC0193
S1131790528D338D531710F02230F1F4422F78011B
S11317A0EC011E8D0E94CF091F3F81F48989882393
S11317B0A9F0CE0141960E94DA10882389F0E11441
S11317C0F10481F081E0F70180830DC0FF24F394DC
S11317D0F10EFE8E81E007C080E005C081E003C009
S11317E081E001C081E0DF91CF911F910F91FF90C3
S11317F0EF9008958F929F92AF92BF92CF92DF9213
S1131800EF92FF920F931F93CF93DF9300D000D0FA
S11318101F92CDB7DEB78C015B015D834C83822EB2
S1131820E12C992493946C0181E1C80ED11C0FB66C
S1131830F8940F92F801F28CFF2091F1C680D780C2
S1131840B501C8010E94300A811019C0FA94F80148
S1131850F28E80819181892B29F40E941312F80160
S113186093838283F80180858823B1F0C8010896A8
S11318700E94DA10882381F00E945B070DC0F801F2
S1131880D782C6828189882339F0C80141960E9493
S1131890DA1081110E945B070F900FBE81E064C0D3
S11318A04C815D81452B21F40F900FBE80E05CC01C
S11318B0E11005C0CE0101960E942211E92C0F907F
S11318C00FBE0E948D0E0FB6F8940F92F801858D0D
S11318D08F3F09F4158EF801968D9F3F09F4168EFB
S11318E00F900FBEBE016C5F7F4FCE0101960E9428
S11318F02D1181112BC00FB6F8940F92F801828D2F
S11319000F900FBE81111CC080819181892B49F4F5
S11319100FB6F8940F92828193810E9471110F90F7
S11319200FBE6C817D81C6010E94AD10C8010E946A
S11319304A0A0E94580F81117ACF0E945B0777CF21
S1131940C8010E944A0A0E94580F71CFC8010E9420
S11319504A0A0E94580F0FB6F8940F92F801828D2C
S11319600F900FBE811163CF0F900F900F900F90C7
S11319700F90DF91CF911F910F91FF90EF90DF9027
S1131980CF90BF90AF909F908F900895CF93DF93A7
S1131990EC010FB6F8940F928D8D8F3F09F41D8ED4
S11319A08E8D8F3F09F41E8E0F900FBE8A8D81118C
S11319B004C0CE0141960E94C010CE010E944A0A82
S11319C0DF91CF910895E0918809F0918909808190
S11319D0811107C08FEF9FEF909369098093680985
S11319E00895E0918809F09189090580F681E02D38
S11319F00680F781E02D8281938190936909809319
S1131A00680908950F931F93CF93DF93EC0100911E
S1131A107009109171098091E4099091E509029689
S1131A200E948F06C00FD11FE091E409F091E509EF
S1131A30D383C283C017D10768F46091E40970911D
S1131A40E50980918609909187096E5F7F4F0E9416
S1131A505E0617C06091E4097091E50980918809D8
S1131A60909189096E5F7F4F0E945E06809168099C
S1131A7090916909C817D90720F4D0936909C093D4
S1131A806809DF91CF911F910F9108954F925F9252
S1131A906F927F928F929F92AF92BF92CF92DF927A
S1131AA0EF92FF920F931F93CF93DF934C01EB01BF
S1131AB06A012901CA010E9413085C01892B09F4F7
S1131AC0ECC08CE290E00E9413083C010097B9F04E
S1131AD0FC01B08EA78AA60165EA70E0C5010E94E8
S1131AE00316F1E0CF1AD108F3018789908DC80E4F
S1131AF0D91E8881818F8881811105C014C0C501D8
S1131B000E944808CAC0D3015A96FE0131969E012C
S1131B10285F3F4FEF0181918D938881882319F0CD
S1131B20E217F307B9F7F30110A2083008F007E051
S1131B30F301068B03A314A2E3012296CE010E94B3
S1131B403906C3010C960E943906F301718660863A
S1131B5088E090E0801B910995878487738A628A64
S1131B6016A215A217A210A611A612A613A6A201C8
S1131B70B401C6010E94B506F30191838083E11488
S1131B80F10419F0F701718260820FB6F8940F9294
S1131B90809172098F5F809372098091E40990911A
S1131BA0E509892BA9F57092E5096092E409809111
S1131BB072098130F1F50CE919E00F2EF4EEEF2EE5
S1131BC0F9E0FF2EF02DC8010E942B06075F1F4F7E
S1131BD00E151F05C1F783E999E00E942B068AE8D8
S1131BE099E00E942B068DE799E00E942B0684E77A
S1131BF099E00E942B0683E999E0909389098093E8
S1131C0088098AE899E0909387098093860911C02E
S1131C1080916E0981110DC0E091E409F091E5090C
S1131C209689F3018689891720F07092E5096092FC
S1131C30E40980916A098F5F80936A09F30181A3A3
S1131C40868990916F09981710F480936F0990E03A
S1131C509C01220F331F220F331F220F331F820FC9
S1131C60931FBE018456964F0E943D060F900FBEEF
S1131C7080916E09882369F0E091E409F091E50907
S1131C809689F3018689981730F40E945B0781E0F6
S1131C9005C081E003C081E001C08FEFDF91CF91E7
S1131CA01F910F91FF90EF90DF90CF90BF90AF9076
S1131CB09F908F907F906F905F904F900895EF92D8
S1131CC0FF920F930F2EF6E6EF2EF9E0FF2EF02D84
S1131CD000E020E030E045E550E06EE471E08BEE9A
S1131CE09FE00E94460D8130A1F40E947D12813054
S1131CF081F4F8948FEF9FEF9093690980936809BA
S1131D0081E080936E0910927109109270090E940B
S1131D1021070F91FF90EF900895809165098F5FDF
S1131D208093650908950FB6F8940F928091700915
S1131D30909171090F900FBE0895CF92DF92EF92A8
S1131D40FF920F931F93CF93DF93809165098111C5
S1131D5099C0E0907009F09071098FEFE81AF80AC1
S1131D60F0927109E0927009E114F104B9F48091E0
S1131D7088099091890920918609309187093093C7
S1131D808909209388099093870980938609809113
S1131D906B098F5F80936B090E94E30C8091680943
S1131DA090916909E816F90610F4D12C53C0D12C8E
S1131DB0CC24C394E0918809F09189099081911110
S1131DC007C08FEF9FEF909369098093680942C021
S1131DD0E0918809F09189090580F681E02DC6819A
S1131DE0D7812A813B81E216F30628F430936909EE
S1131DF0209368092FC08E010E5F1F4FC8010E94F7
S1131E008F068C899D89892B21F0CE010C960E9426
S1131E108F062E8980916F09821710F420936F0921
S1131E2030E0C901880F991F880F991F880F991FE7
S1131E30820F931FB8018456964F0E943D06E0918D
S1131E40E409F091E5099E898689981708F4B2CFD0
S1131E50DC2CB0CFE091E409F091E509868990E0AB
S1131E60FC01EE0FFF1FEE0FFF1FEE0FFF1F8E0F83
S1131E709F1FFC01E456F64F8081823048F0DD2438
S1131E80D39406C080916D098F5F80936D09D12C26
S1131E9080916C09882311F0DD24D3948D2DDF917A
S1131EA0CF911F910F91FF90EF90DF90CF90089505
S1131EB0DF92EF92FF920F931F93CF93DF930FB6AE
S1131EC0F8940F92809165098150809365098091FF
S1131ED0650981115FC080917209811133C05DC0B1
S1131EE0D7011596ED91FC911697C681D781CE0145
S1131EF00C960E948F068E010E5F1F4FC8010E9430
S1131F008F062E8980916F09821710F420936F0930
S1131F1030E0C901880F991F880F991F880F991FF6
S1131F20820F931FB8018456964F0E943D06E0919C
S1131F30E409F091E5099E898689981768F0D092A2
S1131F406C090AC0C0E0D0E00F2EFDE7EF2EF9E0E7
S1131F50FF2EF02DDD24D394F70180818111C0CFB1
S1131F60CD2B11F00E94E30CC0916D09CC2351F0EC
S1131F70D1E00E949D0E8111D0936C09C150C9F724
S1131F8010926D0980916C09882331F00E945B07DF
S1131F9081E003C080E001C080E00F900FBEDF91BC
S1131FA0CF911F910F91FF90EF90DF900895CF9301
S1131FB0DF93EC01892B51F00E948D0E60E0CE017D
S1131FC00E94020D0E94580F811102C00E945B07FB
S1131FD0DF91CF91089504E719E00F2EFCE9EF2E6D
S1131FE0F9E0FF2EF02D29C00E948D0ED801CC916E
S1131FF00E94580FCC2309F10FB6F8940F92D80120
S11320001596ED91FC911697C681D781CE01029663
S11320100E948F0680917209815080937209809189
S113202073098150809373090F900FBE8F89988D27
S11320300E944808CE010E944808809173098111CA
S1132040D3CFF7018081823010F00E945B070E9499
S1132050EF04F3CF009721F48091E4099091E5090E
S11320600FB6F8940F92FC0176A365A30F900FBEF0
S1132070089580916509882321F081E080936C099B
S1132080089510926C09E091E409F091E50985A1A5
S11320900E94E40520916F09822F90E0FC01EE0F6D
S11320A0FF1FEE0FFF1FEE0FFF1FE80FF91FE4568F
S11320B0F64F3081311111C02150822F90E0FC0184
S11320C0EE0FFF1FEE0FFF1FEE0FFF1FE80FF91FAC
S11320D0E456F64F3081332379F3AC01440F551F96
S11320E0440F551F440F551F480F591FDA01A456BA
S11320F0B64F1196ED91FC9112970280F381E02D79
S11321001296FC93EE9311974156564FE417F50738
S113211029F442815381FD0152834183FC01EE0F76
S1132120FF1FEE0FFF1FEE0FFF1F8E0F9F1FFC01FF
S1132130E456F64F0180F281E02D868197819093D9
S1132140E5098093E40920936F09E091E409F09193
S1132150E50985A10E94D9050895CF93DF93EB018A
S11321602091E4093091E509B901645F7F4F0E9431
S11321705E0661E0CE010E94020DDF91CF910895C9
S11321800F931F93CF938B01C42F2091E4093091B7
S1132190E509B901645F7F4F0E943D06CC2311F02D
S11321A00FEF1FEF6C2FC8010E94020DCF911F91FA
S11321B00F9108950F931F93CF93DF93DC0115962E
S11321C0ED91FC911697C681D7818E01045F1F4F54
S11321D0C8010E948F068091650981111CC00A50B4
S11321E01109C8010E948F062E8980916F098217F8
S11321F010F420936F0930E0C901880F991F880FEC
S1132200991F880F991F820F931FB8018456964F08
S11322100E943D0605C0B8018DE799E00E943D0685
S1132220E091E409F091E5099E898689891720F4F3
S113223081E080936C0901C080E0DF91CF911F9110
S11322400F91089520916B09FC012083209170095E
S113225030917109328321830895CF93DF93FC0178
S11322600FB6F8940F922091700930917109809102
S11322706B099081981729F0818192812817390779
S1132280B0F4A181B281EB0148815981C9018A1B53
S11322909B0B8417950768F4CF01A21BB30B4A0F5D
S11322A05B1F598348830E94221180E003C081E0B0
S11322B001C081E00F900FBEDF91CF91089581E0BE
S11322C080936C09089580916E09882331F0809180
S11322D06509882321F080E0089581E0089582E073
S11322E008950F931F93CF93DF93FC01892B09F477
S11322F055C02689A091E409B091E50956968C91C0
S1132300281708F04BC084859585992364F0A09123
S1132310E409B091E50956963C9188E090E0831B6E
S113232091099587848730E0C901880F991F880F28
S1132330991F880F991F280F391F2456364F8285FD
S113234093858217930719F58F01EF012296CE0129
S11323500E948F06E091E409F091E5092689F801CD
S1132360268B80916F09821710F420936F0930E057
S1132370C901880F991F880F991F880F991F820F11
S1132380931FBE018456964F0E943D0607C0A0913C
S1132390E409B091E50956968C91868BDF91CF9133
S11323A01F910F9108950F931F93CF93DF93FC0117
S11323B0892B79F184A1815084A3268993A12917BB
S11323C051F181112AC0EF018F010E5F1F4FC80127
S11323D00E948F062BA12E8B48E050E0421B51092E
S11323E05D874C8780916F09821710F420936F09E1
S11323F030E0C901880F991F880F991F880F991F12
S1132400820F931FB8018456964F0E943D0681E0C7
S113241005C080E003C080E001C080E0DF91CF917F
S11324201F910F9108958091E4099091E509892BFA
S113243039F0E091E409F091E50984A18F5F84A368
S11324408091E4099091E5090895FC017383628306
S1132450918780874617570790F0421B530B84855A
S1132460958548175907E0F4BF016E5F7F4F80914F
S1132470EC099091ED090E945E0680E008954217F0
S1132480530718F46217730768F4BF016E5F7F4F38
S11324908091EE099091EF090E945E0680E0089514
S11324A081E0089581E008950FB6F8940F92809129
S11324B0EA099091EB09892BE9F489EF99E00E94EC
S11324C02B0680EF99E00E942B0689EF99E0909308
S11324D0EF098093EE0980EF99E09093ED098093E2
S11324E0EC0940E065E082E00E94D40A9093EB0995
S11324F08093EA090F900FBE0895EF92FF920F9315
S11325000E9454128091EA099091EB09892B91F071
S11325100F2EF8EEEF2EF9E0FF2EF02D07E020E06D
S113252030E042E350E063E571E087E593E10E9427
S1132530460D01C080E00F91FF90EF9008950F9336
S11325401F93CF93DF9300D000D01F92CDB7DEB797
S1132550E091EA09F091EB09309771F1D9016983AF
S11325605B834A839D838C836630ECF40E94631101
S1132570823061F420E0A801BE016F5F7F4F80913B
S1132580EA099091EB090E94050B17C020E040E096
S113259050E0BE016F5F7F4F8091EA099091EB0993
S11325A00E94050B0AC020E0AD01BE016F5F7F4FA2
S11325B0CF010E94C00B01C080E00F900F900F90DC
S11325C00F900F90DF91CF911F910F910895AF92CB
S11325D0BF92CF92DF92EF92FF920F931F93CF930C
S11325E0DF936C010E94930E7C018091E609909127
S11325F0E709E816F90608F048C030C00580F681FE
S1132600E02DA080B180C681D7818E010E5F1F4F5F
S1132610C8010E948F06E989FA89CE0109958E8541
S11326208130E1F48C859D858A0D9B1DA816B90621
S113263060F49B838A83D987C887B8018091EE09A7
S11326409091EF090E945E0609C000E010E020E0CE
S113265030E0A50160E0CE010E949F12E091EE09F6
S1132660F091EF0990819111C9CF8091EC0990917B
S1132670ED099093EF098093EE09F093ED09E0934F
S1132680EC0981E0F601808302C0F6011082F09229
S1132690E709E092E609C701DF91CF911F910F91FD
S11326A0FF90EF90DF90CF90BF90AF900895CF93BD
S11326B0DF9300D000D000D0CDB7DEB7CE010196B5
S11326C04C0144244394E12CF12CD12C582EC92CD8
S11326D0E091EE09F091EF098081882379F005807B
S11326E0F681E02DA080B1800E948D0EC4010E946D
S11326F0E7128C018981882359F05DC00E948D0EF8
S1132700C4010E94E7128C0189818823C1F153C05E
S11327100A151B0508F43EC00E94580FE091EE090B
S1132720F091EF090580F681E02D66807780C30182
S113273002960E948F06D3011E968C911E978130BB
S1132740B1F41C966D917C911D976A0D7B1D9501CA
S1132750A801C3010E942512882349F00E2D1F2DC4
S11327602E2D3F2DA5016D2DC3010E949F12D30173
S11327705196ED91FC915297C30109957CC0E0916B
S1132780EC09F091ED09442D808181114D2DAE2C81
S1132790BF2C01C04D2DB501601B710B8091EA095E
S11327A09091EB090E94C60C0E94580F811163C0DE
S11327B00E945B0760C00E94580F5DC08981882316
S11327C00CF459C0AC80BD80F50182859385892BBA
S11327D021F0C50102960E948F06CE0106960E9442
S11327E0E712E9810E2FEE0F110B220B330B0A3087
S11327F0110508F040C0F801E25CFF4F0C946B1423
S11328002A813B81D5011C966D917C911D97620FA5
S1132810731FAC01C5010E942512882361F1D50103
S11328205196ED91FC915297C5010995F501868564
S1132830813009F5448555858A819B81480F591F4C
S11328400E2D1F2D2E2D3F2D6D2DC5010E949F1283
S113285012C06A817B81D5011D967C936E931C976F
S1132860680F791F9C01AC01C5010E94251203C0A9
S1132870C5010E9448082D2D4E2D5F2D652D7C2D00
S11328808091EA099091EB090E94FA0B811196CF8D
S11328901FCFA1E21A2EAA1BBB1BFD010DC0AA1F4C
S11328A0BB1FEE1FFF1FA217B307E407F50720F0B5
S11328B0A21BB30BE40BF50B661F771F881F991F30
S11328C01A9469F760957095809590959B01AC0179
S11328D0BD01CF010895EE0FFF1F0590F491E02D87
S11328E00994CF93DF938230910510F482E090E055
S11328F0E091040AF091050A20E030E0C0E0D0E065
S1132900309711F14081518148175907C0F0481799
S1132910590761F482819381209719F09B838A83FC
S11329202BC09093050A8093040A26C02115310513
S113293019F04217530718F49A01BE01DF01EF01A1
S11329400280F381E02DDCCF2115310509F1281B2C
S1132950390B2430310590F412968D919C91139784
S11329606115710521F0FB019383828304C0909368
S1132970050A8093040AFD01329644C0FD01E20F6A
S1132980F31F81939193225031092D933C933AC0C4
S11329902091020A3091030A232B41F42091020171
S11329A0309103013093030A2093020A209100011D
S11329B0309101012115310541F42DB73EB7409105
S11329C0040150910501241B350BE091020AF0919A
S11329D0030AE217F307A0F42E1B3F0B281739074D
S11329E078F0AC014E5F5F4F2417350748F04E0F67
S11329F05F1F5093030A4093020A8193919302C08C
S1132A00E0E0F0E0CF01DF91CF9108950F931F93A1
S1132A10CF93DF93009709F48CC0FC0132971382A3
S1132A2012820091040A1091050A0115110581F41E
S1132A3020813181820F931F2091020A3091030A71
S1132A402817390779F5F093030AE093020A71C055
S1132A50D80140E050E0AE17BF0750F412962D9114
S1132A603C911397AD012115310509F1D901F3CF3B
S1132A709D01DA013383228360817181860F971F60
S1132A808217930769F4EC0128813981260F371FD7
S1132A902E5F3F4F318320838A819B81938382837E
S1132AA0452B29F4F093050AE093040A42C01396D7
S1132AB0FC93EE931297ED01499159919E01240FD5
S1132AC0351FE217F30771F480819181840F951FFC
S1132AD0029611969C938E938281938113969C9374
S1132AE08E931297E0E0F0E0D80112968D919C91BC
S1132AF01397009719F0F8018C01F6CF8D919C91F2
S1132B0098012E5F3F4F820F931F2091020A30914C
S1132B10030A2817390769F4309729F41092050A33
S1132B201092040A02C0138212821093030A0093C3
S1132B30020ADF91CF911F910F9108958F929F9276
S1132B40AF92BF92CF92DF92EF92FF92CF93DF9337
S1132B50EC01688179818A819B8161157105810508
S1132B60910521F464E279ED8BE597E02DE133EFF3
S1132B7041E050E00E940A1649015A019B01AC0150
S1132B80A7EAB1E40E9429166B017C01ACEEB4EF14
S1132B90A50194010E943716DC01CB018C0D9D1D0B
S1132BA0AE1DBF1DB7FF03C00197A109B0488883BC
S1132BB09983AA83BB839F77DF91CF91FF90EF9096
S1132BC0DF90CF90BF90AF909F908F9008950E9418
S1132BD09E15089586E091E00E949E150895A0E058
S1132BE0B0E08093060190930701A0930801B0938D
S1132BF009010895FB01DC0102C001900D924150CE
S1132C005040D8F70895DC0101C06D934150504005
S1132C10E0F70895052E97FB1EF400940E942116F8
S1132C2057FD07D00E94491407FC03D04EF40C94BE
S1132C30211650954095309521953F4F4F4F5F4F4A
S1132C40089590958095709561957F4F8F4F9F4F14
S1132C5008950E943C16A59F900DB49F900DA49FCB
S1132C60800D911D11240895B7FF0C9429160E941C
S1132C702916821B930B0895A29FB001B39FC00134
S1132C80A39F700D811D1124911DB29F700D811D94
S10D2C901124911D0895F894FFCF5C
S1132C9A0000060A2000010000000100C600CE0060
S1132CAA446973706C61792075706461746572002B
S1132CBA47616D65206C6F676963004F6273746165
S1132CCA636C6573004A6F79737469636B2073610B
S1132CDA6D706C6572005374617274757000494446
S10F2CEA4C4500546D72205376630000CA
S9030000FC
