S01600004672656552544F532D54657374322E7372656345
S11300000C9448000C9465000C9465000C946500F5
S11300100C9465000C9465000C9465000C946500C8
S11300200C9465000C9465000C9465000C946500B8
S11300300C9465000C9433080C9465000C946500D2
S11300400C9489050C9465000C9465000C9465006F
S11300500C94E6080C9424090C9465000C94650037
S11300600C9465000C9465000C9465000C94650078
S11300700C946C090C94AA090C94650007140714D9
S11300800714421430143F14071407144214301494
S113009011241FBECFEFD8E0DEBFCDBF11E0A0E03A
S11300A0B1E0E8EBFCE202C005900D92AC35B1077B
S11300B0D9F728E0ACE5B1E001C01D92A83DB20734
S11300C0E1F70E941C050C945A160C94000062E09F
S11300D070E080E090E00E9449100F2EF5E68F2E2C
S11300E0F1E09F2EF02D22242394312C0F2EF1E6E3
S11300F04F2EF1E05F2EF02D0F2EFDE0CF2EF3E01A
S1130100DF2EF02D0F2EF9E66F2EF1E07F2EF02D6D
S113011080915F0190916001892B09F0FAC0D401AC
S11301208D919C9111979C01220F331F880F991F69
S1130130880F991F880F991F820F931F1296ED91B4
S1130140FC9113978E0F9F1FFC01E058FD4F808197
S11301508111DBC0F201808191819C01220F331F48
S1130160880F991F880F991F880F991F820F931F5B
S11301700280F381E02D8E0F9F1FFC01E058FD4F9C
S113018080818111C2C020E04FEF5FEF60E070E03A
S113019080912F03909130030E941B0C882309F453
S11301A0B8C0C1E8D2E06BE671E0AE010EC0819147
S11301B090E08D939D93E217F307C9F7465F5F4F75
S11301C06C5E7F4F4C155D0531F09A01275F3F4F00
S11301D0DB01FA01ECCF0F2EFDE7EF2EF1E0FF2E4D
S11301E0F02D01E010E0A12CB12C0E94F9158170D2
S11301F09078992324F401978E6F9F6F0196D30111
S11302008D939C93B2E0AB16B10424F00D3011052C
S1130210D9F484C00E94F91581709078992324F44C
S113022001978E6F9F6F0196F701918380830197E9
S113023019F4FFEFAF1ABF0AC80183709927892BFD
S113024031F4A12CB12C03C0D7011D921C920F5F75
S11302501F4FB4E1EB0EF11C0E30110531F629E607
S113026031E00CC0408132964D938A179B07D1F739
S11302702C5E3F4F2A96CC15DD0529F0CE01099658
S1130280DE01F901EFCFF40180819181FC01EE0FD1
S1130290FF1F880F991F880F991F880F991FE80F58
S11302A0F91FD40112968D919C911397E80FF91FB1
S11302B0EE0FFF1FE759FE4F31822082F201808149
S11302C09181FC01EE0FFF1F880F991F880F991F62
S11302D0880F991FE80FF91FD20112968D919C91F6
S11302E01397E80FF91FEE0FFF1FE759FE4F3182F6
S11302F0208220E040E050E060E070E080912F0335
S1130300909130030E94260B04C030926001209229
S11303105F0188EE93E00E94F60FFACE0E94F91571
S113032081709078992324F401978E6F9F6F0196C2
S1130330F70191838083019709F089CF7ACFCF9316
S1130340DF9300D000D000D0CDB7DEB765E070E019
S113035080E090E00E944910EE24E394F12C05E63D
S113036011E00F2EF3E0CF2ED12CF02D6894AA24A7
S1130370A1F8B12C80915F0190916001892B09F063
S11303804AC0F801808191819C838B83828193810F
S11303909E838D8330990EC01A82198220E04FEF1C
S11303A05FEFBE016F5F7F4F8091290390912A0315
S11303B00E94260B31990EC0BA82A98220E04FEF29
S11303C05FEFBE016F5F7F4F8091290390912A03F5
S11303D00E94260B36990EC0FA82E98220E04FEF84
S11303E05FEFBE016F5F7F4F8091290390912A03D5
S11303F00E94260B379915C0DA82C98220E04FEF9C
S11304005FEFBE016F5F7F4F8091290390912A03B4
S11304100E94260B06C04B9904C0F0925E01E09244
S11304205D0184E690E00E94F60FA4CFEF92FF9264
S11304300F931F93CF93DF93CDE0D3E049E651E0D0
S113044009E213E061E070E0DE0119821882FA012A
S113045080E090E0219131912130310579F4ED90E3
S1130460FC9011979B01082E02C0220F331F0A949F
S1130470E2F72E293F2911963C932E9301968A3058
S1130480910541F722964C5E5F4FC017D107E1F604
S1130490DF91CF911F910F91FF90EF9008958130DC
S11304A0910509F462C040F08230910509F4BCC0A2
S11304B0039709F416C10895DB0112962D913C911E
S11304C01397C90101968A30910508F065C14D91D1
S11304D05C91DA01AA0FBB1FFA01EE0FFF1FEE0FAA
S11304E0FF1FEE0FFF1FEA0FFB1FE80FF91FEE0FB0
S11304F0FF1FE759FE4F80819181892B09F04CC180
S1130500FD01440F551F440F551F440F551FE40FA1
S1130510F51FE20FF31FEE0FFF1FE759FE4F118285
S11305201082FB0120813181828193810196938322
S11305308283F901EE0FFF1F220F331F220F331F97
S1130540220F331FE20FF31FE80FF91FEE0FFF1FF7
S1130550E759FE4F81E090E0918380830E94160268
S113056088EC90E00E94F60F0895DB0112962D911D
S11305703C9113972115310509F40EC14D915C91FD
S11305801197FA01EE0FFF1FCA01880F991F880FF8
S1130590991F880F991FE80FF91FC9010197E80FE8
S11305A0F91FEE0FFF1FE759FE4F80819181892BC0
S11305B009F0F2C0FA01EE0FFF1F440F551F440F5C
S11305C0551F440F551FE40FF51FE20FF31FEE0FE5
S11305D0FF1FE759FE4F1182108212968D919C9154
S11305E01397019713969C938E9312972D913C9198
S11305F0F901EE0FFF1F220F331F220F331F220FAB
S1130600331FE20FF31FE80FF91FEE0FFF1FE75927
S1130610FE4F81E090E0918380830E94160288EC73
S113062090E00E94F60F0895FB0120813181C901F9
S113063001968E30910508F0AFC042815381FC01D0
S1130640EE0FFF1F880F991F880F991F880F991F9E
S1130650E80FF91FE40FF51FEE0FFF1FE759FE4FD8
S113066080819181892B09F097C0C901880F991F56
S1130670220F331F220F331F220F331F280F391F5E
S1130680F901E40FF51FEE0FFF1FE759FE4F11822A
S11306901082DB018D919C911197019611969C9388
S11306A08E931296ED91FC9113979C01220F331FA8
S11306B0880F991F880F991F880F991F820F931F06
S11306C0E80FF91FEE0FFF1FE759FE4F81E090E09E
S11306D0918380830E94160288EC90E00E94F60FBA
S11306E00895FB01208131812115310509F454C09D
S11306F042815381C9010197FC01EE0FFF1F880F4E
S1130700991F880F991F880F991FE80FF91FE40F8D
S1130710F51FEE0FFF1FE759FE4F80819181892B52
S1130720D9F5C901880F991F220F331F220F331FD8
S1130730220F331F280F391FF901E40FF51FEE0FA5
S1130740FF1FE759FE4F11821082DB018D919C91AE
S11307501197019711969C938E931296ED91FC91AB
S113076013979C01220F331F880F991F880F991F1D
S1130770880F991F820F931FE80FF91FEE0FFF1FB9
S1130780E759FE4F81E090E0918380830E94160236
S113079088EC90E00E94F60F089563E070E080E03A
S11307A090E00E9449100E94160289E290E00E94A3
S11307B0F60FF9CF29E631E0E1E8F2E04DE053E04D
S11307C00CC01D921D921192E817F907D1F72C5E07
S11307D03F4FFC014817590721F0CF010A96D90170
S11307E0F0CFE5E6F1E085E090E09183808389E055
S11307F090E093838283E1E6F1E09183808387E054
S113080090E09383828381E090E09093E001809371
S1130810DF0190932C0280932B020895CF93DF93F2
S113082000D000D000D0CDB7DEB764E070E080E047
S113083090E00E94491001E010E00F2EF5E6EF2E43
S1130840F1E0FF2EF02D0F2EF1E6CF2EF1E0DF2E9A
S1130850F02D80915F0190916001009709F053C0E1
S113086020E04FEF5FEFBE016F5F7F4F8091290360
S113087090912A030E941B0C882309F43FC020E0B6
S11308804FEF5FEF60E070E080912F0390913003B1
S11308900E941B0C882391F18B819C81F70120819C
S11308A031818217930769F44D815E8122813381FE
S11308B04217530731F4B70189819A810E944F028C
S11308C012C0F601208131818217930761F42D81D2
S11308D03E81828193812817390729F4B6018981E1
S11308E09A810E944F0220E040E050E060E070E016
S11308F080912F03909130030E94260B82E390E0B5
S11309000E94F60FA6CF40915D0150915E012091A7
S11309100A0130910B01240F351F820F931F029798
S113092009F097CF1092600110925F0110925E015E
S113093010925D0110930B0100930A010E94DA03E7
S113094088CF61E070E080E090E00E9449100E944E
S1130950DA0381E00E94C70B9093300380932F0346
S1130960E12CF12C02E020E030E045E550E060E1CC
S113097071E08DEC93E00E94670D07E020E030E029
S113098045E550E060E271E08EE094E00E94670D7E
S113099006E020E030E045E550E06BE271E087E6F8
S11309A090E00E94670D03E020E030E045E550E070
S11309B065E371E08FE991E00E94670DFFCF5A9AD9
S11309C008955D9A5D985C9A5C985A98089580950C
S11309D082B985B1836085B985B193709095892377
S11309E085B90895CF93C0915C01C1110EC00E94D6
S11309F0DF0480910D0390910E030E94E7040E948E
S1130A00E10481E080935C0114C0EC2FF0E0EE0F70
S1130A10FF1FE35FFC4F808191810E94E7040E94E5
S1130A20E104CF5FCE3018F4C0935C0102C0109291
S1130A305C01CF91089508950E94B20540E061E001
S1130A408EE10E94F50A909332038093310340E0D3
S1130A5061E085E00E94F50A90932E0380932D03B4
S1130A6040E061E085E00E94F50A90932C038093B6
S1130A702B0340E066E08AE00E94F50A90932A0383
S1130A80809329035E98E12CF12C00E020E030E013
S1130A9045E550E066E471E081EA94E00E94670D68
S1130AA082EF94E00E94770578940E947E0EFFCF37
S1130AB0CF93DF9300D0CDB7DEB76A8380917B03F9
S1130AC090917C03009771F0198220E0AE014F5F92
S1130AD05F4FBE016E5F7F4F0E94E10B89818111E0
S1130AE00E947E070F900F90DF91CF91089590930D
S1130AF07A03809379038AE087BD84B5826084BDDC
S1130B00EEE6F0E080818260808385B5856085BDF6
S1130B1008951F920F920FB60F9211242F933F93B3
S1130B204F935F936F937F938F939F93AF93BF93F1
S1130B30EF93FF93E0917903F0917A03309709F0F2
S1130B400995FF91EF91BF91AF919F918F917F9103
S1130B506F915F914F913F912F910F900FBE0F9026
S1130B601F9018958F929F92AF92BF92CF92DF926F
S1130B70EF920F9386E593E00E940B0683E393E0E4
S1130B800E940B060F2EF8E58F2EF5E09F2EF02D18
S1130B900F2EF3E3AF2EF3E0BF2EF02D0F2EF6E56C
S1130BA0CF2EF3E0DF2EF02DE12C00E023E040E037
S1130BB052EC61E070E080E00E946C0890937E0348
S1130BC080937D0388B1836C88B95B9A8AB184670A
S1130BD08AB95E9A81B18FEF81B984B1836084B997
S1130BE084B18C6384B90F91EF90DF90CF90BF9064
S1130BF0AF909F908F90089595B1937C95B925B14E
S1130C0034E0839FC0011124822B85B9089585B1F6
S1130C10837C85B90895FC0110A211A212A2089543
S1130C20FC0182A18823D9F081A1DF01A80FB11DA5
S1130C308C91DB018C9321A130E02F5F3F4F2F710A
S1130C403078332334F421503109206E3F6F2F5F05
S1130C503F4F21A382A1815082A380E0089581E0C7
S1130C600895FC0142A14032B8F420A130E0E20F23
S1130C70F31F60832F5F3F4F2F713078332334F499
S1130C8021503109206E3F6F2F5F3F4FFC0120A39D
S1130C904F5F42A380E0089582E00895FC0103962B
S1130CA0928381832FEF3FEF34832383968385835D
S1130CB09087878310820895FC0111861086089519
S1130CC0CF93DF939C01FB01DC011196CD91DC9164
S1130CD01297D383C2838C819D81958384838C8175
S1130CE09D81DC0113967C936E9312977D836C83B4
S1130CF031872087F90180818F5F8083DF91CF91D5
S1130D000895CF93DF93EB01488159814F3F2FEF33
S1130D10520721F4FC01A781B0850DC0DC011396B4
S1130D2001C0DF011296ED91FC911397208131816E
S1130D3042175307B0F71296ED91FC911397FB837A
S1130D40EA83D583C483BD83AC831396DC93CE93AB
S1130D50129799878887FC0120812F5F2083DF9178
S1130D60CF910895CF93DF93FC01A085B185C28113
S1130D70D381848195819D838C83C481D581828133
S1130D8093819B838A8311968D919C911297E81786
S1130D90F90731F48481958112969C938E9311976F
S1130DA0118610868C9181508C93DF91CF91089598
S1130DB031E1FC013083319722E220833197A3E3B0
S1130DC0A083319760833197708331971082319774
S1130DD060E8608331971082319762E060833197D5
S1130DE063E06083319764E06083319765E06083FA
S1130DF0319766E06083319767E06083319768E0FC
S1130E006083319769E06083319760E16083319753
S1130E103083319732E13083319733E13083319736
S1130E2034E13083319735E13083319736E13083D3
S1130E30319737E13083319738E13083319739E1A5
S1130E403083319730E23083319731E23083319708
S1130E502083319723E22083319740833197508355
S1130E60319726E22083319727E22083319728E2C5
S1130E702083319729E22083319720E3208331971F
S1130E8021E32083869708951092890085EE80934C
S1130E9088008BE080938100EFE6F0E0808182603F
S1130EA08083A091B608B091B708CD91CDBFDD91F4
S1130EB0DEBFFF91EF91DF91CF91BF91AF919F91F1
S1130EC08F917F916F915F914F913F912F911F91DE
S1130ED00F91FF90EF90DF90CF90BF90AF909F90D5
S1130EE08F907F906F905F904F903F902F901F90C6
S1130EF00F900FBE0F90089581E008950F920FB6E2
S1130F00F8940F921F9211242F923F924F925F9266
S1130F106F927F928F929F92AF92BF92CF92DF9205
S1130F20EF92FF920F931F932F933F934F935F93EF
S1130F306F937F938F939F93AF93BF93CF93DF93DD
S1130F40EF93FF93A091B608B091B7080DB60D9238
S1130F500EB60D920E945810A091B608B091B70831
S1130F60CD91CDBFDD91DEBFFF91EF91DF91CF91A8
S1130F70BF91AF919F918F917F916F915F914F91AD
S1130F803F912F911F910F91FF90EF90DF90CF90A1
S1130F90BF90AF909F908F907F906F905F904F9095
S1130FA03F902F901F900F900FBE0F9008950F92B7
S1130FB00FB6F8940F921F9211242F923F924F92E2
S1130FC05F926F927F928F929F92AF92BF92CF92D5
S1130FD0DF92EF92FF920F931F932F933F934F93C0
S1130FE05F936F937F938F939F93AF93BF93CF93AD
S1130FF0DF93EF93FF93A091B608B091B7080DB6B5
S11310000D920EB60D920E94BC0E81110E945810D2
S1131010A091B608B091B708CD91CDBFDD91DEBFE8
S1131020FF91EF91DF91CF91BF91AF919F918F91FC
S11310307F916F915F914F913F912F911F910F91EC
S1131040FF90EF90DF90CF90BF90AF909F908F90E4
S11310507F906F905F904F903F902F901F900F90D4
S11310600FBE0F9008950E94D7071895CF93DF9372
S1131070EC010E94AC0E80917F0390918003892B38
S113108031F484E893E09093800380937F0320916C
S1131090810330918203C9018C0F9D1F8F3A44E074
S11310A0940770F42817390770F4C0917F03D09126
S11310B08003C20FD31F909382038093810305C0E2
S11310C0C0E0D0E002C0C0E0D0E00E94770FCE01C3
S11310D0DF91CF91089508954F925F926F927F921E
S11310E08F929F92AF92BF92CF92DF92FF920F9313
S11310F01F93CF93DF93CDB7DEB7F82E2A013B01C0
S113110088E090E00E948C148C018F2D90E0880F71
S1131110991FFC01ED5CF74F11830083FC01E45F30
S1131120FE4F80819181D80111969C938E931396E2
S1131130BC92AE9212971596DC92CE9214971796A3
S11311409C928E921697FFB6F894ED91FC911197AC
S11311503697808182608083CD90DC90D301C20178
S1131160880F991FAA1FBB1F880F991FAA1FBB1F97
S11311709C01AD01220F331F441F551F60E070E036
S113118081EE90E00E9464142150F601329720838E
S1131190D801ED91FC911197359788E98083ED9101
S11311A0FC91349786E08083FFBEC801DF91CF9124
S11311B01F910F91FF90DF90CF90BF90AF909F90C1
S11311C08F907F906F905F904F9008951F920F9231
S11311D00FB60F9211242F933F934F935F936F9306
S11311E07F938F939F93AF93BF93CF93EF93FF938B
S11311F0E0913308F09134083097A1F0C091C60013
S11312006C2F848195810E943106809133089091DE
S11312103408DC011696ED91FC911797309711F084
S11312206C2F0995FF91EF91CF91BF91AF919F9151
S11312308F917F916F915F914F913F912F910F907B
S11312400FBE0F901F9018951F920F920FB60F921A
S113125011242F933F934F935F936F937F938F93B7
S11312609F93AF93BF93EF93FF93CF93DF931F921B
S1131270CDB7DEB7E0913308F0913408309799F098
S1131280BE016F5F7F4F828193810E94100681119E
S113129004C089818093C6000BC0E1ECF0E080813A
S11312A08F7D808305C0E1ECF0E080818F7D8083B9
S11312B00F90DF91CF91FF91EF91BF91AF919F91EB
S11312C08F917F916F915F914F913F912F910F90EB
S11312D00FBE0F901F9018951F920F920FB60F928A
S11312E011242F933F934F935F936F937F938F9327
S11312F09F93AF93BF93CF93EF93FF93E091350800
S1131300F09136083097A1F0C091CE006C2F848103
S113131095810E9431068091350890913608DC0150
S11313201696ED91FC911797309711F06C2F099553
S1131330FF91EF91CF91BF91AF919F918F917F9149
S11313406F915F914F913F912F910F900FBE0F902E
S11313501F9018951F920F920FB60F9211242F937E
S11313603F934F935F936F937F938F939F93AF9329
S1131370BF93EF93FF93CF93DF931F92CDB7DEB765
S1131380E0913508F0913608309799F0BE016F5F0F
S11313907F4F828193810E941006811104C089814C
S11313A08093CE000BC0E9ECF0E080818F7D8083D8
S11313B005C0E9ECF0E080818F7D80830F90DF91A0
S11313C0CF91FF91EF91BF91AF919F918F917F91B9
S11313D06F915F914F913F912F910F900FBE0F909E
S11313E01F9018950F931F93CF93DF93EC01042F55
S11313F01A8D4C8D41110CC088819981892B09F07B
S113140042C08A819B810E94F0111B821A8242C0D1
S1131410011117C050E08C819D810E9409162C8D0A
S11314208C819D81820F911D9D838C832A813B81B8
S11314308217930750F1888199819D838C8380E082
S113144029C050E08E819F810E9409168C8D90E006
S11314509195819591092E813F81280F391F3F83F2
S11314602E83488159812417350730F42A813B8122
S1131470820F931F9F838E83023049F4112349F016
S1131480115080E007C080E005C080E003C080E028
S113149001C080E01F5F1A8FDF91CF911F910F91E0
S11314A00895FC01448D4423A9F050E0268137813E
S11314B0240F351F378326838281938128173907A8
S11314C020F08081918197838683CB016681778127
S11314D00E9409160895EF92FF920F931F93CF93E2
S11314E08C010FB6F8940F92FC01C68D1C16ACF457
S11314F08189811106C011C0F8018189811105C05B
S11315000CC07801F1E1EF0EF11CC7010E94F71045
S113151081110E947C11C15079F78FEFF801868FF9
S11315200F900FBE0FB6F8940F92C58D1C16ACF435
S11315308085811106C011C0F8018085811105C024
S11315400CC07801F8E0EF0EF11CC7010E94F710FF
S113155081110E947C11C15079F78FEFF801858FBA
S11315600F900FBECF911F910F91FF90EF900895B0
S1131570CF93DF93EC010FB6F8940F924881598111
S11315802C8D30E07B8D729FC001739F900D1124D0
S1131590FA01E80FF91FFB83EA831A8E5D834C83FB
S11315A0821B930B840F951F9F838E838FEF8D8FE8
S11315B08E8F61110CC08885882389F0CE0108962E
S11315C00E94F710882359F00E947E0708C0CE01BC
S11315D008960E944E06CE0141960E944E060F9038
S11315E00FBE81E0DF91CF910895FF920F931F9377
S11315F0CF93DF93082F162FF42E6623C9F0869F0E
S1131600C001112481960E943608EC01009749F428
S113161016C00B8F1C8F61E0CE010E94B80AF8A29D
S11316200EC0819699838883F4CFD983C883F1CF80
S113163081E290E00E943608EC01892BB1F7CE01DB
S1131640DF91CF911F910F91FF9008959F92AF92D8
S1131650BF92CF92DF92EF92FF920F931F93CF939B
S1131660DF9300D000D01F92CDB7DEB78C016B01A1
S11316705D834C83A22EB12C992493947C0188E041
S1131680E80EF11C0FB6F8940F92F801928D838D39
S1131690981718F0F2E0AF1219C04A2DB601C8012C
S11316A00E94F209F8019189992349F0C8014196F1
S11316B00E94F710882331F00E947E0703C0811135
S11316C00E947E070F900FBE81E050C08C819D81E7
S11316D0892B21F40F900FBE80E048C0B11005C0E3
S11316E0CE0101960E943F11B92C0F900FBE0E94AB
S11316F0AC0E0FB6F8940F92F801858D8F3F09F464
S1131700158EF801868D8F3F09F4168E0F900FBE4B
S1131710BE016C5F7F4FCE0101960E944A11811178
S11317201FC00FB6F8940F92F801928D0F900FBE60
S1131730838D98130FC06C817D81C7010E94CC10EA
S1131740C8010E946B0A0E94770F81119BCF0E94EF
S11317507E0798CFC8010E946B0A0E94770F92CF30
S1131760C8010E946B0A0E94770F80E00F900F90CF
S11317700F900F900F90DF91CF911F910F91FF90D9
S1131780EF90DF90CF90BF90AF909F900895CF934C
S1131790DF93482F60E081E00E94F50AEC01009796
S11317A061F01B821A82198218821E8220E040E0B6
S11317B050E060E070E00E94260BCE01DF91CF91F3
S11317C00895EF92FF920F931F93CF93DF938A01B3
S11317D0FC01528D338D531710F02230F1F4422F57
S11317E07801EC011E8D0E94F2091F3F81F4898962
S11317F08823A9F0CE0141960E94F710882389F02E
S1131800E114F10481F081E0F70180830DC0FF242D
S1131810F394F10EFE8E81E007C080E005C081E004
S113182003C081E001C081E0DF91CF911F910F914E
S1131830FF90EF9008958F929F92AF92BF92CF92B4
S1131840DF92EF92FF920F931F93CF93DF9300D019
S113185000D01F92CDB7DEB78C015B015D834C8352
S1131860822EE12C992493946C0181E1C80ED11C41
S11318700FB6F8940F92F801F28CFF2091F1C68014
S1131880D780B501C8010E94510A811019C0FA9489
S1131890F801F28E80819181892B29F40E94301203
S11318A0F80193838283F80180858823B1F0C8010D
S11318B008960E94F710882381F00E947E070DC0CD
S11318C0F801D782C6828189882339F0C8014196FC
S11318D00E94F71081110E947E070F900FBE81E0D5
S11318E064C08C819D81892B21F40F900FBE80E010
S11318F05CC0E11005C0CE0101960E943F11E92CA5
S11319000F900FBE0E94AC0E0FB6F8940F92F80120
S1131910858D8F3F09F4158EF801868D8F3F09F46C
S1131920168E0F900FBEBE016C5F7F4FCE010196E5
S11319300E944A1181112BC00FB6F8940F92F8013E
S1131940828D0F900FBE81111CC080819181892BE3
S113195049F40FB6F8940F92828193810E948E11FC
S11319600F900FBE6C817D81C6010E94CC10C8010E
S11319700E946B0A0E94770F81117ACF0E947E0722
S113198077CFC8010E946B0A0E94770F71CFC801FC
S11319900E946B0A0E94770F0FB6F8940F92F80119
S11319A0828D0F900FBE811163CF0F900F900F9017
S11319B00F900F90DF91CF911F910F91FF90EF90B7
S11319C0DF90CF90BF90AF909F908F900895CF936A
S11319D0DF93EC010FB6F8940F928D8D8F3F09F4CD
S11319E01D8E8E8D8F3F09F41E8E0F900FBE8A8D33
S11319F0811104C0CE0141960E94DE10CE010E94E6
S1131A006B0ADF91CF910895E0915A08F0915B0839
S1131A108081811107C08FEF9FEF90933B088093E3
S1131A203A080895E0915A08F0915B080580F68120
S1131A30E02D0680F781E02D8281938190933B080D
S1131A4080933A0808950F931F93CF93DF93EC018B
S1131A5000914208109143088091B6089091B7080C
S1131A6002960E94B206C00FD11FE091B608F09111
S1131A70B708D383C283C017D10768F46091B6084E
S1131A807091B70880915808909159086E5F7F4F04
S1131A900E94810617C06091B6087091B7088091C2
S1131AA05A0890915B086E5F7F4F0E948106809177
S1131AB03A0890913B08C817D90720F4D0933B0803
S1131AC0C0933A08DF91CF911F910F9108954F92DF
S1131AD05F926F927F928F929F92AF92BF92CF92BA
S1131AE0DF92EF92FF920F931F93CF93DF934C01FA
S1131AF06B015A012901CA010E9436083C01892B55
S1131B0009F4EAC08CE290E00E943608EC01892BCB
S1131B10B1F0788E6F8AA50165EA70E0C3010E9476
S1131B20121681E0A81AB1088F89988DA80EB91EE3
S1131B30D6018C91898F8C91811105C018C0C30185
S1131B400E946B08C9C0AE01465E5F4FF601319634
S1131B50B8E0CB0ED11CCF012191DA012D93AD0158
S1131B60DC018C91882319F0CE16DF06A1F718A2A8
S1131B70083008F007E00E8B0BA31CA26E01B2E044
S1131B80CB0ED11CC6010E945C06CE010C960E94AD
S1131B905C06D987C88788E090E0801B91099D87FF
S1131BA08C87DB8BCA8B1EA21DA21FA218A619A6A6
S1131BB01AA61BA6A201B401C5010E94D8069983E6
S1131BC08883E114F10419F0F701D183C0830FB6BF
S1131BD0F8940F92809144088F5F80934408809119
S1131BE0B6089091B708892BA9F5D093B708C0938C
S1131BF0B608809144088130E9F50EE618E00F2E0E
S1131C00F6EBEF2EF8E0FF2EF02DC8010E944E06F1
S1131C10075F1F4F0E151F05C1F785E698E00E9468
S1131C204E068CE598E00E944E068FE498E00E94F0
S1131C304E0686E498E00E944E0685E698E090936E
S1131C405B0880935A088CE598E090935908809338
S1131C50580810C08091400881110CC0E091B6086A
S1131C60F091B70896898E89891720F0D093B70828
S1131C70C093B60880913C088F5F80933C0889A389
S1131C808E8990914108981710F48093410890E050
S1131C909C01220F331F220F331F220F331F820F89
S1131CA0931FB6018259974F0E9460060F900FBE92
S1131CB080914008882361F0E091B608F091B7085C
S1131CC096898E89981730F40E947E0781E005C0BA
S1131CD081E003C081E001C08FEFDF91CF911F91BC
S1131CE00F91FF90EF90DF90CF90BF90AF909F90B7
S1131CF08F907F906F905F904F900895EF92FF9236
S1131D000F930F2EF8E3EF2EF8E0FF2EF02D00E0F6
S1131D1020E030E045E550E06EE471E08AE090E1D7
S1131D200E94670D8130A1F40E949A12813081F4DF
S1131D30F8948FEF9FEF90933B0880933A0881E0EB
S1131D408093400810924308109242080E9444076E
S1131D500F91FF90EF900895809137088F5F8093E3
S1131D60370808950FB6F8940F9280914208909125
S1131D7043080F900FBE0895CF92DF92EF92FF9227
S1131D800F931F93CF93DF9380913708811199C0EC
S1131D90E0904208F09043088FEFE81AF80AF092B6
S1131DA04308E0924208E114F104B9F480915A081E
S1131DB090915B08209158083091590830935B0842
S1131DC020935A08909359088093580880913D08AD
S1131DD08F5F80933D080E94040D80913A08909192
S1131DE03B08E816F90610F4D12C53C0D12CCC24AE
S1131DF0C394E0915A08F0915B088081811107C077
S1131E008FEF9FEF90933B0880933A0842C0E09194
S1131E105A08F0915B080580F681E02DC681D781D0
S1131E208A819B81E816F90628F490933B088093F5
S1131E303A082FC08E010E5F1F4FC8010E94B206E0
S1131E408C899D89892B21F0CE010C960E94B206C3
S1131E508E8990914108981710F48093410890E07E
S1131E609C01220F331F220F331F220F331F820FB7
S1131E70931FB8018259974F0E946006E091B608FB
S1131E80F091B7089E898689981708F4B2CFDC2CA4
S1131E90B0CFE091B608F091B708868990E0FC01D4
S1131EA0EE0FFF1FEE0FFF1FEE0FFF1F8E0F9F1F82
S1131EB0FC01E259F74F8081823048F0DD24D3944D
S1131EC006C080913F088F5F80933F08D12C80919A
S1131ED03E08882311F0DD24D3948D2DDF91CF911A
S1131EE01F910F91FF90EF90DF90CF900895DF92B4
S1131EF0EF92FF920F931F93CF93DF930FB6F89453
S1131F000F92809137088150809337088091370869
S1131F1081115FC080914408811133C05DC0D70135
S1131F201596ED91FC911697C681D781CE010C963A
S1131F300E94B2068E010E5F1F4FC8010E94B206B6
S1131F408E8990914108981710F48093410890E08D
S1131F509C01220F331F220F331F220F331F820FC6
S1131F60931FB8018259974F0E946006E091B6080A
S1131F70F091B7089E898689981768F0D0923E0838
S1131F800AC0C0E0D0E00F2EFFE4EF2EF8E0FF2EF1
S1131F90F02DDD24D394F70180818111C0CFCD2BA6
S1131FA011F00E94040DC0913F08CC2351F0D1E000
S1131FB00E94BC0E8111D0933E08C150C9F7109203
S1131FC03F0880913E08882331F00E947E0781E01B
S1131FD003C080E001C080E00F900FBEDF91CF917D
S1131FE01F910F91FF90EF90DF900895CF93DF93AF
S1131FF0EC01892B51F00E94AC0E60E0CE010E94EE
S1132000230D0E94770F811102C00E947E07DF9189
S1132010CF91089506E418E00F2EFEE6EF2EF8E0C7
S1132020FF2EF02D29C00E94AC0ED801CC910E9445
S1132030770FCC2309F10FB6F8940F92D8011596B7
S1132040ED91FC911697C681D781CE0102960E942C
S1132050B2068091440881508093440880914508D9
S11320608150809345080F900FBE8F89988D0E94F0
S11320706B08CE010E946B08809145088111D3CF73
S1132080F7018081823010F00E947E070E941B05B8
S1132090F3CF009721F48091B6089091B7080FB65A
S11320A0F8940F92FC0176A365A30F900FBE0895D8
S11320B080913708882321F081E080933E080895B9
S11320C010923E08E091B608F091B70885A10E94ED
S11320D0070620914108822F90E0FC01EE0FFF1FBC
S11320E0EE0FFF1FEE0FFF1FE80FF91FE259F74F26
S11320F03081311111C02150822F90E0FC01EE0F8C
S1132100FF1FEE0FFF1FEE0FFF1FE80FF91FE2592D
S1132110F74F3081332379F3AC01440F551F440F3B
S1132120551F440F551F480F591FDA01A259B74FC5
S11321301196ED91FC9112970280F381E02D129695
S1132140FC93EE9311974F58574FE417F50729F472
S113215042815381FD0152834183FC01EE0FFF1F35
S1132160EE0FFF1FEE0FFF1F8E0F9F1FFC01E259A2
S1132170F74F0180F281E02D868197819093B70813
S11321808093B60820934108E091B608F091B7080F
S113219085A10E94FC050895CF93DF93EB01609124
S11321A0B6087091B708645F7F4F0E94810661E0B2
S11321B0CE010E94230DDF91CF9108950F931F93B9
S11321C0CF938B01C42F6091B6087091B708645FF8
S11321D07F4F0E946006CC2311F00FEF1FEF6C2F8E
S11321E0C8010E94230DCF911F910F9108950F9361
S11321F01F93CF93DF93DC011596ED91FC91169715
S1132200C681D7818E01045F1F4FC8010E94B206A8
S11322108091370881111CC00A501109C8010E941D
S1132220B2068E8990914108981710F48093410862
S113223090E09C01220F331F220F331F220F331F04
S1132240820F931FB8018259974F0E94600605C000
S1132250B8018FE498E00E946006E091B608F0911E
S1132260B7089E898689891720F481E080933E0807
S113227001C080E0DF91CF911F910F9108952091CB
S11322803D08FC01208320914208309143083283A9
S113229021830895CF93DF93FC010FB6F8940F9236
S11322A0209142083091430880913D08908198170D
S11322B029F08181928128173907B0F4A181B28174
S11322C0EB0148815981C9018A1B9B0B841795072F
S11322D068F4CF01A21BB30B4A0F5B1F59834883D9
S11322E00E943F1180E003C081E001C081E00F90B3
S11322F00FBEDF91CF91089581E080933E08089549
S113230080914008882331F080913708882321F098
S113231080E0089581E0089582E008950F931F936B
S1132320CF93DF93FC01892B09F455C02689A09132
S1132330B608B091B70856968C91281708F04BC090
S113234084859585992364F0A091B608B091B70867
S113235056963C9188E090E0831B91099587848789
S113236030E0C901880F991F880F991F880F991FA2
S1132370280F391F2259374F828593858217930777
S113238019F58F01EF012296CE010E94B206E09169
S1132390B608F091B7088689F801868B90914108B8
S11323A0981710F48093410890E09C01220F331F8A
S11323B0220F331F220F331F820F931FBE01825936
S11323C0974F0E94600607C0A091B608B091B70865
S11323D056968C91868BDF91CF911F910F91089522
S11323E00F931F93CF93DF93FC01892B79F184A181
S11323F0815084A3268993A1291751F181112AC000
S1132400EF018F010E5F1F4FC8010E94B2068BA11E
S11324108E8B28E030E0281B31093D872C87909172
S11324204108981710F48093410890E09C01220F12
S1132430331F220F331F220F331F820F931FB80144
S11324408259974F0E94600681E005C080E003C076
S113245080E001C080E0DF91CF911F910F9108953A
S11324608091B6089091B708892B39F0E091B608AD
S1132470F091B70884A18F5F84A38091B6089091EE
S1132480B7080895FC017383628391878087461798
S1132490570790F0421B530B8485958548175907BD
S11324A0E0F4BF016E5F7F4F8091BE089091BF083A
S11324B00E94810680E008954217530718F46217BA
S11324C0730768F4BF016E5F7F4F8091C0089091DD
S11324D0C1080E94810680E0089581E0089581E0AA
S11324E008950FB6F8940F928091BC089091BD089E
S11324F0892BE9F48BEC98E00E944E0682EC98E07C
S11325000E944E068BEC98E09093C1088093C0081B
S113251082EC98E09093BF088093BE0840E065E0A9
S113252082E00E94F50A9093BD088093BC080F9046
S11325300FBE0895EF92FF920F930E947112809143
S1132540BC089091BD08892B91F00F2EFAEBEF2E69
S1132550F8E0FF2EF02D07E020E030E042E350E009
S113256063E571E084E793E10E94670D01C080E0B8
S11325700F91FF90EF9008950F931F93CF93DF93E4
S113258000D000D01F92CDB7DEB7E091BC08F09127
S1132590BD08309771F1D90169835B834A839D83B8
S11325A08C836630ECF40E948011823061F420E068
S11325B0A801BE016F5F7F4F8091BC089091BD0858
S11325C00E94260B17C020E040E050E0BE016F5F80
S11325D07F4F8091BC089091BD080E94260B0AC0D1
S11325E020E0AD01BE016F5F7F4FCF010E94E10B80
S11325F001C080E00F900F900F900F900F90DF912B
S1132600CF911F910F910895AF92BF92CF92DF9215
S1132610EF92FF920F931F93CF93DF936C010E946D
S1132620B20E7C018091B8089091B908E816F906B9
S113263008F048C030C00580F681E02DA080B1804C
S1132640C681D7818E010E5F1F4FC8010E94B2065A
S1132650E989FA89CE0109958E858130E1F48C856A
S11326609D858A0D9B1DA816B90660F49B838A83F9
S1132670D987C887B8018091C0089091C1080E9489
S1132680810609C000E010E020E030E0A50160E030
S1132690CE010E94BC12E091C008F091C108808173
S11326A08111C9CF8091BE089091BF089093C10851
S11326B08093C008F093BF08E093BE0881E0F60160
S11326C0808302C0F6011082F092B908E092B80843
S11326D0C701DF91CF911F910F91FF90EF90DF9091
S11326E0CF90BF90AF900895CF93DF9300D000D0E8
S11326F000D0CDB7DEB7CE0101964C0144244394FB
S1132700D12CE12CF12C582EC92CE091C008F09169
S1132710C1088081882309F4C3C00580F681E02DB7
S1132720A080B1800E94AC0EC4010E9404138C01ED
S11327308981811147C00A151B0598F10E94770F02
S1132740E091C008F091C1080580F681E02D668013
S11327507780C30102960E94B206D3011E968C9123
S11327601E978130B1F41C966D917C911D976A0D72
S11327707B1D9501A801C3010E944212882349F0E0
S11327800D2D1E2D2D2D3E2DA5016F2DC3010E9453
S1132790BC12D3015196ED91FC915297C301099556
S11327A071C04F2DB501601B710B8091BC089091D5
S11327B0BD080E94E70C0E94770F811163C00E943C
S11327C07E0760C00E94770F5DC0898188230CF466
S11327D059C0AC80BD80F50182859385892B21F099
S11327E0C50102960E94B206CE0106960E94041309
S11327F0E9810E2FEE0F110B220B330B0A3011055A
S113280008F040C0F801E25CFF4F0C9486142A8162
S11328103B81D5011C966D917C911D97620F731FAE
S1132820AC01C5010E944212882361F1D501519681
S1132830ED91FC915297C5010995F501868581308A
S113284009F54A815B8184859585480F591F0D2DB3
S11328501E2D2D2D3E2D6F2DC5010E94BC1212C0C0
S11328606A817B81D5011D967C936E931C97680FBA
S1132870791F9C01AC01C5010E94421203C0C5012D
S11328800E946B082F2D4D2D5E2D652D7C2D809182
S1132890BC089091BD080E941B0C811196CF35CFC6
S11328A00E94AC0EC4010E9404138C018981811121
S11328B089CFE091BE08F091BF08442D8081811139
S11328C04F2DAD2CBE2C6ECFA1E21A2EAA1BBB1B22
S11328D0FD010DC0AA1FBB1FEE1FFF1FA217B307E8
S11328E0E407F50720F0A21BB30BE40BF50B661FFE
S11328F0771F881F991F1A9469F7609570958095C2
S113290090959B01AC01BD01CF010895EE0FFF1F0F
S11329100590F491E02D09940F931F93CF93DF93C7
S11329208230910510F482E090E0E091D608F091B5
S1132930D70820E030E0A0E0B0E0309719F1408102
S113294051810281138148175907C8F084179507EC
S113295069F4109731F012960C93129713961C9306
S113296027C00093D6081093D70822C0211531053B
S113297019F04217530718F49A01BD01EF01DF0162
S1132980F801DBCF21153105F9F0281B390B243070
S1132990310580F48A819B816115710521F0FB0169
S11329A09383828304C09093D7088093D608FE0152
S11329B0329644C0FE01E20FF31F8193919322509B
S11329C03109398328833AC02091D4083091D5083D
S11329D0232B41F420910201309103013093D50857
S11329E02093D40820910001309101012115310573
S11329F041F42DB73EB74091040150910501241BC9
S1132A00350BE091D408F091D508E217F307A0F450
S1132A102E1B3F0B2817390778F0AC014E5F5F4F30
S1132A202417350748F04E0F5F1F5093D508409385
S1132A30D4088193919302C0E0E0F0E0CF01DF91EC
S1132A40CF911F910F910895CF93DF93009709F4CD
S1132A5081C0FC01329713821282A091D608B091F2
S1132A60D708109781F420813181820F931F209120
S1132A70D4083091D5082817390751F5F093D508B3
S1132A80E093D40867C0ED0120E030E0CE17DF0703
S1132A9040F44A815B819E0141155105F1F0EA0140
S1132AA0F5CFD383C28340815181840F951FC8170A
S1132AB0D90759F488819981840F951F02969183CF
S1132AC080838A819B81938382832115310529F434
S1132AD0F093D708E093D6083DC0E901FB83EA836D
S1132AE049915991C40FD51FEC17FD0761F48081FA
S1132AF09181840F951F0296E901998388838281CD
S1132B0093819B838A83E0E0F0E012968D919C91FF
S1132B101397009719F0FD01DC01F7CF8D919C917B
S1132B2011979D012E5F3F4F820F931F2091D40870
S1132B303091D5082817390769F4309729F4109291
S1132B40D7081092D60802C013821282B093D50817
S1132B50A093D408DF91CF9108958F929F92AF9262
S1132B60BF92CF92DF92EF92FF92CF93DF93EC016B
S1132B70688179818A819B8161157105810591053F
S1132B8021F464E279ED8BE597E02DE133EF41E048
S1132B9050E00E94191649015A019B01AC01A7EAB1
S1132BA0B1E40E9438166B017C01ACEEB4EFA501D0
S1132BB094010E944616DC01CB018C0D9D1DAE1DB7
S1132BC0BF1DB7FF03C00197A109B048888399834B
S1132BD0AA83BB839F77DF91CF91FF90EF90DF9023
S1132BE0CF90BF90AF909F908F9008950E94AD15A5
S1132BF0089586E091E00E94AD150895A0E0B0E04C
S1132C008093060190930701A0930801B0930901F2
S1132C100895FB01DC0102C001900D924150504027
S1132C20D8F70895DC0101C06D9341505040E0F79E
S1132C300895052E97FB1EF400940E94301657FD4C
S1132C4007D00E94641407FC03D04EF40C94301691
S1132C5050954095309521953F4F4F4F5F4F0895C4
S1132C6090958095709561957F4F8F4F9F4F0895F4
S1132C700E944B16A59F900DB49F900DA49F800DAC
S1132C80911D11240895B7FF0C9438160E9438162C
S1132C90821B930B0895A29FB001B39FC001A39F11
S1132CA0700D811D1124911DB29F700D811D112481
S10B2CB0911D0895F894FFCF73
S1132CB80000D8082000010000000100C600CE0072
S1132CC8446973706C61792075706461746572000D
S1132CD847616D65206C6F676963004F6273746147
S1132CE8636C6573004A6F79737469636B207361ED
S1132CF86D706C6572005374617274757000494428
S10F2D084C4500546D72205376630000AB
S9030000FC
