S01100004669727374546573742E737265636B
S11300000C943E000C945B000C945B000C945B001D
S11300100C945B000C945B000C945B000C945B00F0
S11300200C945B000C945B000C945B000C945B00E0
S11300300C945B000C94B3070C945B000C945B0071
S11300400C9400050C945B000C945B000C945B0016
S11300500C94A9080C94E7080C945B000C945B00C6
S11300600C945B000C945B000C945B000C945B00A0
S11300700C942F090C946D090C945B0011241FBE81
S1130080CFEFD8E0DEBFCDBF11E0A0E0B1E0E8E6FD
S1130090F7E202C005900D92A636B107D9F727E022
S11300A0A6E6B1E001C01D92A23DB207E1F70E94AD
S11300B0AE040C94B2130C940000CF93DF9300D0E1
S11300C000D0CDB7DEB762E070E080E090E00E943F
S11300D0E30F0F2EFBEF6F2EF1E07F2EF02D332474
S11300E03394212C0F2EF9E1AF2EF3E0BF2EF02D27
S11300F00F2EFFEF8F2EF1E09F2EF02D0F2EF7E144
S1130100CF2EF3E0DF2EF02D19821A8280910C019C
S113011090910D010097F1F7D3018D919C91119766
S11301209C01220F331F880F991F880F991F880F76
S1130130991F820F931F1296ED91FC9113978E0FC6
S11301409F1FFC01EA59FE4F8081811197C00F2E39
S1130150F7E6EF2EF1E0FF2EF02D41E052E0B7017B
S11301600EC08D9190E081939193E217F307C9F744
S1130170665F7F4F4C5E5F4F4A155B0531F09A0115
S11301802E5E3F4FFA01DB01ECCFE3E1F2E0432CBA
S1130190522C00E010E0FC83EB830E945113817029
S11301A09078992324F401978E6F9F6F0196D40160
S11301B08D939C93023011052CF0BDE04B16510435
S11301C0D9F465C00E94511381709078992324F466
S11301D001978E6F9F6F0196EB81FC8191838083E1
S11301E0019711F40F5F1F4FC20183709927892B68
S11301F039F409811A8104C0AB81BC811D921C921F
S1130200BFEF4B1A5B0AEB81FC817496FC83EB8392
S1130210FEE04F16510409F6A4010EC08081329607
S11302208D93E217F307D1F74C5E5F4F8AE0E80E37
S1130230F11C4C155D0531F09A012E5E3F4FD7013C
S1130240FA01ECCFD3018D919C911197FC01EE0F33
S1130250FF1F880F991F880F991F880F991FE80F98
S1130260F91F12968D919C911397E80FF91FEE0FC9
S1130270FF1FE150FE4F3082218204C030920C01F6
S113028020920D0188EE93E00E94900F3FCF0E94D0
S1130290511381709078992324F401978E6F9F6F86
S11302A00196EB81FC8191838083019709F0B4CF9F
S11302B099CFCF93DF9300D000D000D0CDB7DEB775
S11302C065E070E080E090E00E94E30FEE24E394A8
S11302D0F12C0BEF11E00F2EF3E0CF2ED12CF02DEB
S11302E06894AA24A1F8B12C80910C0190910D017D
S11302F0892B09F04AC0F801808191819C838B830A
S1130300828193819E838D8330990EC01A821982D3
S113031020E04FEF5FEFBE016F5F7F4F8091F501EB
S11303209091F6010E94EB0A31990EC0BA82A9821B
S113033020E04FEF5FEFBE016F5F7F4F8091F501CB
S11303409091F6010E94EB0A36990EC0FA82E98276
S113035020E04FEF5FEFBE016F5F7F4F8091F501AB
S11303609091F6010E94EB0A379915C0DA82C9828E
S113037020E04FEF5FEFBE016F5F7F4F8091F5018B
S11303809091F6010E94EB0A06C04B9904C0F092CA
S1130390F401E092F30184E690E00E94900FA4CF70
S11303A0CF92DF92EF92FF920F931F93CF93DF933D
S11303B0C7E1D3E04FEF51E007E113E0C12CD12CAA
S11303C061E070E0DE0119821882FA018C2D9D2D06
S11303D0219131912130310579F4ED90FC90119700
S11303E09B01082E02C0220F331F0A94E2F72E2924
S11303F03F2911963C932E9301968A30910541F73B
S113040022964C5E5F4F40175107E1F6DF91CF9182
S11304101F910F91FF90EF90DF90CF90089581305E
S1130420910509F462C040F08230910509F4BAC024
S1130430039709F414C10895DB0112962D913C91A0
S11304401397C90101968A30910508F063C14D9153
S11304505C91DA01AA0FBB1FFA01EE0FFF1FEE0F2A
S1130460FF1FEE0FFF1FEA0FFB1FE80FF91FEE0F30
S1130470FF1FE150FE4F80819181892B09F04AC111
S1130480FD01440F551F440F551F440F551FE40F22
S1130490F51FE20FF31FEE0FFF1FE150FE4F118215
S11304A01082FB01208131818281938101969383A3
S11304B08283F901EE0FFF1F220F331F220F331F18
S11304C0220F331FE20FF31FE80FF91FEE0FFF1F78
S11304D0E150FE4F81E090E0918380830E94D0013F
S11304E088EC90E00E94900F0895DB0112962D9104
S11304F03C9113972115310509F40CC14D915C9180
S11305001197FA01EE0FFF1FCA01880F991F880F78
S1130510991F880F991FE80FF91FE20FF31FEE0FC1
S1130520FF1FE350FE4F80819181892B09F0F2C0B7
S1130530FA01EE0FFF1F440F551F440F551F440FC0
S1130540551FE40FF51FE20FF31FEE0FFF1FE150DD
S1130550FE4F1182108212968D919C9113970197F0
S113056013969C938E9312972D913C91F901EE0F63
S1130570FF1F220F331F220F331F220F331FE20FDF
S1130580F31FE80FF91FEE0FFF1FE150FE4F81E04C
S113059090E0918380830E94D00188EC90E00E94D7
S11305A0900F0895FB0120813181C90101968E309D
S11305B0910508F0AFC042815381FC01EE0FFF1F8B
S11305C0880F991F880F991F880F991FE80FF91F2B
S11305D0E40FF51FEE0FFF1FE150FE4F8081918164
S11305E0892B09F097C0C901880F991F220F331F67
S11305F0220F331F220F331F280F391FF901E40F75
S1130600F51FEE0FFF1FE150FE4F11821082DB0138
S11306108D919C911197019611969C938E931296AD
S1130620ED91FC9113979C01220F331F880F991FA2
S1130630880F991F880F991F820F931FE80FF91FC6
S1130640EE0FFF1FE150FE4F81E090E09183808325
S11306500E94D00188EC90E00E94900F0895FB0165
S1130660208131812115310509F454C0428153811F
S1130670C9010197FC01EE0FFF1F880F991F880F16
S1130680991F880F991FE80FF91FE40FF51FEE0F4C
S1130690FF1FE150FE4F80819181892BD9F5C9015B
S11306A0880F991F220F331F220F331F220F331F6E
S11306B0280F391FF901E40FF51FEE0FFF1FE1505A
S11306C0FE4F11821082DB018D919C91119701974D
S11306D011969C938E931296ED91FC9113979C0125
S11306E0220F331F880F991F880F991F880F991F96
S11306F0820F931FE80FF91FEE0FFF1FE150FE4F0B
S113070081E090E0918380830E94D00188EC90E0A6
S11307100E94900F0895CF93DF9300D000D000D0B3
S1130720CDB7DEB764E070E080E090E00E94E30FB4
S113073001E010E00F2EFBEFEF2EF1E0FF2EF02D85
S11307400F2EF7EFCF2EF1E0DF2EF02D80910C016C
S113075090910D01892BB9F520E04FEF5FEFBE01B9
S11307606F5F7F4F8091F5019091F6010E94E00B3D
S1130770882309F440C08B819C81F7012081318159
S11307808217930769F44D815E8122813381421778
S1130790530731F4B70189819A810E940F022BC05B
S11307A0F601208131818217930729F52D813E813D
S11307B08281938128173907F1F4B60189819A81DE
S11307C00E940F0218C02091F3013091F40180912E
S11307D00A0190910B01820F931F029761F410920A
S11307E00D0110920C011092F4011092F301109378
S11307F00B0100930A0186E490E00E94900FA6CFBB
S113080063E070E080E090E00E94E30F0E94D0017A
S113081088EE93E00E94900FF9CFEFEFF1E027E12B
S113082033E009C011921192E817F907D9F7FC01D6
S11308302817390719F0CF014496F4CFEBEFF1E014
S113084086E090E09183808389E090E093838283C3
S113085081E090E090938A02809389020E94D00103
S113086061E070E080E090E00E94E30F81E00E948C
S11308708C0B9093340380933303E12CF12C04E02C
S113088020E030E045E550E062E171E08DE590E084
S11308900E940F0D06E020E030E045E550E06CE1F9
S11308A071E080E094E00E940F0D03E020E030E06E
S11308B045E550E06CE271E08BE893E00E940F0D97
S11308C002E020E030E045E550E067E371E089E5CF
S11308D091E00E940F0D6FE088E491E00E942905E9
S11308E0FFCF5A9A08955D9A5D985C9A5C985A98DD
S11308F00895809582B985B1836085B985B1937077
S11309009095892385B90895CF93C0916601C1114B
S11309100EC00E94710480911703909118030E94E5
S113092079040E94730481E08093660114C0EC2F63
S1130930F0E0EE0FFF1FE95EFC4F808191810E9481
S113094079040E947304CF5FCE3018F4C09366011B
S113095002C010926601CF91089508950E94320555
S113096040E066E084E10E94BA0A9093F601809325
S1130970F5015E98E12CF12C00E020E030E045E543
S113098050E068E571E08DE094E00E940F0D84E88A
S113099094E00E94EE0478940E94260EFFCFCF9339
S11309A0DF9300D0CDB7DEB76A8380917D03909149
S11309B07E03009771F0198220E0AE014F5F5F4F14
S11309C0BE016E5F7F4F0E94A60B898181110E9438
S11309D0FE060F900F90DF91CF91089590937C03C2
S11309E080937B038AE087BD84B5826084BDEEE694
S11309F0F0E080818260808385B5856085BD08953F
S1130A001F920F920FB60F9211242F933F934F937F
S1130A105F936F937F938F939F93AF93BF93EF9362
S1130A20FF93E0917B03F0917C03309709F00995E3
S1130A30FF91EF91BF91AF919F918F917F916F91B2
S1130A405F914F913F912F910F900FBE0F901F9088
S1130A501895462FBC0180917F03909180030E94DA
S1130A60660808958F929F92AF92BF92CF92DF92C1
S1130A70EF920F9388E593E00E948B0585E393E062
S1130A800E948B050F2EFFEC8F2EF4E09F2EF02D8D
S1130A900F2EF5E3AF2EF3E0BF2EF02D0F2EF8E569
S1130AA0CF2EF3E0DF2EF02DE12C00E023E040E038
S1130AB052EC61E070E080E00E94EC0790938003C8
S1130AC080937F0388B1836C88B95B9A8AB1846709
S1130AD08AB95E9A81B18FEF81B984B1836084B998
S1130AE084B18C6384B90F91EF90DF90CF90BF9065
S1130AF0AF909F908F90089595B1937C95B925B14F
S1130B0034E0839FC0011124822B85B9089585B1F7
S1130B10837C85B90895FC0110A211A212A2089544
S1130B20FC0182A18823D9F081A1DF01A80FB11DA6
S1130B308C91DB018C9321A130E02F5F3F4F2F710B
S1130B403078332334F421503109206E3F6F2F5F06
S1130B503F4F21A382A1815082A380E0089581E0C8
S1130B600895FC0142A14032B8F420A130E0E20F24
S1130B70F31F60832F5F3F4F2F713078332334F49A
S1130B8021503109206E3F6F2F5F3F4FFC0120A39E
S1130B904F5F42A380E0089582E00895FC0103962C
S1130BA0928381832FEF3FEF34832383968385835E
S1130BB09087878310820895FC011186108608951A
S1130BC0CF93DF939C01FB01DC011196CD91DC9165
S1130BD01297D383C2838C819D81958384838C8176
S1130BE09D81DC0113967C936E9312977D836C83B5
S1130BF031872087F90180818F5F8083DF91CF91D6
S1130C000895CF93DF93EB01488159814F3F2FEF34
S1130C10520721F4FC01A781B0850DC0DC011396B5
S1130C2001C0DF011296ED91FC911397208131816F
S1130C3042175307B0F71296ED91FC911397FB837B
S1130C40EA83D583C483BD83AC831396DC93CE93AC
S1130C50129799878887FC0120812F5F2083DF9179
S1130C60CF910895CF93DF93FC01A085B185C28114
S1130C70D381848195819D838C83C481D581828134
S1130C8093819B838A831196CD91DC911297CE1721
S1130C90DF0731F48C819D8112969C938E9311977A
S1130CA0118610868C9181508C93DF91CF91089599
S1130CB031E1FC013083319722E220833197A3E3B1
S1130CC0A083319760833197708331971082319775
S1130CD060E8608331971082319762E060833197D6
S1130CE063E06083319764E06083319765E06083FB
S1130CF0319766E06083319767E06083319768E0FD
S1130D006083319769E06083319760E16083319754
S1130D103083319732E13083319733E13083319737
S1130D2034E13083319735E13083319736E13083D4
S1130D30319737E13083319738E13083319739E1A6
S1130D403083319730E23083319731E23083319709
S1130D502083319723E22083319740833197508356
S1130D60319726E22083319727E22083319728E2C6
S1130D702083319729E22083319720E32083319720
S1130D8021E32083869708951092890085EE80934D
S1130D9088008BE080938100EFE6F0E08081826040
S1130DA08083A091CC07B091CD07CD91CDBFDD91CB
S1130DB0DEBFFF91EF91DF91CF91BF91AF919F91F2
S1130DC08F917F916F915F914F913F912F911F91DF
S1130DD00F91FF90EF90DF90CF90BF90AF909F90D6
S1130DE08F907F906F905F904F903F902F901F90C7
S1130DF00F900FBE0F90089581E008950F920FB6E3
S1130E00F8940F921F9211242F923F924F925F9267
S1130E106F927F928F929F92AF92BF92CF92DF9206
S1130E20EF92FF920F931F932F933F934F935F93F0
S1130E306F937F938F939F93AF93BF93CF93DF93DE
S1130E40EF93FF93A091CC07B091CD070DB60D920F
S1130E500EB60D920E94F20FA091CC07B091CD076F
S1130E60CD91CDBFDD91DEBFFF91EF91DF91CF91A9
S1130E70BF91AF919F918F917F916F915F914F91AE
S1130E803F912F911F910F91FF90EF90DF90CF90A2
S1130E90BF90AF909F908F907F906F905F904F9096
S1130EA03F902F901F900F900FBE0F9008950F92B8
S1130EB00FB6F8940F921F9211242F923F924F92E3
S1130EC05F926F927F928F929F92AF92BF92CF92D6
S1130ED0DF92EF92FF920F931F932F933F934F93C1
S1130EE05F936F937F938F939F93AF93BF93CF93AE
S1130EF0DF93EF93FF93A091CC07B091CD070DB68C
S1130F000D920EB60D920E94560E81110E94F20FA0
S1130F10A091CC07B091CD07CD91CDBFDD91DEBFBF
S1130F20FF91EF91DF91CF91BF91AF919F918F91FD
S1130F307F916F915F914F913F912F911F910F91ED
S1130F40FF90EF90DF90CF90BF90AF909F908F90E5
S1130F507F906F905F904F903F902F901F900F90D5
S1130F600FBE0F9008950E9457071895CF93DF93F3
S1130F70EC010E94500E8091810390918203892B91
S1130F8031F486E893E09093820380938103209167
S1130F90830330918403CE01820F931F873E43E085
S1130FA0940770F42817390770F4C0918103D09125
S1130FB08203C20FD31F909384038093830305C0DD
S1130FC0C0E0D0E002C0C0E0D0E00E94110FCE012A
S1130FD0DF91CF91089508954F925F926F927F921F
S1130FE08F929F92AF92BF92CF92DF92FF920F9314
S1130FF01F93CF93DF93CDB7DEB7F82E2A013B01C1
S113100088E090E00E94D8118C018F2D90E0880F29
S1131010991FFC01E359F84F11830083FC01E25F3F
S1131020FE4F80819181D80111969C938E931396E3
S1131030BC92AE9212971596DC92CE9214971796A4
S11310409C928E921697FFB6F894ED91FC911197AD
S11310503697808182608083CD90DC90D301C20179
S1131060880F991FAA1FBB1F880F991FAA1FBB1F98
S11310709C01AD01220F331F441F551F60E070E037
S113108081EE90E00E94B6112150F6013297208340
S1131090D801ED91FC911197359788E98083ED9102
S11310A0FC91349786E08083FFBEC801DF91CF9125
S11310B01F910F91FF90DF90CF90BF90AF909F90C2
S11310C08F907F906F905F904F900895EF92FF9272
S11310D00F931F93CF93DF93FC01A281B3811097E9
S11310E079F0E42FF0E092965C9120E230E0251B49
S11310F031092E173F071CF17C01411104C016C0B1
S11311004230F8F4F9CFEB014150042F10E00F5FA7
S11311101F4F060F171F6991D70112968D919C914D
S113112013970E94B105C017D107A9F7D701ED9114
S1131130FC91359780818062808380E003C082E0E7
S113114001C082E0DF91CF911F910F91FF90EF904A
S113115008951F920F920FB60F9211242F933F936D
S11311604F935F936F937F938F939F93AF93BF93AB
S1131170CF93EF93FF93E0916D07F0916E07309753
S1131180A1F0C091C6006C2F848195810E94B105A5
S113119080916D0790916E07DC011696ED91FC919C
S11311A01797309711F06C2F0995FF91EF91CF911C
S11311B0BF91AF919F918F917F916F915F914F916B
S11311C03F912F910F900FBE0F901F9018951F9273
S11311D00F920FB60F9211242F933F934F935F9367
S11311E06F937F938F939F93AF93BF93EF93FF93EB
S11311F0CF93DF931F92CDB7DEB7E0916D07F091E7
S11312006E07309799F0BE016F5F7F4F82819381A3
S11312100E949005811104C089818093C6000BC08F
S1131220E1ECF0E080818F7D808305C0E1ECF0E0AB
S113123080818F7D80830F90DF91CF91FF91EF911B
S1131240BF91AF919F918F917F916F915F914F91DA
S11312503F912F910F900FBE0F901F9018951F92E2
S11312600F920FB60F9211242F933F934F935F93D6
S11312706F937F938F939F93AF93BF93CF93EF938A
S1131280FF93E0916F07F09170073097A1F0C09140
S1131290CE006C2F848195810E94B10580916F07E7
S11312A090917007DC011696ED91FC911797309799
S11312B011F06C2F0995FF91EF91CF91BF91AF91F0
S11312C09F918F917F916F915F914F913F912F915A
S11312D00F900FBE0F901F9018951F920F920FB68C
S11312E00F9211242F933F934F935F936F937F93A8
S11312F08F939F93AF93BF93EF93FF93CF93DF931A
S11313001F92CDB7DEB7E0916F07F0917007309769
S113131099F0BE016F5F7F4F828193810E94900597
S1131320811104C089818093CE000BC0E9ECF0E008
S113133080818F7D808305C0E9ECF0E080818F7D22
S113134080830F90DF91CF91FF91EF91BF91AF9187
S11313509F918F917F916F915F914F913F912F91C9
S11313600F900FBE0F901F9018950F931F93CF935C
S1131370DF93EC01042F1A8D8C8D81110CC08881B0
S11313809981892B09F044C08A819B810E94641150
S11313901B821A8244C0411118C0482F50E08C812E
S11313A09D810E9461132C8D8C819D81820F911DE2
S11313B09D838C832A813B818217930758F188810E
S11313C099819D838C8380E02AC0482F50E08E81D0
S11313D09F810E9461138C8D90E091958195910974
S11313E02E813F81280F391F3F832E8348815981E5
S11313F02417350730F42A813B81820F931F9F8382
S11314008E83023049F4112349F0115080E007C063
S113141080E005C080E003C080E001C080E01F5F81
S11314201A8FDF91CF911F910F910895FC01448D84
S11314304423A9F050E026813781240F351F3783D8
S11314402683828193812817390720F08081918136
S113145097838683CB01668177810E946113089507
S1131460EF92FF920F931F93CF938C010FB6F894D2
S11314700F92FC01C68D1C16ACF48189811106C043
S113148011C0F8019189911105C00CC07801F1E1F6
S1131490EF0EF11CC7010E94791081110E94FE1009
S11314A0C15079F78FEFF801868F0F900FBE0FB6FA
S11314B0F8940F92C58D1C16ACF48085811106C07A
S11314C011C0F8019085911105C00CC07801F8E0B5
S11314D0EF0EF11CC7010E94791081110E94FE10C9
S11314E0C15079F78FEFF801858F0F900FBECF9120
S11314F01F910F91FF90EF900895CF93DF93EC012C
S11315000FB6F8940F92488159812C8D30E07B8D71
S1131510729FC001739F900D1124FA01E80FF91F07
S1131520FB83EA831A8E5D834C83821B930B840FA7
S1131530951F9F838E838FEF8D8F8E8F61110CC0CB
S11315408885882389F0CE0108960E947910882323
S113155059F00E94FE0608C0CE0108960E94CE05EE
S1131560CE0141960E94CE050F900FBE81E0DF911F
S1131570CF910895FF920F931F93CF93DF93082F7A
S1131580162FF42E6623C9F0869FC001112481967C
S11315900E94B607EC01009749F416C00B8F1C8F0C
S11315A061E0CE010E947D0AF8A20EC08196998363
S11315B08883F4CFD983C883F1CF81E290E00E947D
S11315C0B607EC01892BB1F7CE01DF91CF911F91C2
S11315D00F91FF9008959F92AF92BF92CF92DF92A6
S11315E0EF92FF920F931F93CF93DF9300D000D01D
S11315F01F92CDB7DEB78C016B015D834C83A22EA5
S1131600B12C992493947C0188E0E80EF11C0FB668
S1131610F8940F92F801328D938D391718F0F2E097
S1131620AF1219C04A2DB601C8010E94B509F801CC
S11316309189992349F0C80141960E947910882321
S113164031F00E94FE0603C081110E94FE060F9035
S11316500FBE81E050C0EC81FD81EF2B21F40F908F
S11316600FBE80E048C0B11005C0CE0101960E94B3
S1131670C110B92C0F900FBE0E94500E0FB6F894F3
S11316800F92F801858D8F3F09F4158EF801868D30
S11316908F3F09F4168E0F900FBEBE016C5F7F4F13
S11316A0CE0101960E94CC1081111FC00FB6F89490
S11316B00F92F801928D0F900FBE838D98130FC077
S11316C06C817D81C7010E946610C8010E94300AA6
S11316D00E94110F81119BCF0E94FE0698CFC80172
S11316E00E94300A0E94110F92CFC8010E94300A52
S11316F00E94110F80E00F900F900F900F900F90A9
S1131700DF91CF911F910F91FF90EF90DF90CF90D9
S1131710BF90AF909F900895CF93DF93482F60E0E0
S113172081E00E94BA0AEC01009761F01B821A82E0
S1131730198218821E8220E040E050E060E070E0F0
S11317400E94EB0ACE01DF91CF910895EF92FF92B0
S11317500F931F93CF93DF938A01FC01528D338D36
S1131760531710F02230F1F4422F7801EC011E8D52
S11317700E94B5091F3F81F489898823A9F0CE010D
S113178041960E947910882389F0E114F10481F0D4
S113179081E0F70180830DC0FF24F394F10EFE8EE7
S11317A081E007C080E005C081E003C081E001C0A2
S11317B081E0DF91CF911F910F91FF90EF900895F9
S11317C08F929F92AF92BF92CF92DF92EF92FF924D
S11317D00F931F93CF93DF9300D000D01F92CDB708
S11317E0DEB78C015B015D834C83822EE12C99244E
S11317F093946C0181E1C80ED11C0FB6F8940F923A
S1131800F801F28CFF2091F1C680D780B501C801A0
S11318100E94160A811019C0FA94F801F28E808190
S11318209181892B29F40E94A411F8019383828366
S1131830F80180858823B1F0C80108960E947910C8
S1131840882381F00E94FE060DC0F801D782C6826B
S11318508189882339F0C80141960E947910811149
S11318600E94FE060F900FBE81E064C04C815D8132
S1131870452B21F40F900FBE80E05CC0E11005C041
S1131880CE0101960E94C110E92C0F900FBE0E9458
S1131890500E0FB6F8940F92F801858D8F3F09F41E
S11318A0158EF801968D9F3F09F4168E0F900FBE8A
S11318B0BE016C5F7F4FCE0101960E94CC10811156
S11318C02BC00FB6F8940F92F801828D0F900FBEC3
S11318D081111CC080819181892B49F40FB6F89441
S11318E00F92828193810E9402110F900FBE6C812E
S11318F07D81C6010E946610C8010E94300A0E94C0
S1131900110F81117ACF0E94FE0677CFC8010E9481
S1131910300A0E94110F71CFC8010E94300A0E9440
S1131920110F0FB6F8940F92F801828D0F900FBE2D
S1131930811163CF0F900F900F900F900F90DF9154
S1131940CF911F910F91FF90EF90DF90CF90BF90B8
S1131950AF909F908F900895E0919407F091950730
S11319608081811107C08FEF9FEF9093750780935B
S113197074070895E0919407F09195070580F68126
S1131980E02D0680F781E02D828193819093750785
S11319908093740708950F931F93CF93DF93EC0103
S11319A000917C0710917D078091CC079091CD0721
S11319B002960E943206C00FD11FE091CC07F0912D
S11319C0CD07D383C283C017D10768F46091CC07D5
S11319D07091CD0780919207909193076E5F7F4F2E
S11319E00E94010617C06091CC077091CD078091C9
S11319F09407909195076E5F7F4F0E940106809136
S1131A00740790917507C817D90720F4D093750708
S1131A10C0937407DF91CF911F910F9108954F9256
S1131A205F926F927F928F929F92AF92BF92CF926A
S1131A30DF92EF92FF920F93CF93DF934C01EB0170
S1131A406A012901CA010E94B6075C01892B09F4C5
S1131A50ECC08CE290E00E94B6073C010097B9F01C
S1131A60FC01B08EA78AA60165EA70E0C5010E9458
S1131A706A13F1E0CF1AD108F3018789908DC80E5B
S1131A80D91E8881818F8881811105C014C0C50148
S1131A900E94EB07CAC0D3015A96FE0131969E01FB
S1131AA0285F3F4FEF0181918D938881882319F03E
S1131AB0E217F307B9F7F30110A2043008F003E0CA
S1131AC0F301068B03A314A2E3012296CE010E9424
S1131AD0DC05C3010C960E94DC05F3017186608667
S1131AE084E090E0801B910995878487738A628AD9
S1131AF016A215A217A210A611A612A613A6A20139
S1131B00B401C6010E945806F30191838083E11455
S1131B10F10419F0F701718260820FB6F8940F9204
S1131B2080917E078F5F80937E078091CC07909190
S1131B30CD07892BA9F57092CD076092CC078091CF
S1131B407E078130F1F588EA97E00E94CE0581EBAB
S1131B5097E00E94CE058AEB97E00E94CE0583ECC5
S1131B6097E00E94CE058FE997E00E94CE0586E9B2
S1131B7097E00E94CE0589E897E00E94CE0580E8B0
S1131B8097E00E94CE058FE997E0909395078093A4
S1131B90940786E997E0909393078093920711C086
S1131BA080917A0781110DC0E091CC07F091CD07A7
S1131BB09689F3018689891720F07092CD07609287
S1131BC0CC07809176078F5F80937607F30181A31A
S1131BD0868990917B07981710F480937B0790E097
S1131BE09C01220F331F220F331F220F331F820F3A
S1131BF0931FBE018855984F0E94E0050F900FBEB9
S1131C0080917A07882369F0E091CC07F091CD07A1
S1131C109689F3018689981730F40E94FE0681E0C4
S1131C2005C081E003C081E001C08FEFDF91CF9157
S1131C300F91FF90EF90DF90CF90BF90AF909F9067
S1131C408F907F906F905F904F900895EF92FF92E6
S1131C500F930F2EF2E7EF2EF7E0FF2EF02D00E0AA
S1131C6020E030E045E550E060E671E084EA9FE082
S1131C700E940F0D813081F4F8948FEF9FEF9093C1
S1131C8075078093740781E080937A0710927D072B
S1131C9010927C070E94C4060F91FF90EF90089564
S1131CA0809171078F5F809371070895CF92DF92BF
S1131CB0EF92FF920F931F93CF93DF93809171075D
S1131CC0811199C0E0907C07F0907D078FEFE81AAE
S1131CD0F80AF0927D07E0927C07E114F104B9F46C
S1131CE080919407909195072091920730919307E2
S1131CF030939507209394079093930780939207CA
S1131D00809177078F5F809377070E94AC0C809156
S1131D10740790917507E816F90610F4D12C53C096
S1131D20D12CCC24C394E0919407F0919507908131
S1131D30911107C08FEF9FEF9093750780937407FD
S1131D4042C0E0919407F09195070580F681E02D5B
S1131D50C681D7812A813B81E216F30628F43093A9
S1131D607507209374072FC08E010E5F1F4FC801A3
S1131D700E9432068C899D89892B21F0CE010C9614
S1131D800E9432062E8980917B07821710F42093DB
S1131D907B0730E0C901880F991F880F991F880FAE
S1131DA0991F820F931FB8018855984F0E94E00530
S1131DB0E091CC07F091CD079E898689981708F4A5
S1131DC0B2CFDC2CB0CFE091CC07F091CD0786895F
S1131DD090E0FC01EE0FFF1FEE0FFF1FEE0FFF1F41
S1131DE08E0F9F1FFC01E855F84F8081823048F028
S1131DF0DD24D39406C0809179078F5F809379079F
S1131E00D12C80917807882311F0DD24D3948D2D73
S1131E10DF91CF911F910F91FF90EF90DF90CF90C2
S1131E200895DF92EF92FF920F931F93CF93DF9366
S1131E300FB6F8940F9280917107815080937107C7
S1131E408091710781115FC080917E07811133C039
S1131E505DC0D7011596ED91FC911697C681D78187
S1131E60CE010C960E9432068E010E5F1F4FC801F0
S1131E700E9432062E8980917B07821710F42093EA
S1131E807B0730E0C901880F991F880F991F880FBD
S1131E90991F820F931FB8018855984F0E94E0053F
S1131EA0E091CC07F091CD079E898689981768F058
S1131EB0D09278070AC0C0E0D0E00F2EF9E8EF2EE8
S1131EC0F7E0FF2EF02DDD24D394F70180818111FA
S1131ED0C0CFCD2B11F00E94AC0CC0917907CC235C
S1131EE051F0D1E00E94560E8111D0937807C15071
S1131EF0C9F71092790780917807882331F00E94FE
S1131F00FE0681E003C080E001C080E00F900FBEB8
S1131F10DF91CF911F910F91FF90EF90DF90089583
S1131F20CF93DF93EC01892B51F00E94500E60E0B7
S1131F30CE010E94CB0C0E94110F811102C00E949D
S1131F40FE06DF91CF91089500E817E00F2EF8EA1E
S1131F50EF2EF7E0FF2EF02D29C00E94500ED8017D
S1131F60CC910E94110FCC2309F10FB6F8940F9273
S1131F70D8011596ED91FC911697C681D781CE01B3
S1131F8002960E94320680917E07815080937E07DC
S1131F9080917F07815080937F070F900FBE8F89B8
S1131FA0988D0E94EB07CE010E94EB0780917F077A
S1131FB08111D3CFF7018081823010F00E94FE0698
S1131FC00E94AD04F3CF009721F48091CC07909147
S1131FD0CD070FB6F8940F92FC0176A365A30F907A
S1131FE00FBE089580917107882321F081E08093CA
S1131FF07807089510927807E091CC07F091CD0707
S113200085A10E94870520917B07822F90E0FC0127
S1132010EE0FFF1FEE0FFF1FEE0FFF1FE80FF91F5C
S1132020E855F84F3081311111C02150822F90E0D2
S1132030FC01EE0FFF1FEE0FFF1FEE0FFF1FE80F57
S1132040F91FE855F84F3081332379F3AC01440F7D
S1132050551F440F551F440F551F480F591FDA01D0
S1132060A855B84F1196ED91FC9112970280F38117
S1132070E02D1296FC93EE9311974555584FE417B3
S1132080F50729F442815381FD0152834183FC0108
S1132090EE0FFF1FEE0FFF1FEE0FFF1F8E0F9F1F90
S11320A0FC01E855F84F0180F281E02D868197818B
S11320B09093CD078093CC0720937B07E091CC07C6
S11320C0F091CD0785A10E947C050895CF93DF93FD
S11320D0EB012091CC073091CD07B901645F7F4FAC
S11320E00E94010661E0CE010E94CB0CDF91CF91EA
S11320F008950F931F93CF93DF93DC011596ED9111
S1132100FC911697C681D7818E01045F1F4FC801C9
S11321100E9432068091710781111CC00A50110976
S1132120C8010E9432062E8980917B07821710F421
S113213020937B0730E0C901880F991F880F991FEE
S1132140880F991F820F931FB8018855984F0E94DA
S1132150E00505C0B80189E897E00E94E005E09138
S1132160CC07F091CD079E898689891720F481E0F8
S11321708093780701C080E0DF91CF911F910F9188
S1132180089520917707FC01208320917C073091EA
S11321907D07328321830895CF93DF93FC010FB62B
S11321A0F8940F9220917C0730917D0780917707F6
S11321B09081981729F08181928128173907B0F40A
S11321C0A181B281EB0148815981C9018A1B9B0B12
S11321D08417950768F4CF01A21BB30B4A0F5B1F4A
S11321E0598348830E94C11080E003C081E001C08C
S11321F081E00F900FBEDF91CF91089581E080932D
S1132200780708950F931F93CF93DF93FC01892BD5
S113221009F455C02689A091CC07B091CD075696F4
S11322208C91281708F04BC084859585992364F018
S1132230A091CC07B091CD0756963C9184E090E0F4
S1132240831B91099587848730E0C901880F991F02
S1132250880F991F880F991F280F391F2855384F49
S1132260828593858217930719F58F01EF012296D2
S1132270CE010E943206E091CC07F091CD07268969
S1132280F801268B80917B07821710F420937B073B
S113229030E0C901880F991F880F991F880F991F73
S11322A0820F931FBE018855984F0E94E00507C016
S11322B0A091CC07B091CD0756968C91868BDF9177
S11322C0CF911F910F9108950F931F93CF93DF9395
S11322D0FC01892B79F184A1815084A3268993A1DF
S11322E0291751F181112AC0EF018F010E5F1F4F91
S11322F0C8010E9432062BA12E8B44E050E0421B01
S113230051095D874C8780917B07821710F42093D5
S11323107B0730E0C901880F991F880F991F880F28
S1132320991F820F931FB8018855984F0E94E005AA
S113233081E005C080E003C080E001C080E0DF915F
S1132340CF911F910F9108958091CC079091CD0763
S1132350892B39F0E091CC07F091CD0784A18F5FF0
S113236084A38091CC079091CD070895A1E21A2E01
S1132370AA1BBB1BFD010DC0AA1FBB1FEE1FFF1F25
S1132380A217B307E407F50720F0A21BB30BE40B75
S1132390F50B661F771F881F991F1A9469F76095BC
S11323A07095809590959B01AC01BD01CF01089576
S11323B0CF93DF938230910510F482E090E0E091B6
S11323C0D007F091D10720E030E0C0E0D0E03097B2
S11323D011F14081518148175907C0F04817590736
S11323E061F482819381209719F09B838A832BC0A7
S11323F09093D1078093D00726C02115310519F099
S11324004217530718F49A01BE01DF01EF0102805D
S1132410F381E02DDCCF2115310509F1281B390B9F
S11324202430310590F412968D919C911397611587
S1132430710521F0FB019383828304C09093D1073B
S11324408093D007FD01329644C0FD01E20FF31FD3
S113245081939193225031092D933C933AC020915A
S1132460CE073091CF07232B41F420910201309104
S113247003013093CF072093CE07209100013091C0
S113248001012115310541F42DB73EB740910401F6
S113249050910501241B350BE091CE07F091CF0735
S11324A0E217F307A0F42E1B3F0B2817390778F027
S11324B0AC014E5F5F4F2417350748F04E0F5F1F86
S11324C05093CF074093CE078193919302C0E0E0ED
S11324D0F0E0CF01DF91CF9108950F931F93CF9335
S11324E0DF93009709F48CC0FC01329713821282A7
S11324F00091D0071091D1070115110581F42081B5
S11325003181820F931F2091CE073091CF07281776
S1132510390779F5F093CF07E093CE0771C0D8015E
S113252040E050E0AE17BF0750F412962D913C9155
S11325301397AD012115310509F1D901F3CF9D019F
S1132540DA013383228360817181860F971F82179A
S1132550930769F4EC0128813981260F371F2E5F18
S11325603F4F318320838A819B8193838283452BD0
S113257029F4F093D107E093D00742C01396FC935B
S1132580EE931297ED01499159919E01240F351F45
S1132590E217F30771F480819181840F951F0296ED
S11325A011969C938E938281938113969C938E9320
S11325B01297E0E0F0E0D80112968D919C91139768
S11325C0009719F0F8018C01F6CF8D919C91980138
S11325D02E5F3F4F820F931F2091CE073091CF077C
S11325E02817390769F4309729F41092D10710920B
S11325F0D00702C0138212821093CF070093CE0734
S1132600DF91CF911F910F9108958F929F92AF9276
S1132610BF92CF92DF92EF92FF92CF93DF93EC01C0
S1132620688179818A819B81611571058105910594
S113263021F464E279ED8BE597E02DE133EF41E09D
S113264050E00E94711349015A019B01AC01A7EAB1
S1132650B1E40E9490136B017C01ACEEB4EFA501D0
S113266094010E949E13DC01CB018C0D9D1DAE1DB7
S1132670BF1DB7FF03C00197A109B04888839983A0
S1132680AA83BB839F77DF91CF91FF90EF90DF9078
S1132690CF90BF90AF909F908F9008950E940513A4
S11326A0089586E091E00E9405130895A0E0B0E04B
S11326B08093060190930701A0930801B093090148
S11326C00895FB01DC0102C001900D92415050407D
S11326D0D8F70895DC0101C06D9341505040E0F7F4
S11326E00895052E97FB1EF400940E94881357FD4D
S11326F007D00E94B61107FC03D04EF40C94881343
S113270050954095309521953F4F4F4F5F4F089519
S113271090958095709561957F4F8F4F9F4F089549
S11327200E94A313A59F900DB49F900DA49F800DAC
S1132730911D11240895B7FF0C9490130E949013D7
S1132740821B930B0895A29FB001B39FC001A39F66
S1132750700D811D1124911DB29F700D811D1124D6
S10B2760911D0895F894FFCFC8
S11327680000D20720000100000001000100C6009B
S1132778CE004F62737461636C657300446973704F
S11327886C617920757064617465720047616D6568
S1132798206C6F676963004A6F79737469636B208F
S11327A873616D706C6572005468656E207765207E
S11327B85374617274210A005374617274757000E1
S10927C849444C450000E9
S9030000FC
