S01100004669727374546573742E737265636B
S11300000C943E000C945B000C945B000C945B001D
S11300100C945B000C945B000C945B000C945B00F0
S11300200C945B000C945B000C945B000C945B00E0
S11300300C945B000C94A0060C945B000C945B0085
S11300400C94ED030C945B000C945B000C945B002B
S11300500C9496070C94D4070C945B000C945B00EE
S11300600C945B000C945B000C945B000C945B00A0
S11300700C941C080C945A080C945B0011241FBEA9
S1130080CFEFD8E0DEBFCDBF11E0A0E0B1E0ECE6F9
S1130090F2E202C005900D92AE33B107D9F727E022
S11300A0AEE3B1E001C01D92A03AB207E1F70E94AD
S11300B09F030C9434110C94000061E070E080E024
S11300C090E00E94E60D40E061E08EE10E948B0921
S11300D00E94D60381E00E945D0AE12CF12C05E028
S11300E020E030E045E550E06EE071E082E492E02B
S11300F00E94140B04E020E030E045E550E066E1A6
S113010071E08CE892E00E94140B6FE080E291E0D1
S11301100E941604FFCFEF92FF920F931F93CF9389
S1130120DF93C3EED2E04BEC51E00FEF12E061E05D
S113013070E0DE0119821882FA0180E090E02191DA
S113014031912130310579F4ED90FC9011979B01A8
S1130150082E02C0220F331F0A94E2F72E293F29EA
S113016011963C932E9301968A30910541F722967D
S11301704C5E5F4FC017D107E1F6DF91CF911F911D
S11301800F91FF90EF9008958130910509F462C0BA
S113019040F08230910509F4BCC0039709F416C1FC
S11301A00895DB0112962D913C911397C901019694
S11301B08A30910508F065C14D915C91DA01AA0F6E
S11301C0BB1FFA01EE0FFF1FEE0FFF1FEE0FFF1F05
S11301D0EA0FFB1FE80FF91FEE0FFF1FE553FE4F59
S11301E080819181892B09F04CC1FD01440F551F79
S11301F0440F551F440F551FE40FF51FE20FF31F63
S1130200EE0FFF1FE553FE4F11821082FB01208188
S1130210318182819381019693838283F901EE0F68
S1130220FF1F220F331F220F331F220F331FE20F32
S1130230F31FE80FF91FEE0FFF1FE553FE4F81E098
S113024090E0918380830E948B0088EC90E00E9470
S1130250930D0895DB0112962D913C91139721156E
S1130260310509F40EC14D915C911197FA01EE0F1D
S1130270FF1FCA01880F991F880F991F880F991FA4
S1130280E80FF91FC9010197E80FF91FEE0FFF1FCF
S1130290E553FE4F80819181892B09F0F2C0FA0168
S11302A0EE0FFF1F440F551F440F551F440F551FDA
S11302B0E40FF51FE20FF31FEE0FFF1FE553FE4F90
S11302C01182108212968D919C9113970197139627
S11302D09C938E9312972D913C91F901EE0FFF1F81
S11302E0220F331F220F331F220F331FE20FF31F7E
S11302F0E80FF91FEE0FFF1FE553FE4F81E090E07A
S1130300918380830E948B0088EC90E00E94930D7F
S11303100895FB0120813181C90101968E30910538
S113032008F0AFC042815381FC01EE0FFF1F880F1C
S1130330991F880F991F880F991FE80FF91FE40F61
S1130340F51FEE0FFF1FE553FE4F80819181892B2E
S113035009F097C0C901880F991F220F331F220F7C
S1130360331F220F331F280F391FF901E40FF51F24
S1130370EE0FFF1FE553FE4F11821082DB018D91BA
S11303809C911197019611969C938E931296ED91E0
S1130390FC9113979C01220F331F880F991F880F1C
S11303A0991F880F991F820F931FE80FF91FEE0FF3
S11303B0FF1FE553FE4F81E090E0918380830E940C
S11303C08B0088EC90E00E94930D0895FB0120813E
S11303D031812115310509F454C042815381C90189
S11303E00197FC01EE0FFF1F880F991F880F991FBB
S11303F0880F991FE80FF91FE40FF51FEE0FFF1F79
S1130400E553FE4F80819181892BD9F5C901880F6D
S1130410991F220F331F220F331F220F331F280F60
S1130420391FF901E40FF51FEE0FFF1FE553FE4FCF
S113043011821082DB018D919C9111970197119685
S11304409C938E931296ED91FC9113979C01220F2D
S1130450331F880F991F880F991F880F991F820FC8
S1130460931FE80FF91FEE0FFF1FE553FE4F81E0C6
S113047090E0918380830E948B0088EC90E00E943E
S1130480930D089562E070E080E090E00E94E60D34
S1130490EBECF1E023EE32E009C011921192E8177F
S11304A0F907D9F7FC012817390719F0CF01449649
S11304B0F4CFE8E9F7E086E090E09183808389E077
S11304C090E09383828381E090E09093560280933E
S11304D055020E948B00309906C068E977E080E0FD
S11304E090E00E94C400319906C068E977E082E098
S11304F090E00E94C400369906C068E977E081E084
S113050090E00E94C4003799E6CF68E977E083E081
S113051090E00E94C400DFCF0F2EF8E96F2EF7E0C1
S11305207F2EF02D0F2EFBECEF2EF1E0FF2EF02DA1
S11305300F2EFBECAF2EF1E0BF2EF02D442443949C
S1130540512CD3018D919C9111979C01220F331F43
S1130550880F991F880F991F880F991F820F931F67
S11305601296ED91FC9113978E0F9F1FFC01E25C94
S1130570FE4F808181118EC0CFE3D1E06DEC71E03C
S1130580AE010EC0819190E08D939D93E217F30725
S1130590C9F7465F5F4F6C5E7F4F4E155F0531F0C4
S11305A09A01275F3F4FDB01FA01ECCF0F2EFFEDDD
S11305B08F2EF1E09F2EF02D01E010E0C12CD12C04
S11305C00E94D31081709078992324F401978E6F40
S11305D09F6F0196F50191838083F2E0CF16D104D9
S11305E024F00D301105D9F45CC00E94D310817041
S11305F09078992324F401978E6F9F6F0196D4010C
S11306008D939C93019719F4BFEFCB1ADB0AC801B1
S113061083709927892B31F4C12CD12C03C0F401A8
S1130620118210820F5F1F4FF4E18F0E911C0E3068
S1130630110531F64BEC51E00CC0808132968D935C
S11306402A173B07D1F74C5E5F4F2A96CE15DF057C
S113065031F09E01275F3F4FDE01FA01EECFD30157
S11306608D919C911197FC01EE0FFF1F880F991F2C
S1130670880F991F880F991FE80FF91F12968D9103
S11306809C911397E80FF91FEE0FFF1FE553FE4FE0
S1130690518240820E948B0080E496E00E94930D78
S11306A050CF0E94D31081709078992324F401973D
S11306B08E6F9F6F0196F40191838083019709F0F7
S11306C0B1CFA2CF5A9A08955D9A5D985C9A5C98CE
S11306D05A980895809582B985B1836085B985B1AA
S11306E093709095892385B90895CF93C0913E0165
S11306F0C1110EC00E9462038091E3029091E40252
S11307000E946A030E94640381E080933E0114C046
S1130710EC2FF0E0EE0FFF1FED51FD4F8081918132
S11307200E946A030E946403CF5FCE3018F4C09322
S11307303E0102C010923E01CF91089508950E9497
S11307401F045E98E12CF12C00E020E030E045E548
S113075050E060E371E08DE590E00E94140B85E7C2
S113076093E00E94DB0378940E94290CFFCFCF937F
S1130770DF9300D0CDB7DEB76A83809147039091B1
S11307804803009771F0198220E0AE014F5F5F4F7C
S1130790BE016E5F7F4F0E94770A898181110E949A
S11307A0EB050F900F90DF91CF910895909348033C
S11307B080934703089590934603809345038AE00A
S11307C087BD84B5826084BDEEE6F0E080818260FE
S11307D0808385B5856085BD08951F920F920FB6FD
S11307E00F9211242F933F934F935F936F937F93B3
S11307F08F939F93AF93BF93EF93FF93E091450340
S1130800F0914603309709F00995FF91EF91BF915C
S1130810AF919F918F917F916F915F914F913F9194
S11308202F910F900FBE0F901F901895462FBC016B
S11308308091490390914A030E94530708958F922F
S11308409F92AF92BF92CF92DF92EF920F9382E288
S113085093E00E9478048FEF92E00E9478040F2EB8
S1130860F7EB8F2EF3E09F2EF02D0F2EFFEFAF2E20
S1130870F2E0BF2EF02D0F2EF2E2CF2EF3E0DF2EAA
S1130880F02DE12C00E023E040E052EC61E070E068
S113089080E00E94D90690934A038093490388B16B
S11308A0836C88B95B9A8AB184678AB95E9A81B18C
S11308B08FEF81B984B1836084B984B18C6384B9C6
S11308C00F91EF90DF90CF90BF90AF909F908F905B
S11308D0089595B1937C95B925B134E0839FC00107
S11308E01124822B85B9089585B1837C85B9089537
S11308F0FC0110A211A212A20895FC0182A1882376
S1130900D9F081A1DF01A80FB11D8C91DB018C937B
S113091021A130E02F5F3F4F2F713078332334F41F
S113092021503109206E3F6F2F5F3F4F21A382A1D9
S1130930815082A380E0089581E00895FC0142A1E2
S11309404032B8F420A130E0E20FF31F60832F5F40
S11309503F4F2F713078332334F421503109206E06
S11309603F6F2F5F3F4FFC0120A34F5F42A380E006
S1130970089582E00895FC010396928381832FEF0A
S11309803FEF348323839683858390878783108204
S11309900895FC01118610860895CF93DF939C017E
S11309A0FB01DC011196CD91DC911297D383C283B4
S11309B08C819D81958384838C819D81DC01139638
S11309C07C936E9312977D836C8331872087F90122
S11309D080818F5F8083DF91CF910895CF93DF93E0
S11309E0EB01488159814F3F2FEF520721F4FC015D
S11309F0A781B0850DC0DC01139601C0DF011296FA
S1130A00ED91FC9113972081318142175307B0F780
S1130A101296ED91FC911397FB83EA83D583C483EB
S1130A20BD83AC831396DC93CE9312979987888702
S1130A30FC0120812F5F2083DF91CF910895CF9314
S1130A40DF93FC01A085B185C281D3818481958126
S1130A509D838C83C481D581828193819B838A8386
S1130A6011968D919C911297E817F90731F48481BE
S1130A70958112969C938E931197118610868C9172
S1130A8081508C93DF91CF91089531E1FC01308343
S1130A90319722E220833197A3E3A08331976083C7
S1130AA03197708331971082319760E86083319772
S1130AB01082319762E06083319763E060833197FD
S1130AC064E06083319765E06083319766E060831A
S1130AD0319767E06083319768E06083319769E01C
S1130AE06083319760E1608331973083319732E1DD
S1130AF03083319733E13083319734E13083319758
S1130B0035E13083319736E13083319737E13083F3
S1130B10319738E13083319739E13083319730E2CE
S1130B203083319731E2308331972083319723E248
S1130B3020833197408331975083319726E2208375
S1130B40319727E22083319728E22083319729E2E5
S1130B502083319720E32083319721E320838697F4
S1130B6008951092890085EE809388008BE080932D
S1130B708100EFE6F0E0808182608083A091960797
S1130B80B0919707CD91CDBFDD91DEBFFF91EF917D
S1130B90DF91CF91BF91AF919F918F917F916F9191
S1130BA05F914F913F912F911F910F91FF90EF9083
S1130BB0DF90CF90BF90AF909F908F907F906F9079
S1130BC05F904F903F902F901F900F900FBE0F900B
S1130BD0089581E008950F920FB6F8940F921F9232
S1130BE011242F923F924F925F926F927F928F9235
S1130BF09F92AF92BF92CF92DF92EF92FF920F93A8
S1130C001F932F933F934F935F936F937F938F9390
S1130C109F93AF93BF93CF93DF93EF93FF93A091F1
S1130C209607B09197070DB60D920EB60D920E94DD
S1130C30F50DA0919607B0919707CD91CDBFDD91A9
S1130C40DEBFFF91EF91DF91CF91BF91AF919F9163
S1130C508F917F916F915F914F913F912F911F9150
S1130C600F91FF90EF90DF90CF90BF90AF909F9047
S1130C708F907F906F905F904F903F902F901F9038
S1130C800F900FBE0F9008950F920FB6F8940F9225
S1130C901F9211242F923F924F925F926F927F92F4
S1130CA08F929F92AF92BF92CF92DF92EF92FF9278
S1130CB00F931F932F933F934F935F936F937F9360
S1130CC08F939F93AF93BF93CF93DF93EF93FF9350
S1130CD0A0919607B09197070DB60D920EB60D929E
S1130CE00E94590C81110E94F50DA0919607B091B4
S1130CF09707CD91CDBFDD91DEBFFF91EF91DF91DD
S1130D00CF91BF91AF919F918F917F916F915F919F
S1130D104F913F912F911F910F91FF90EF90DF9092
S1130D20CF90BF90AF909F908F907F906F905F9087
S1130D304F903F902F901F900F900FBE0F900895EB
S1130D400E9444061895CF93DF93EC010E94530C44
S1130D5080914B0390914C03892B31F480E593E00F
S1130D6090934C0380934B0320914D0330914E0399
S1130D70C9018C0F9D1F873E43E0940770F4281728
S1130D80390770F4C0914B03D0914C03C20FD31FA9
S1130D9090934E0380934D0305C0C0E0D0E002C0A1
S1130DA0C0E0D0E00E94140DCE01DF91CF910895F0
S1130DB008954F925F926F927F928F929F92AF921B
S1130DC0BF92CF92DF92FF920F931F93CF93DF9343
S1130DD0CDB7DEB7F82E2A013B0188E090E00E94EF
S1130DE0660F8C018F2D90E0880F991FFC01E95C40
S1130DF0F84F11830083FC01E65FFE4F80819181EF
S1130E00D80111969C938E931396BC92AE9212972E
S1130E101596DC92CE92149717969C928E92169702
S1130E20FFB6F894ED91FC9111973697808182601A
S1130E308083CD90DC90D301C201880F991FAA1F33
S1130E40BB1F880F991FAA1FBB1F9C01AD01220F56
S1130E50331F441F551F60E070E081EE90E00E9454
S1130E60440F2150F60132972083D801ED91FC9173
S1130E701197359788E98083ED91FC91349786E04A
S1130E808083FFBEC801DF91CF911F910F91FF9026
S1130E90DF90CF90BF90AF909F908F907F906F9096
S1130EA05F904F900895EF92FF920F931F93CF930B
S1130EB0DF93FC01A281B381109779F0E42FF0E075
S1130EC092965C9120E230E0251B31092E173F07F2
S1130ED01CF17C01411104C016C04230F8F4F9CF72
S1130EE0EB014150042F10E00F5F1F4F060F171F37
S1130EF06991D70112968D919C9113970E949E043B
S1130F00C017D107A9F7D701ED91FC9135978081DE
S1130F108062808380E003C082E001C082E0DF91D0
S1130F20CF911F910F91FF90EF9008951F920F9210
S1130F300FB60F9211242F933F934F935F936F93A8
S1130F407F938F939F93AF93BF93CF93EF93FF932D
S1130F50E0913707F09138073097A1F0C091C600AF
S1130F606C2F848195810E949E0480913707909113
S1130F703807DC011696ED91FC911797309711F024
S1130F806C2F0995FF91EF91CF91BF91AF919F91F4
S1130F908F917F916F915F914F913F912F910F901E
S1130FA00FBE0F901F9018951F920F920FB60F92BD
S1130FB011242F933F934F935F936F937F938F935A
S1130FC09F93AF93BF93EF93FF93CF93DF931F92BE
S1130FD0CDB7DEB7E0913707F0913807309799F035
S1130FE0BE016F5F7F4F828193810E947D048111D6
S1130FF004C089818093C6000BC0E1ECF0E08081DD
S11310008F7D808305C0E1ECF0E080818F7D80835B
S11310100F90DF91CF91FF91EF91BF91AF919F918D
S11310208F917F916F915F914F913F912F910F908D
S11310300FBE0F901F9018951F920F920FB60F922C
S113104011242F933F934F935F936F937F938F93C9
S11310509F93AF93BF93CF93EF93FF93E09139079F
S1131060F0913A073097A1F0C091CE006C2F8481A3
S113107095810E949E048091390790913A07DC0182
S11310801696ED91FC911797309711F06C2F0995F6
S1131090FF91EF91CF91BF91AF919F918F917F91EC
S11310A06F915F914F913F912F910F900FBE0F90D1
S11310B01F9018951F920F920FB60F9211242F9321
S11310C03F934F935F936F937F938F939F93AF93CC
S11310D0BF93EF93FF93CF93DF931F92CDB7DEB708
S11310E0E0913907F0913A07309799F0BE016F5FAC
S11310F07F4F828193810E947D04811104C0898184
S11311008093CE000BC0E9ECF0E080818F7D80837A
S113111005C0E9ECF0E080818F7D80830F90DF9142
S1131120CF91FF91EF91BF91AF919F918F917F915B
S11311306F915F914F913F912F910F900FBE0F9040
S11311401F9018950F931F93CF93DF93EC01042FF7
S11311501A8D4C8D41110CC088819981892B09F01D
S113116042C08A819B810E94040F1B821A8242C062
S1131170011117C050E08C819D810E94E3102C8DD9
S11311808C819D81820F911D9D838C832A813B815B
S11311908217930750F1888199819D838C8380E025
S11311A029C050E08E819F810E94E3108C8D90E0D5
S11311B09195819591092E813F81280F391F3F8395
S11311C02E83488159812417350730F42A813B81C5
S11311D0820F931F9F838E83023049F4112349F0B9
S11311E0115080E007C080E005C080E003C080E0CB
S11311F001C080E01F5F1A8FDF91CF911F910F9183
S11312000895EF92FF920F931F93CF938C010FB623
S1131210F8940F92FC01C68D1C16ACF481898111DF
S113122006C011C0F8018189811105C00CC0780184
S1131230F1E1EF0EF11CC7010E947B0E81110E94A7
S1131240000FC15079F78FEFF801868F0F900FBE12
S11312500FB6F8940F92C58D1C16ACF480858111DD
S113126006C011C0F8018085811105C00CC0780149
S1131270F8E0EF0EF11CC7010E947B0E81110E9461
S1131280000FC15079F78FEFF801858F0F900FBED3
S1131290CF911F910F91FF90EF900895CF93DF931B
S11312A0EC010FB6F8940F92488159812C8D30E0EF
S11312B07B8D729FC001739F900D1124FA01E80F7A
S11312C0F91FFB83EA831A8E5D834C83821B930B85
S11312D0840F951F9F838E838FEF8D8F8E8F611167
S11312E00CC08885882389F0CE0108960E947B0E65
S11312F0882359F00E94EB0508C0CE0108960E948D
S1131300BB04CE0141960E94BB040F900FBE81E046
S1131310DF91CF910895FF920F931F93CF93DF93A3
S1131320082F162FF42E6623C9F0869FC0011124BE
S113133081960E94A306EC01009749F416C00B8F16
S11313401C8F61E0CE010E944E09F8A20EC0819666
S113135099838883F4CFD983C883F1CF81E290E065
S11313600E94A306EC01892BB1F7CE01DF91CF9146
S11313701F910F91FF9008959F92AF92BF92CF92C9
S1131380DF92EF92FF920F931F93CF93DF9300D0DE
S113139000D01F92CDB7DEB78C016B015D834C8307
S11313A0A22EB12C992493947C0188E0E80EF11CC0
S11313B00FB6F8940F92F801928D838D981718F058
S11313C0F2E0AF1219C04A2DB601C8010E94A2086A
S11313D0F8019189992349F0C80141960E947B0E36
S11313E0882331F00E94EB0503C081110E94EB05B4
S11313F00F900FBE81E050C08C819D81892B21F418
S11314000F900FBE80E048C0B11005C0CE01019618
S11314100E94C30EB92C0F900FBE0E94530C0FB63E
S1131420F8940F92F801858D8F3F09F4158EF80119
S1131430868D8F3F09F4168E0F900FBEBE016C5F30
S11314407F4FCE0101960E94CE0E81111FC00FB6B0
S1131450F8940F92F801928D0F900FBE838D98131C
S11314600FC06C817D81C7010E94690EC8010E9472
S113147001090E94140D81119BCF0E94EB0598CFA6
S1131480C8010E9401090E94140D92CFC8010E9454
S113149001090E94140D80E00F900F900F900F909F
S11314A00F90DF91CF911F910F91FF90EF90DF90FC
S11314B0CF90BF90AF909F900895CF93DF93482F24
S11314C060E081E00E948B09EC01009761F01B82CF
S11314D01A82198218821E8220E040E050E060E007
S11314E070E00E94BC09CE01DF91CF910895EF9284
S11314F0FF920F931F93CF93DF938A01FC01528DC8
S1131500338D531710F02230F1F4422F7801EC019F
S11315101E8D0E94A2081F3F81F489898823A9F0A7
S1131520CE0141960E947B0E882389F0E114F104D8
S113153081F081E0F70180830DC0FF24F394F10E64
S1131540FE8E81E007C080E005C081E003C081E039
S113155001C081E0DF91CF911F910F91FF90EF9037
S11315600895E0915E07F0915F078081811107C0C3
S11315708FEF9FEF90933F0780933E070895E0918C
S11315805E07F0915F070580F681E02D0680F78104
S1131590E02D8281938190933F0780933E070895C5
S11315A00F931F93CF93DF93EC01009146071091A3
S11315B04707809196079091970702960E941F050E
S11315C0C00FD11FE0919607F0919707D383C28390
S11315D0C017D10768F460919607709197078091BE
S11315E05C0790915D076E5F7F4F0E94EE0417C009
S11315F0609196077091970780915E0790915F07BD
S11316006E5F7F4F0E94EE0480913E0790913F07EA
S1131610C817D90720F4D0933F07C0933E07DF9142
S1131620CF911F910F9108954F925F926F927F9285
S11316308F929F92AF92BF92CF92DF92EF92FF92DE
S11316400F93CF93DF934C016B015A012901CA0117
S11316500E94A3063C01892B09F4EAC08CE290E0C5
S11316600E94A306EC01892BB1F0788E6F8AA50144
S113167065EA70E0C3010E94EC1081E0A81AB10889
S11316808F89988DA80EB91ED6018C91898F8C9163
S1131690811105C018C0C3010E94D806C9C0AE019B
S11316A0465E5F4FF6013196B8E0CB0ED11CCF01F8
S11316B02191DA012D93AD01DC018C91882319F07D
S11316C0EC15FD05A1F718A2043008F003E00E8B19
S11316D00BA31CA26E01B2E0CB0ED11CC6010E946A
S11316E0C904CE010C960E94C904D987C88784E036
S11316F090E0801B91099D878C87DB8BCA8B1EA28F
S11317001DA21FA218A619A61AA61BA6A201B401FF
S1131710C5010E94450599838883E114F10419F0F9
S1131720F701D183C0830FB6F8940F9280914807D4
S11317308F5F809348078091960790919707892B34
S1131740A9F5D0939707C0939607809148078130F5
S1131750E9F582E797E00E94BB048BE797E00E94DB
S1131760BB0484E897E00E94BB048DE897E00E94E4
S1131770BB0489E697E00E94BB0480E697E00E94E0
S1131780BB0483E597E00E94BB048AE497E00E94CF
S1131790BB0489E697E090935F0780935E0780E639
S11317A097E090935D0780935C0710C08091440795
S11317B081110CC0E0919607F091970796898E8964
S11317C0891720F0D0939707C0939607809140071C
S11317D08F5F8093400789A38E899091450798175E
S11317E010F48093450790E09C01220F331F220FD1
S11317F0331F220F331F820F931FB6018E58984F49
S11318000E94CD040F900FBE80914407882361F09D
S1131810E0919607F091970796898E89981730F48E
S11318200E94EB0581E005C081E003C081E001C0B6
S11318308FEFDF91CF910F91FF90EF90DF90CF90DA
S1131840BF90AF909F908F907F906F905F904F90DC
S11318500895EF92FF920F930F2EFCE3EF2EF7E023
S1131860FF2EF02D00E020E030E045E550E068E395
S113187071E087EA9DE00E94140B813081F4F894B2
S11318808FEF9FEF90933F0780933E0781E0809313
S1131890440710924707109246070E94B1050F9122
S11318A0FF90EF90089580913B078F5F80933B07F3
S11318B00895CF92DF92EF92FF920F931F93CF93ED
S11318C0DF9380913B07811199C0E0904607F09027
S11318D047078FEFE81AF80AF0924707E0924607A5
S11318E0E114F104B9F480915E0790915F072091AF
S11318F05C0730915D0730935F0720935E079093F8
S11319005D0780935C07809141078F5F8093410757
S11319100E94B10A80913E0790913F07E816F906AC
S113192010F4D12C53C0D12CCC24C394E0915E0785
S1131930F0915F078081811107C08FEF9FEF909333
S11319403F0780933E0742C0E0915E07F0915F0736
S11319500580F681E02DC681D7818A819B81E816B6
S1131960F90628F490933F0780933E072FC08E0119
S11319700E5F1F4FC8010E941F058C899D89892B0A
S113198021F0CE010C960E941F058E899091450787
S1131990981710F48093450790E09C01220F331FA1
S11319A0220F331F220F331F820F931FB8018E584B
S11319B0984F0E94CD04E0919607F09197079E8975
S11319C08689981708F4B2CFDC2CB0CFE091960743
S11319D0F0919707868990E0FC01EE0FFF1FEE0F50
S11319E0FF1FEE0FFF1F8E0F9F1FFC01EE58F84FD5
S11319F08081823048F0DD24D39406C0809143076F
S1131A008F5F80934307D12C80914207882311F084
S1131A10DD24D3948D2DDF91CF911F910F91FF90F1
S1131A20EF90DF90CF900895DF92EF92FF920F93A3
S1131A301F93CF93DF930FB6F8940F9280913B07D7
S1131A40815080933B0780913B0781115FC0809157
S1131A504807811133C05DC0D7011596ED91FC9103
S1131A601697C681D781CE010C960E941F058E0160
S1131A700E5F1F4FC8010E941F058E899091450774
S1131A80981710F48093450790E09C01220F331FB0
S1131A90220F331F220F331F820F931FB8018E585A
S1131AA0984F0E94CD04E0919607F09197079E8984
S1131AB08689981768F0D09242070AC0C0E0D0E047
S1131AC00F2EF3E5EF2EF7E0FF2EF02DDD24D39457
S1131AD0F70180818111C0CFCD2B11F00E94B10A92
S1131AE0C0914307CC2351F0D1E00E94590C8111DD
S1131AF0D0934207C150C9F710924307809142071F
S1131B00882331F00E94EB0581E003C080E001C02E
S1131B1080E00F900FBEDF91CF911F910F91FF9046
S1131B20EF90DF900895CF93DF93EC01892B51F070
S1131B300E94530C60E0CE010E94D00A0E94140D52
S1131B40811102C00E94EB05DF91CF9108950AE450
S1131B5017E00F2EF2E7EF2EF7E0FF2EF02D29C04D
S1131B600E94530CD801CC910E94140DCC2309F18E
S1131B700FB6F8940F92D8011596ED91FC91169733
S1131B80C681D781CE0102960E941F058091480725
S1131B908150809348078091490781508093490779
S1131BA00F900FBE8F89988D0E94D806CE010E9497
S1131BB0D806809149078111D3CFF7018081823003
S1131BC010F00E94EB050E949E03F3CF009721F4CE
S1131BD080919607909197070FB6F8940F92FC01A5
S1131BE076A365A30F900FBE089580913B078823C9
S1131BF021F081E080934207089510924207E0911A
S1131C009607F091970785A10E94740420914507D7
S1131C10822F90E0FC01EE0FFF1FEE0FFF1FEE0F6F
S1131C20FF1FE80FF91FEE58F84F3081311111C032
S1131C302150822F90E0FC01EE0FFF1FEE0FFF1FDB
S1131C40EE0FFF1FE80FF91FEE58F84F30813323D2
S1131C5079F3AC01440F551F440F551F440F551F12
S1131C60480F591FDA01AE58B84F1196ED91FC9107
S1131C7012970280F381E02D1296FC93EE93119754
S1131C804B58584FE417F50729F442815381FD015D
S1131C9052834183FC01EE0FFF1FEE0FFF1FEE0F77
S1131CA0FF1F8E0F9F1FFC01EE58F84F0180F28139
S1131CB0E02D8681978190939707809396072093D0
S1131CC04507E0919607F091970785A10E94690462
S1131CD00895CF93DF93EB01609196077091970776
S1131CE0645F7F4F0E94EE0461E0CE010E94D00A3F
S1131CF0DF91CF9108950F931F93CF93DF93DC016E
S1131D001596ED91FC911697C681D7818E01045FDB
S1131D101F4FC8010E941F0580913B0781111CC001
S1131D200A501109C8010E941F058E899091450728
S1131D30981710F48093450790E09C01220F331FFD
S1131D40220F331F220F331F820F931FB8018E58A7
S1131D50984F0E94CD0405C0B80183E597E00E9426
S1131D60CD04E0919607F09197079E89868989179B
S1131D7020F481E08093420701C080E0DF91CF919D
S1131D801F910F91089520914107FC012083209118
S1131D90460730914707328321830895CF93DF9319
S1131DA0FC010FB6F8940F92209146073091470733
S1131DB0809141079081981729F081819281281799
S1131DC03907B0F4A181B281EB0148815981C9017D
S1131DD08A1B9B0B8417950768F4CF01A21BB30BD6
S1131DE04A0F5B1F598348830E94C30E80E003C0DF
S1131DF081E001C081E00F900FBEDF91CF91089583
S1131E0081E08093420708950F931F93CF93DF934C
S1131E10FC01892B79F184A1815084A3268993A1A3
S1131E20291751F181112AC0EF018F010E5F1F4F55
S1131E30C8010E941F058BA18E8B24E030E0281B73
S1131E4031093D872C8790914507981710F48093AA
S1131E50450790E09C01220F331F220F331F220FEE
S1131E60331F820F931FB8018E58984F0E94CD04E0
S1131E7081E005C080E003C080E001C080E0DF9124
S1131E80CF911F910F910895A1E21A2EAA1BBB1B9B
S1131E90FD010DC0AA1FBB1FEE1FFF1FA217B30732
S1131EA0E407F50720F0A21BB30BE40BF50B661F48
S1131EB0771F881F991F1A9469F76095709580950C
S1131EC090959B01AC01BD01CF0108950F931F9321
S1131ED0CF93DF938230910510F482E090E0E0919B
S1131EE09E07F0919F0720E030E0A0E0B0E030973B
S1131EF019F1408151810281138148175907C8F0B3
S1131F008417950769F4109731F012960C93129781
S1131F1013961C9327C000939E0710939F0722C01B
S1131F202115310519F04217530718F49A01BD0120
S1131F30EF01DF01F801DBCF21153105F9F0281B92
S1131F40390B2430310580F48A819B816115710538
S1131F5021F0FB019383828304C090939F078093B5
S1131F609E07FE01329644C0FE01E20FF31F8193E7
S1131F70919322503109398328833AC020919C07D8
S1131F8030919D07232B41F42091020130910301EC
S1131F9030939D0720939C0720910001309101010B
S1131FA02115310541F42DB73EB7409104015091FC
S1131FB00501241B350BE0919C07F0919D07E21766
S1131FC0F307A0F42E1B3F0B2817390778F0AC0158
S1131FD04E5F5F4F2417350748F04E0F5F1F509335
S1131FE09D0740939C078193919302C0E0E0F0E049
S1131FF0CF01DF91CF911F910F910895CF93DF937C
S1132000009709F481C0FC01329713821282A091D7
S11320109E07B0919F07109781F420813181820F30
S1132020931F20919C0730919D072817390751F57C
S1132030F0939D07E0939C0767C0ED0120E030E03A
S1132040CE17DF0740F44A815B819E01411551059B
S1132050F1F0EA01F5CFD383C28340815181840F2B
S1132060951FC817D90759F488819981840F951F42
S11320700296918380838A819B8193838283211535
S1132080310529F4F0939F07E0939E073DC0E901D1
S1132090FB83EA8349915991C40FD51FEC17FD07BF
S11320A061F480819181840F951F0296E9019983DF
S11320B08883828193819B838A83E0E0F0E0129697
S11320C08D919C911397009719F0FD01DC01F7CFD6
S11320D08D919C9111979D012E5F3F4F820F931F0D
S11320E020919C0730919D072817390769F4309790
S11320F029F410929F0710929E0702C01382128245
S1132100B0939D07A0939C07DF91CF9108958F9280
S11321109F92AF92BF92CF92DF92EF92FF92CF93B2
S1132120DF93EC01688179818A819B816115710556
S11321308105910521F464E279ED8BE597E02DE1C9
S113214033EF41E050E00E94F31049015A019B0132
S1132150AC01A7EAB1E40E9412116B017C01ACEE60
S1132160B4EFA50194010E942011DC01CB018C0D78
S11321709D1DAE1DBF1DB7FF03C00197A109B04847
S113218088839983AA83BB839F77DF91CF91FF9044
S1132190EF90DF90CF90BF90AF909F908F90089575
S11321A00E948710089586E091E00E9487100895A8
S11321B0A0E0B0E08093060190930701A09308018A
S11321C0B09309010895FB01DC0102C001900D9256
S11321D041505040D8F70895DC0101C06D9341503F
S11321E05040E0F70895052E97FB1EF400940E94DA
S11321F00A1157FD07D00E94440F07FC03D04EF488
S11322000C940A1150954095309521953F4F4F4FAE
S11322105F4F089590958095709561957F4F8F4F8E
S11322209F4F08950E942511A59F900DB49F900D76
S1132230A49F800D911D11240895B7FF0C941211D1
S11322400E941211821B930B0895A29FB001B39FA9
S1132250C001A39F700D811D1124911DB29F700DAB
S10F2260811D1124911D0895F894FFCFF6
S113226C0000A007200001000000C600CE00416E53
S113227C6F74686572004F62737461636C6573008C
S113228C5468656E207765205374617274210A005A
S111229C537461727475700049444C4500001F
S9030000FC
