S01100004669727374546573742E737265636B
S11300000C943E000C945B000C945B000C945B001D
S11300100C945B000C945B000C945B000C945B00F0
S11300200C945B000C945B000C945B000C945B00E0
S11300300C945B000C945C070C945B000C945B00C8
S11300400C94A9040C945B000C945B000C945B006E
S11300500C9452080C9490080C945B000C945B0074
S11300600C945B000C945B000C945B000C945B00A0
S11300700C94D8080C9416090C945B0011241FBE30
S1130080CFEFD8E0DEBFCDBF11E0A0E0B1E0EAEBF6
S1130090F6E202C005900D92A236B107D9F727E027
S11300A0A2E6B1E001C01D92AC3CB207E1F70E94A8
S11300B057040C945B130C940000CF93DF9300D08F
S11300C000D0CDB7DEB70F2EF5EF6F2EF1E07F2E07
S11300D0F02D0F2EF3E1AF2EF3E0BF2EF02D3324DD
S11300E03394212C0F2EF9EF8F2EF1E09F2EF02D5B
S11300F00F2EF1E1CF2EF3E0DF2EF02D19821A82BC
S1130100D3018D919C9111979C01220F331F880F6D
S1130110991F880F991F880F991F820F931F12969A
S1130120ED91FC9113978E0F9F1FFC01EE59FE4F2A
S11301308081811196C00F2EF3E6EF2EF1E0FF2EA1
S1130140F02D4BEF51E0B7010EC08D9190E08193FB
S11301509193E217F307C9F7665F7F4F4C5E5F4FD9
S11301604A155B0531F09A012E5E3F4FFA01DB011F
S1130170ECCFEDE0F2E0432C522C00E010E0FC83E5
S1130180EB830E94FA1281709078992324F40197EA
S11301908E6F9F6F0196D4018D939C93023011054D
S11301A02CF0BDE04B165104D9F460C00E94FA1241
S11301B081709078992324F401978E6F9F6F019634
S11301C0EB81FC8191838083019711F40F5F1F4FB2
S11301D0C20183709927892B39F409811A8104C0DB
S11301E0AB81BC811D921C92BFEF4B1A5B0AEB8161
S11301F0FC817496FC83EB83FEE04F16510409F6F0
S1130200A4010EC0808132968D93E217F307D1F7D3
S11302104C5E5F4F8AE0E80EF11C4C155D0531F031
S11302209A012E5E3F4FD701FA01ECCFD3018D9195
S11302309C911197FC01EE0FFF1F880F991F880FE7
S1130240991F880F991FE80FF91F12968D919C91A1
S11302501397E80FF91FEE0FFF1FE750FE4F308290
S1130260218288EE93E00E94390F4ACF0E94FA124D
S113027081709078992324F401978E6F9F6F019673
S1130280EB81FC8191838083019709F0B9CF9ECFE4
S1130290CF93DF9300D000D000D0CDB7DEB705EF09
S11302A011E06894AA24A1F8B12CCC24C394D12CD5
S11302B00F2EF3E0EF2EF12CF02DF80180819181C7
S11302C09C838B83828193819E838D8330990EC01E
S11302D01A82198220E04FEF5FEFBE016F5F7F4FFC
S11302E08091EF019091F0010E94940A31990EC01F
S11302F0BA82A98220E04FEF5FEFBE016F5F7F4FAC
S11303008091EF019091F0010E94940A36990EC0F9
S1130310DA82C98220E04FEF5FEFBE016F5F7F4F4B
S11303208091EF019091F0010E94940A37990EC0D8
S1130330FA82E98220E04FEF5FEFBE016F5F7F4FEB
S11303408091EF019091F0010E94940A84E690E07C
S11303500E94390FB2CFCF92DF92EF92FF920F93A8
S11303601F93CF93DF93C1E1D3E049EF51E001E163
S113037013E0C12CD12C61E070E0DE0119821882F7
S1130380FA018C2D9D2D219131912130310579F483
S1130390ED90FC9011979B01082E02C0220F331F91
S11303A00A94E2F72E293F2911963C932E93019645
S11303B08A30910541F722964C5E5F4F40175107F2
S11303C0E1F6DF91CF911F910F91FF90EF90DF90B5
S11303D0CF9008958130910509F462C040F08230D5
S11303E0910509F4BAC0039709F414C10895DB0117
S11303F012962D913C911397C90101968A3091056B
S113040008F063C14D915C91DA01AA0FBB1FFA0198
S1130410EE0FFF1FEE0FFF1FEE0FFF1FEA0FFB1F74
S1130420E80FF91FEE0FFF1FE750FE4F8081918107
S1130430892B09F04AC1FD01440F551F440F551F74
S1130440440F551FE40FF51FE20FF31FEE0FFF1FBC
S1130450E750FE4F11821082FB012081318182819D
S11304609381019693838283F901EE0FFF1F220F7C
S1130470331F220F331F220F331FE20FF31FE80F26
S1130480F91FEE0FFF1FE750FE4F81E090E09183CC
S113049080830E94AB0188EC90E00E94390F08959C
S11304A0DB0112962D913C9113972115310509F426
S11304B00CC14D915C911197FA01EE0FFF1FCA0117
S11304C0880F991F880F991F880F991FE80FF91F2C
S11304D0E20FF31FEE0FFF1FE950FE4F8081918161
S11304E0892B09F0F2C0FA01EE0FFF1F440F551FCC
S11304F0440F551F440F551FE40FF51FE20FF31F60
S1130500EE0FFF1FE750FE4F1182108212968D915D
S11305109C911397019713969C938E9312972D9108
S11305203C91F901EE0FFF1F220F331F220F331FDF
S1130530220F331FE20FF31FE80FF91FEE0FFF1F07
S1130540E750FE4F81E090E0918380830E94AB01ED
S113055088EC90E00E94390F0895FB0120813181DD
S1130560C90101968E30910508F0AFC042815381D4
S1130570FC01EE0FFF1F880F991F880F991F880F2A
S1130580991FE80FF91FE40FF51FEE0FFF1FE75047
S1130590FE4F80819181892B09F097C0C901880F92
S11305A0991F220F331F220F331F220F331F280FCF
S11305B0391FF901E40FF51FEE0FFF1FE750FE4F3F
S11305C011821082DB018D919C91119701961196F5
S11305D09C938E931296ED91FC9113979C01220F9C
S11305E0331F880F991F880F991F880F991F820F37
S11305F0931FE80FF91FEE0FFF1FE750FE4F81E036
S113060090E0918380830E94AB0188EC90E00E948B
S1130610390F0895FB01208131812115310509F439
S113062054C042815381C9010197FC01EE0FFF1FA1
S1130630880F991F880F991F880F991FE80FF91FBA
S1130640E40FF51FEE0FFF1FE750FE4F80819181ED
S1130650892BD9F5C901880F991F220F331F220F47
S1130660331F220F331F280F391FF901E40FF51F21
S1130670EE0FFF1FE750FE4F11821082DB018D91B8
S11306809C911197019711969C938E931296ED91DC
S1130690FC9113979C01220F331F880F991F880F19
S11306A0991F880F991F820F931FE80FF91FEE0FF0
S11306B0FF1FE750FE4F81E090E0918380830E940A
S11306C0AB0188EC90E00E94390F0895CF93DF933B
S11306D000D000D000D0CDB7DEB705EF11E00F2E6B
S11306E0F1EFEF2EF1E0FF2EF02D20E04FEF5FEF62
S11306F0BE016F5F7F4F8091EF019091F0010E94E6
S1130700890B882339F18B819C81F8012081318107
S11307108217930769F44D815E81228133814217E8
S1130720530731F4B80189819A810E94EA0112C009
S1130730F701208131818217930761F42D813E8175
S1130740828193812817390729F4B70189819A8115
S11307500E94EA0186E490E00E94390FC6CF0E940D
S1130760AB018CE390E00E94390FF9CFE9EFF1E09F
S113077021E133E009C011921192E817F907D9F782
S1130780FC012817390719F0CF014496F4CFE5EF9F
S1130790F1E086E090E09183808389E090E09383A8
S11307A0828381E090E090938402809383020E948C
S11307B0AB0161E070E080E090E00E948C0F81E08A
S11307C00E94350B90932E0380932D03E12CF12C82
S11307D004E020E030E045E550E06EE071E08DE5B6
S11307E090E00E94B80C06E020E030E045E550E0DF
S11307F068E171E08FEA93E00E94B80C03E020E026
S113080030E045E550E068E271E086E693E00E945E
S1130810B80C02E020E030E045E550E063E371E02D
S113082088E491E00E94B80C6FE084E491E00E94B7
S1130830D204FFCF5A9A08955D9A5D985C9A5C98A9
S11308405A980895809582B985B1836085B985B138
S113085093709095892385B90895CF93C0916201CF
S1130860C1110EC00E941A048091110390911203C9
S11308700E9422040E941C0481E08093620114C03F
S1130880EC2FF0E0EE0FFF1FEF5EFC4F80819181B3
S11308900E9422040E941C04CF5FCE3018F4C0933F
S11308A0620102C010926201CF91089508950E94DE
S11308B0DB0440E066E084E10E94630A9093F00167
S11308C08093EF015E98E12CF12C00E020E030E011
S11308D045E550E064E571E086EB93E00E94B80CD6
S11308E08DE294E00E94970478940E94CF0DFFCF8C
S11308F0CF93DF9300D0CDB7DEB76A8380917703BF
S113090090917803009771F0198220E0AE014F5F57
S11309105F4FBE016E5F7F4F0E944F0B8981811133
S11309200E94A7060F900F90DF91CF9108959093A6
S11309307603809375038AE087BD84B5826084BDA5
S1130940EEE6F0E080818260808385B5856085BDB8
S113095008951F920F920FB60F9211242F933F9375
S11309604F935F936F937F938F939F93AF93BF93B3
S1130970EF93FF93E0917503F0917603309709F0BC
S11309800995FF91EF91BF91AF919F918F917F91C5
S11309906F915F914F913F912F910F900FBE0F90E8
S11309A01F901895462FBC018091790390917A038A
S11309B00E940F0808958F929F92AF92BF92CF9298
S11309C0DF92EF920F9382E593E00E9434058FE269
S11309D093E00E9434050F2EF8E78F2EF4E09F2E4B
S11309E0F02D0F2EFFE2AF2EF3E0BF2EF02D0F2ED1
S11309F0F2E5CF2EF3E0DF2EF02DE12C00E023E032
S1130A0040E052EC61E070E080E00E949507909332
S1130A107A038093790388B1836C88B95B9A8AB12D
S1130A2084678AB95E9A81B18FEF81B984B183609A
S1130A3084B984B18C6384B90F91EF90DF90CF9027
S1130A40BF90AF909F908F90089595B1937C95B986
S1130A5025B134E0839FC0011124822B85B9089508
S1130A6085B1837C85B90895FC0110A211A212A25C
S1130A700895FC0182A18823D9F081A1DF01A80F88
S1130A80B11D8C91DB018C9321A130E02F5F3F4F8E
S1130A902F713078332334F421503109206E3F6FA5
S1130AA02F5F3F4F21A382A1815082A380E008954C
S1130AB081E00895FC0142A14032B8F420A130E065
S1130AC0E20FF31F60832F5F3F4F2F713078332382
S1130AD034F421503109206E3F6F2F5F3F4FFC01EA
S1130AE020A34F5F42A380E0089582E00895FC01B3
S1130AF00396928381832FEF3FEF3483238396837E
S1130B0085839087878310820895FC01118610865F
S1130B100895CF93DF939C01FB01DC011196CD91E5
S1130B20DC911297D383C2838C819D8195838483C6
S1130B308C819D81DC0113967C936E9312977D8347
S1130B406C8331872087F90180818F5F8083DF91F7
S1130B50CF910895CF93DF93EB01488159814F3FA3
S1130B602FEF520721F4FC01A781B0850DC0DC01F1
S1130B70139601C0DF011296ED91FC911397208129
S1130B80318142175307B0F71296ED91FC911397F8
S1130B90FB83EA83D583C483BD83AC831396DC9340
S1130BA0CE93129799878887FC0120812F5F208339
S1130BB0DF91CF910895CF93DF93FC01A085B18598
S1130BC0C281D381848195819D838C83C481D581A5
S1130BD0828193819B838A831196CD91DC911297B4
S1130BE0CE17DF0731F48C819D8112969C938E93EE
S1130BF01197118610868C9181508C93DF91CF913F
S1130C00089531E1FC013083319722E2208331974A
S1130C10A3E3A08331976083319770833197108267
S1130C20319760E8608331971082319762E0608386
S1130C30319763E06083319764E06083319765E0C6
S1130C406083319766E06083319767E06083319712
S1130C5068E06083319769E06083319760E1608385
S1130C6031973083319732E13083319733E13083E8
S1130C70319734E13083319735E13083319736E170
S1130C803083319737E13083319738E130833197BE
S1130C9039E13083319730E23083319731E2308368
S1130CA031972083319723E2208331974083319712
S1130CB05083319726E22083319727E220833197AE
S1130CC028E22083319729E22083319720E320838F
S1130CD0319721E32083869708951092890085EE49
S1130CE0809388008BE080938100EFE6F0E08081C0
S1130CF082608083A091C607B091C707CD91CDBF14
S1130D00DD91DEBFFF91EF91DF91CF91BF91AF9164
S1130D109F918F917F916F915F914F913F912F910F
S1130D201F910F91FF90EF90DF90CF90BF90AF9005
S1130D309F908F907F906F905F904F903F902F90F7
S1130D401F900F900FBE0F90089581E008950F92A9
S1130D500FB6F8940F921F9211242F923F924F9244
S1130D605F926F927F928F929F92AF92BF92CF9237
S1130D70DF92EF92FF920F931F932F933F934F9322
S1130D805F936F937F938F939F93AF93BF93CF930F
S1130D90DF93EF93FF93A091C607B091C7070DB6F9
S1130DA00D920EB60D920E949B0FA091C607B091B2
S1130DB0C707CD91CDBFDD91DEBFFF91EF91DF91EC
S1130DC0CF91BF91AF919F918F917F916F915F91DF
S1130DD04F913F912F911F910F91FF90EF90DF90D2
S1130DE0CF90BF90AF909F908F907F906F905F90C7
S1130DF04F903F902F901F900F900FBE0F9008952B
S1130E000F920FB6F8940F921F9211242F923F92D3
S1130E104F925F926F927F928F929F92AF92BF9206
S1130E20CF92DF92EF92FF920F931F932F933F93F2
S1130E304F935F936F937F938F939F93AF93BF93DE
S1130E40CF93DF93EF93FF93A091C607B091C707A9
S1130E500DB60D920EB60D920E94FF0D81110E94E7
S1130E609B0FA091C607B091C707CD91CDBFDD916F
S1130E70DEBFFF91EF91DF91CF91BF91AF919F9131
S1130E808F917F916F915F914F913F912F911F911E
S1130E900F91FF90EF90DF90CF90BF90AF909F9015
S1130EA08F907F906F905F904F903F902F901F9006
S1130EB00F900FBE0F9008950E9400071895CF93CE
S1130EC0DF93EC010E94F90D80917B0390917C03E8
S1130ED0892B31F480E893E090937C0380937B0327
S1130EE020917D0330917E03CE01820F931F873EB4
S1130EF043E0940770F42817390770F4C0917B031A
S1130F00D0917C03C20FD31F90937E0380937D0303
S1130F1005C0C0E0D0E002C0C0E0D0E00E94BA0E3C
S1130F20CE01DF91CF91089508954F925F926F9211
S1130F307F928F929F92AF92BF92CF92DF92FF9255
S1130F400F931F93CF93DF93CDB7DEB7F82E2A010B
S1130F503B0188E090E00E9481118C018F2D90E08C
S1130F60880F991FFC01E959F84F11830083FC0194
S1130F70E65FFE4F80819181D80111969C938E93F8
S1130F801396BC92AE9212971596DC92CE92149759
S1130F9017969C928E921697FFB6F894ED91FC9159
S1130FA011973697808182608083CD90DC90D30145
S1130FB0C201880F991FAA1FBB1F880F991FAA1F60
S1130FC0BB1F9C01AD01220F331F441F551F60E05E
S1130FD070E081EE90E00E945F112150F60132979B
S1130FE02083D801ED91FC911197359788E980838E
S1130FF0ED91FC91349786E08083FFBEC801DF91B8
S1131000CF911F910F91FF90DF90CF90BF90AF9041
S11310109F908F907F906F905F904F900895EF9284
S1131020FF920F931F93CF93DF93FC01A281B381AF
S1131030109779F0E42FF0E092965C9120E230E092
S1131040251B31092E173F071CF17C01411104C0F7
S113105016C04230F8F4F9CFEB014150042F10E0F0
S11310600F5F1F4F060F171F6991D70112968D91BD
S11310709C9113970E945A05C017D107A9F7D7016D
S1131080ED91FC91359780818062808380E003C07C
S113109082E001C082E0DF91CF911F910F91FF9018
S11310A0EF9008951F920F920FB60F9211242F9371
S11310B03F934F935F936F937F938F939F93AF93DC
S11310C0BF93CF93EF93FF93E0916707F091680785
S11310D03097A1F0C091C6006C2F848195810E9445
S11310E05A058091670790916807DC011696ED9187
S11310F0FC911797309711F06C2F0995FF91EF91A0
S1131100CF91BF91AF919F918F917F916F915F919B
S11311104F913F912F910F900FBE0F901F901895F4
S11311201F920F920FB60F9211242F933F934F9358
S11311305F936F937F938F939F93AF93BF93EF933B
S1131140FF93CF93DF931F92CDB7DEB7E09167078C
S1131150F0916807309799F0BE016F5F7F4F8281ED
S113116093810E943905811104C089818093C6004E
S11311700BC0E1ECF0E080818F7D808305C0E1EC61
S1131180F0E080818F7D80830F90DF91CF91FF917C
S1131190EF91BF91AF919F918F917F916F915F91EB
S11311A04F913F912F910F900FBE0F901F90189564
S11311B01F920F920FB60F9211242F933F934F93C8
S11311C05F936F937F938F939F93AF93BF93CF93CB
S11311D0EF93FF93E0916907F0916A073097A1F0CC
S11311E0C091CE006C2F848195810E945A05809114
S11311F0690790916A07DC011696ED91FC911797A7
S1131200309711F06C2F0995FF91EF91CF91BF9119
S1131210AF919F918F917F916F915F914F913F918A
S11312202F910F900FBE0F901F9018951F920F9241
S11312300FB60F9211242F933F934F935F936F93A5
S11312407F938F939F93AF93BF93EF93FF93CF932A
S1131250DF931F92CDB7DEB7E0916907F0916A077B
S1131260309799F0BE016F5F7F4F828193810E9416
S11312703905811104C089818093CE000BC0E9EC4B
S1131280F0E080818F7D808305C0E9ECF0E080810F
S11312908F7D80830F90DF91CF91FF91EF91BF916C
S11312A0AF919F918F917F916F915F914F913F91FA
S11312B02F910F900FBE0F901F9018950F931F93AF
S11312C0CF93DF93EC01042F1A8D8C8D81110CC008
S11312D088819981892B09F044C08A819B810E946D
S11312E00D111B821A8244C0411118C0482F50E0CE
S11312F08C819D810E940A132C8D8C819D81820F8B
S1131300911D9D838C832A813B818217930758F119
S1131310888199819D838C8380E02AC0482F50E086
S11313208E819F810E940A138C8D90E09195819506
S113133091092E813F81280F391F3F832E834881D5
S113134059812417350730F42A813B81820F931F7A
S11313509F838E83023049F4112349F0115080E0B9
S113136007C080E005C080E003C080E001C080E0E9
S11313701F5F1A8FDF91CF911F910F910895FC0188
S1131380448D4423A9F050E026813781240F351F72
S113139037832683828193812817390720F080813F
S11313A0918197838683CB01668177810E940A139A
S11313B00895EF92FF920F931F93CF938C010FB672
S11313C0F8940F92FC01C68D1C16ACF4818981112E
S11313D006C011C0F8019189911105C00CC07801B3
S11313E0F1E1EF0EF11CC7010E94221081110E944D
S11313F0A710C15079F78FEFF801868F0F900FBEB9
S11314000FB6F8940F92C58D1C16ACF4808581112B
S113141006C011C0F8019085911105C00CC0780177
S1131420F8E0EF0EF11CC7010E94221081110E9406
S1131430A710C15079F78FEFF801858F0F900FBE79
S1131440CF911F910F91FF90EF900895CF93DF9369
S1131450EC010FB6F8940F92488159812C8D30E03D
S11314607B8D729FC001739F900D1124FA01E80FC8
S1131470F91FFB83EA831A8E5D834C83821B930BD3
S1131480840F951F9F838E838FEF8D8F8E8F6111B5
S11314900CC08885882389F0CE0108960E9422100A
S11314A0882359F00E94A70608C0CE0108960E941E
S11314B07705CE0141960E9477050F900FBE81E01B
S11314C0DF91CF910895FF920F931F93CF93DF93F2
S11314D0082F162FF42E6623C9F0869FC00111240D
S11314E081960E945F07EC01009749F416C00B8FA8
S11314F01C8F61E0CE010E94260AF8A20EC08196DC
S113150099838883F4CFD983C883F1CF81E290E0B3
S11315100E945F07EC01892BB1F7CE01DF91CF91D7
S11315201F910F91FF9008959F92AF92BF92CF9217
S1131530DF92EF92FF920F931F93CF93DF9300D02C
S113154000D01F92CDB7DEB78C016B015D834C8355
S1131550A22EB12C992493947C0188E0E80EF11C0E
S11315600FB6F8940F92F801328D938D391718F055
S1131570F2E0AF1219C04A2DB601C8010E945E09FB
S1131580F8019189992349F0C80141960E942210DB
S1131590882331F00E94A70603C081110E94A70688
S11315A00F900FBE81E050C0EC81FD81EF2B21F440
S11315B00F900FBE80E048C0B11005C0CE01019667
S11315C00E946A10B92C0F900FBE0E94F90D0FB63D
S11315D0F8940F92F801858D8F3F09F4158EF80168
S11315E0868D8F3F09F4168E0F900FBEBE016C5F7F
S11315F07F4FCE0101960E94751081111FC00FB656
S1131600F8940F92F801928D0F900FBE838D98136A
S11316100FC06C817D81C7010E940F10C8010E9418
S1131620D9090E94BA0E81119BCF0E94A70698CFB8
S1131630C8010E94D9090E94BA0E92CFC8010E9423
S1131640D9090E94BA0E80E00F900F900F900F906E
S11316500F90DF91CF911F910F91FF90EF90DF904A
S1131660CF90BF90AF909F900895CF93DF93482F72
S113167060E081E00E94630AEC01009761F01B8244
S11316801A82198218821E8220E040E050E060E055
S113169070E00E94940ACE01DF91CF910895EF92F9
S11316A0FF920F931F93CF93DF938A01FC01528D16
S11316B0338D531710F02230F1F4422F7801EC01EE
S11316C01E8D0E945E091F3F81F489898823A9F039
S11316D0CE0141960E942210882389F0E114F1047E
S11316E081F081E0F70180830DC0FF24F394F10EB3
S11316F0FE8E81E007C080E005C081E003C081E088
S113170001C081E0DF91CF911F910F91FF90EF9085
S113171008958F929F92AF92BF92CF92DF92EF92F1
S1131720FF920F931F93CF93DF9300D000D01F92AB
S1131730CDB7DEB78C015B015D834C83822EE12C37
S1131740992493946C0181E1C80ED11C0FB6F894CE
S11317500F92F801F28CFF2091F1C680D780B50179
S1131760C8010E94BF09811019C0FA94F801F28ED1
S113177080819181892B29F40E944D11F801938372
S11317808283F80180858823B1F0C80108960E94FD
S11317902210882381F00E94A7060DC0F801D78289
S11317A0C6828189882339F0C80141960E9422109B
S11317B081110E94A7060F900FBE81E064C04C8186
S11317C05D81452B21F40F900FBE80E05CC0E110D9
S11317D005C0CE0101960E946A10E92C0F900FBE3D
S11317E00E94F90D0FB6F8940F92F801858D8F3F82
S11317F009F4158EF801968D9F3F09F4168E0F900B
S11318000FBEBE016C5F7F4FCE0101960E94751022
S113181081112BC00FB6F8940F92F801828D0F90AE
S11318200FBE81111CC080819181892B49F40FB6B0
S1131830F8940F92828193810E94AB100F900FBE97
S11318406C817D81C6010E940F10C8010E94D909D4
S11318500E94BA0E81117ACF0E94A70677CFC801E1
S11318600E94D9090E94BA0E71CFC8010E94D909F9
S11318700E94BA0E0FB6F8940F92F801828D0F9061
S11318800FBE811163CF0F900F900F900F900F90A8
S1131890DF91CF911F910F91FF90EF90DF90CF9048
S11318A0BF90AF909F908F900895E0918E07F09134
S11318B08F078081811107C08FEF9FEF90936F078F
S11318C080936E070895E0918E07F0918F0705804D
S11318D0F681E02D0680F781E02D8281938190933B
S11318E06F0780936E0708950F931F93CF93DF9331
S11318F0EC0100917607109177078091C6079091CB
S1131900C70702960E94DB05C00FD11FE091C607EE
S1131910F091C707D383C283C017D10768F46091DD
S1131920C6077091C70780918C0790918D076E5FF1
S11319307F4F0E94AA0517C06091C6077091C70720
S113194080918E0790918F076E5F7F4F0E94AA054A
S113195080916E0790916F07C817D90720F4D09330
S11319606F07C0936E07DF91CF911F910F91089578
S11319704F925F926F927F928F929F92AF92BF929B
S1131980CF92DF92EF92FF920F93CF93DF934C01AC
S1131990EB016A012901CA010E945F075C01892BDE
S11319A009F4ECC08CE290E00E945F073C010097D0
S11319B0B9F0FC01B08EA78AA60165EA70E0C50102
S11319C00E941313F1E0CF1AD108F3018789908D97
S11319D0C80ED91E8881818F8881811105C014C0E9
S11319E0C5010E949407CAC0D3015A96FE013196DC
S11319F09E01285F3F4FEF0181918D938881882359
S1131A0019F0E217F307B9F7F30110A2043008F054
S1131A1003E0F301068B03A314A2E3012296CE0193
S1131A200E948505C3010C960E948505F301718609
S1131A30608684E090E0801B910995878487738A8F
S1131A40628A16A215A217A210A611A612A613A6A0
S1131A50A201B401C6010E940106F30191838083AF
S1131A60E114F10419F0F701718260820FB6F89461
S1131A700F92809178078F5F809378078091C607D3
S1131A809091C707892BA9F57092C7076092C60782
S1131A90809178078130F1F582EA97E00E9477051A
S1131AA08BEA97E00E94770584EB97E00E94770524
S1131AB08DEB97E00E94770589E997E00E9477050E
S1131AC080E997E00E94770583E897E00E94770514
S1131AD08AE797E00E94770589E997E090938F075A
S1131AE080938E0780E997E090938D0780938C070D
S1131AF011C08091740781110DC0E091C607F09167
S1131B00C7079689F3018689891720F07092C70761
S1131B106092C607809170078F5F80937007F3010E
S1131B2081A3868990917507981710F4809375079F
S1131B3090E09C01220F331F220F331F220F331F0B
S1131B40820F931FBE018E55984F0E9489050F90F6
S1131B500FBE80917407882369F0E091C607F09165
S1131B60C7079689F3018689981730F40E94A7065F
S1131B7081E005C081E003C081E001C08FEFDF9107
S1131B80CF910F91FF90EF90DF90CF90BF90AF90E7
S1131B909F908F907F906F905F904F900895EF92F9
S1131BA0FF920F930F2EFCE6EF2EF7E0FF2EF02DA1
S1131BB000E020E030E045E550E06CE571E08DE4C4
S1131BC09FE00E94B80C813081F4F8948FEF9FEF6E
S1131BD090936F0780936E0781E08093740710924F
S1131BE07707109276070E946D060F91FF90EF9091
S1131BF0089580916B078F5F80936B070895CF9250
S1131C00DF92EF92FF920F931F93CF93DF93809114
S1131C106B07811199C0E0907607F09077078FEFFA
S1131C20E81AF80AF0927707E0927607E114F104D3
S1131C30B9F480918E0790918F0720918C07309191
S1131C408D0730938F0720938E0790938D07809391
S1131C508C07809171078F5F809371070E94550CE8
S1131C6080916E0790916F07E816F90610F4D12C55
S1131C7053C0D12CCC24C394E0918E07F0918F07EC
S1131C809081911107C08FEF9FEF90936F0780931E
S1131C906E0742C0E0918E07F0918F070580F681B0
S1131CA0E02DC681D7812A813B81E216F30628F410
S1131CB030936F0720936E072FC08E010E5F1F4F66
S1131CC0C8010E94DB058C899D89892B21F0CE01F6
S1131CD00C960E94DB052E8980917507821710F4FB
S1131CE02093750730E0C901880F991F880F991F49
S1131CF0880F991F820F931FB8018E55984F0E9429
S1131D008905E091C607F091C7079E8986899817CF
S1131D1008F4B2CFDC2CB0CFE091C607F091C7072E
S1131D20868990E0FC01EE0FFF1FEE0FFF1FEE0F00
S1131D30FF1F8E0F9F1FFC01EE55F84F80818230EC
S1131D4048F0DD24D39406C0809173078F5F80939D
S1131D507307D12C80917207882311F0DD24D3946A
S1131D608D2DDF91CF911F910F91FF90EF90DF9018
S1131D70CF900895DF92EF92FF920F931F93CF932A
S1131D80DF930FB6F8940F9280916B078150809384
S1131D906B0780916B0781115FC080917807811177
S1131DA033C05DC0D7011596ED91FC911697C6819D
S1131DB0D781CE010C960E94DB058E010E5F1F4F6A
S1131DC0C8010E94DB052E8980917507821710F4E3
S1131DD02093750730E0C901880F991F880F991F58
S1131DE0880F991F820F931FB8018E55984F0E9438
S1131DF08905E091C607F091C7079E8986899817DF
S1131E0068F0D09272070AC0C0E0D0E00F2EF3E869
S1131E10EF2EF7E0FF2EF02DDD24D394F70180811F
S1131E208111C0CFCD2B11F00E94550CC0917307C6
S1131E30CC2351F0D1E00E94FF0D8111D0937207A1
S1131E40C150C9F71092730780917207882331F04B
S1131E500E94A70681E003C080E001C080E00F90EB
S1131E600FBEDF91CF911F910F91FF90EF90DF9004
S1131E700895CF93DF93EC01892B51F00E94F90D63
S1131E8060E0CE010E94740C0E94BA0E811102C05F
S1131E900E94A706DF91CF9108950AE717E00F2E5D
S1131EA0F2EAEF2EF7E0FF2EF02D29C00E94F90D83
S1131EB0D801CC910E94BA0ECC2309F10FB6F89444
S1131EC00F92D8011596ED91FC911697C681D78192
S1131ED0CE0102960E94DB058091780781508093A1
S1131EE07807809179078150809379070F900FBE0E
S1131EF08F89988D0E949407CE010E949407809147
S1131F0079078111D3CFF7018081823010F00E94CC
S1131F10A7060E945604F3CF009721F48091C607C8
S1131F209091C7070FB6F8940F92FC0176A365A3AE
S1131F300F900FBE089580916B07882321F081E0F4
S1131F4080937207089510927207E091C607F0918A
S1131F50C70785A10E94300520917507822F90E064
S1131F60FC01EE0FFF1FEE0FFF1FEE0FFF1FE80F28
S1131F70F91FEE55F84F3081311111C02150822FD5
S1131F8090E0FC01EE0FFF1FEE0FFF1FEE0FFF1F8F
S1131F90E80FF91FEE55F84F3081332379F3AC0184
S1131FA0440F551F440F551F440F551F480F591F09
S1131FB0DA01AE55B84F1196ED91FC91129702805B
S1131FC0F381E02D1296FC93EE9311974B55584FE5
S1131FD0E417F50729F442815381FD0152834183BB
S1131FE0FC01EE0FFF1FEE0FFF1FEE0FFF1F8E0F02
S1131FF09F1FFC01EE55F84F0180F281E02D868190
S113200097819093C7078093C60720937507E09143
S1132010C607F091C70785A10E9425050895CF93AF
S1132020DF93EB012091C6073091C707B901645FC4
S11320307F4F0E94AA0561E0CE010E94740CDF91DB
S1132040CF9108950F931F93CF93DF93DC011596DF
S1132050ED91FC911697C681D7818E01045F1F4FC5
S1132060C8010E94DB0580916B0781111CC00A50D6
S11320701109C8010E94DB052E898091750782171A
S113208010F42093750730E0C901880F991F880F59
S1132090991F880F991F820F931FB8018E55984F6F
S11320A00E94890505C0B80183E897E00E9489056C
S11320B0E091C607F091C7079E898689891720F4A5
S11320C081E08093720701C080E0DF91CF911F917E
S11320D00F91089520917107FC01208320917607C8
S11320E030917707328321830895CF93DF93FC01E6
S11320F00FB6F8940F92209176073091770780916C
S113210071079081981729F08181928128173907E6
S1132110B0F4A181B281EB0148815981C9018A1BC4
S11321209B0B8417950768F4CF01A21BB30B4A0FCE
S11321305B1F598348830E946A1080E003C081E0DA
S113214001C081E00F900FBEDF91CF91089581E02F
S11321508093720708950F931F93CF93DF93FC012D
S1132160892B09F455C02689A091C607B091C707E9
S113217056968C91281708F04BC084859585992331
S113218064F0A091C607B091C70756963C9184E0CD
S113219090E0831B91099587848730E0C901880FFB
S11321A0991F880F991F880F991F280F391F2E55C3
S11321B0384F828593858217930719F58F01EF01B4
S11321C02296CE010E94DB05E091C607F091C70775
S11321D02689F801268B80917507821710F42093C5
S11321E0750730E0C901880F991F880F991F880F60
S11321F0991F820F931FBE018E55984F0E94890527
S113220007C0A091C607B091C70756968C91868BDC
S1132210DF91CF911F910F9108950F931F93CF9347
S1132220DF93FC01892B79F184A1815084A3268951
S113223093A1291751F181112AC0EF018F010E5F7B
S11322401F4FC8010E94DB052BA12E8B44E050E0F8
S1132250421B51095D874C8780917507821710F4E2
S11322602093750730E0C901880F991F880F991FC3
S1132270880F991F820F931FB8018E55984F0E94A3
S1132280890581E005C080E003C080E001C080E0F2
S1132290DF91CF911F910F9108958091C60790917E
S11322A0C707892B39F0E091C607F091C70784A1CD
S11322B08F5F84A38091C6079091C7070895A1E218
S11322C01A2EAA1BBB1BFD010DC0AA1FBB1FEE1FAC
S11322D0FF1FA217B307E407F50720F0A21BB30BF7
S11322E0E40BF50B661F771F881F991F1A9469F773
S11322F060957095809590959B01AC01BD01CF01CF
S11323000895CF93DF938230910510F482E090E03A
S1132310E091CA07F091CB0720E030E0C0E0D0E0C4
S1132320309711F14081518148175907C0F048177F
S1132330590761F482819381209719F09B838A83E2
S11323402BC09093CB078093CA0726C02115310573
S113235019F04217530718F49A01BE01DF01EF0187
S11323600280F381E02DDCCF2115310509F1281B12
S1132370390B2430310590F412968D919C9113976A
S11323806115710521F0FB019383828304C090934E
S1132390CB078093CA07FD01329644C0FD01E20FCA
S11323A0F31F81939193225031092D933C933AC0AA
S11323B02091C8073091C907232B41F420910201D1
S11323C0309103013093C9072093C807209100017D
S11323D0309101012115310541F42DB73EB74091EB
S11323E0040150910501241B350BE091C807F091BD
S11323F0C907E217F307A0F42E1B3F0B2817390770
S113240078F0AC014E5F5F4F2417350748F04E0F4C
S11324105F1F5093C9074093C8078193919302C0EB
S1132420E0E0F0E0CF01DF91CF9108950F931F9387
S1132430CF93DF93009709F48CC0FC013297138289
S113244012820091CA071091CB070115110581F47E
S113245020813181820F931F2091C8073091C907D1
S11324602817390779F5F093C907E093C80771C0B5
S1132470D80140E050E0AE17BF0750F412962D91FA
S11324803C911397AD012115310509F1D901F3CF21
S11324909D01DA013383228360817181860F971F46
S11324A08217930769F4EC0128813981260F371FBD
S11324B02E5F3F4F318320838A819B819383828364
S11324C0452B29F4F093CB07E093CA0742C0139637
S11324D0FC93EE931297ED01499159919E01240FBB
S11324E0351FE217F30771F480819181840F951FE2
S11324F0029611969C938E938281938113969C935A
S11325008E931297E0E0F0E0D80112968D919C91A1
S11325101397009719F0F8018C01F6CF8D919C91D7
S113252098012E5F3F4F820F931F2091C80730916F
S1132530C9072817390769F4309729F41092CB0793
S11325401092CA0702C0138212821093C907009323
S1132550C807DF91CF911F910F9108958F929F9299
S1132560AF92BF92CF92DF92EF92FF92CF93DF931D
S1132570EC01688179818A819B81611571058105EE
S1132580910521F464E279ED8BE597E02DE133EFD9
S113259041E050E00E941A1349015A019B01AC0129
S11325A0A7EAB1E40E9439136B017C01ACEEB4EFED
S11325B0A50194010E944713DC01CB018C0D9D1DE4
S11325C0AE1DBF1DB7FF03C00197A109B0488883A2
S11325D09983AA83BB839F77DF91CF91FF90EF907C
S11325E0DF90CF90BF90AF909F908F9008950E94FE
S11325F0AE12089586E091E00E94AE120895A0E024
S1132600B0E08093060190930701A0930801B09372
S113261009010895FB01DC0102C001900D924150B3
S11326205040D8F70895DC0101C06D9341505040EB
S1132630E0F70895052E97FB1EF400940E943113D1
S113264057FD07D00E945F1107FC03D04EF40C9491
S1132650311350954095309521953F4F4F4F5F4F23
S1132660089590958095709561957F4F8F4F9F4FFA
S113267008950E944C13A59F900DB49F900DA49FA4
S1132680800D911D11240895B7FF0C9439130E94F5
S11326903913821B930B0895A29FB001B39FC0010D
S11326A0A39F700D811D1124911DB29F700D811D7A
S10D26B01124911D0895F894FFCF42
S11326BA0000CC07200001000000C600CE004F62D3
S11326CA737461636C657300446973706C61792017
S11326DA757064617465720047616D65206C6F671B
S11326EA6963004A6F79737469636B2073616D70EF
S11326FA6C6572005468656E207765205374617244
S113270A74210A00537461727475700049444C450B
S105271A0000B9
S9030000FC
