S01100004669727374546573742E737265636B
S11300000C943E000C945B000C945B000C945B001D
S11300100C945B000C945B000C945B000C945B00F0
S11300200C945B000C945B000C945B000C945B00E0
S11300300C945B000C94F4060C945B000C945B0031
S11300400C9441040C945B000C945B000C945B00D6
S11300500C94EA070C9428080C945B000C945B0045
S11300600C945B000C945B000C945B000C945B00A0
S11300700C9470080C94AE080C945B0011241FBE01
S1130080CFEFD8E0DEBFCDBF11E0A0E0B1E0EAEEF3
S1130090F5E202C005900D92A236B107D9F727E028
S11300A0A2E6B1E001C01D92A83CB207E1F70E94AC
S11300B0EF030C94F3120C940000CF93DF9300D061
S11300C000D0CDB7DEB70F2EF1EF6F2EF1E07F2E0B
S11300D0F02D0F2EFFE0AF2EF3E0BF2EF02D3324D2
S11300E03394212C0F2EF5EF8F2EF1E09F2EF02D5F
S11300F00F2EFDE0CF2EF3E0DF2EF02D19821A82B1
S1130100D3018D919C9111979C01220F331F880F6D
S1130110991F880F991F880F991F820F931F12969A
S1130120ED91FC9113978E0F9F1FFC01EE59FE4F2A
S11301308081811196C00F2EF3E6EF2EF1E0FF2EA1
S1130140F02D47EF51E0B7010EC08D9190E08193FF
S11301509193E217F307C9F7665F7F4F4C5E5F4FD9
S11301604A155B0531F09A012E5E3F4FFA01DB011F
S1130170ECCFE9E0F2E0432C522C00E010E0FC83E9
S1130180EB830E94921281709078992324F4019752
S11301908E6F9F6F0196D4018D939C93023011054D
S11301A02CF0BDE04B165104D9F460C00E949212A9
S11301B081709078992324F401978E6F9F6F019634
S11301C0EB81FC8191838083019711F40F5F1F4FB2
S11301D0C20183709927892B39F409811A8104C0DB
S11301E0AB81BC811D921C92BFEF4B1A5B0AEB8161
S11301F0FC817496FC83EB83FEE04F16510409F6F0
S1130200A4010EC0808132968D93E217F307D1F7D3
S11302104C5E5F4F8AE0E80EF11C4C155D0531F031
S11302209A012E5E3F4FD701FA01ECCFD3018D9195
S11302309C911197FC01EE0FFF1F880F991F880FE7
S1130240991F880F991FE80FF91F12968D919C91A1
S11302501397E80FF91FEE0FFF1FEB50FE4F30828C
S1130260218288EE93E00E94D10E4ACF0E9492121E
S113027081709078992324F401978E6F9F6F019673
S1130280EB81FC8191838083019709F0B9CF9ECFE4
S1130290CF92DF92EF92FF920F931F93CF93DF934E
S11302A0CDE0D3E045EF51E00DE013E0C12CD12CBB
S11302B061E070E0DE0119821882FA018C2D9D2D17
S11302C0219131912130310579F4ED90FC90119711
S11302D09B01082E02C0220F331F0A94E2F72E2935
S11302E03F2911963C932E9301968A30910541F74C
S11302F022964C5E5F4F40175107E1F6DF91CF9194
S11303001F910F91FF90EF90DF90CF90089581306F
S1130310910509F462C040F08230910509F4BAC035
S1130320039709F414C10895DB0112962D913C91B1
S11303301397C90101968A30910508F063C14D9164
S11303405C91DA01AA0FBB1FFA01EE0FFF1FEE0F3B
S1130350FF1FEE0FFF1FEA0FFB1FE80FF91FEE0F41
S1130360FF1FEB50FE4F80819181892B09F04AC118
S1130370FD01440F551F440F551F440F551FE40F33
S1130380F51FE20FF31FEE0FFF1FEB50FE4F11821C
S11303901082FB01208131818281938101969383B4
S11303A08283F901EE0FFF1F220F331F220F331F29
S11303B0220F331FE20FF31FE80FF91FEE0FFF1F89
S11303C0EB50FE4F81E090E0918380830E944801CE
S11303D088EC90E00E94D10E0895DB0112962D91D5
S11303E03C9113972115310509F40CC14D915C9191
S11303F01197FA01EE0FFF1FCA01880F991F880F8A
S1130400991F880F991FE80FF91FE20FF31FEE0FD2
S1130410FF1FED50FE4F80819181892B09F0F2C0BE
S1130420FA01EE0FFF1F440F551F440F551F440FD1
S1130430551FE40FF51FE20FF31FEE0FFF1FEB50E4
S1130440FE4F1182108212968D919C911397019701
S113045013969C938E9312972D913C91F901EE0F74
S1130460FF1F220F331F220F331F220F331FE20FF0
S1130470F31FE80FF91FEE0FFF1FEB50FE4F81E053
S113048090E0918380830E94480188EC90E00E9470
S1130490D10E0895FB0120813181C90101968E306E
S11304A0910508F0AFC042815381FC01EE0FFF1F9C
S11304B0880F991F880F991F880F991FE80FF91F3C
S11304C0E40FF51FEE0FFF1FEB50FE4F808191816B
S11304D0892B09F097C0C901880F991F220F331F78
S11304E0220F331F220F331F280F391FF901E40F86
S11304F0F51FEE0FFF1FEB50FE4F11821082DB0140
S11305008D919C911197019611969C938E931296BE
S1130510ED91FC9113979C01220F331F880F991FB3
S1130520880F991F880F991F820F931FE80FF91FD7
S1130530EE0FFF1FEB50FE4F81E090E0918380832C
S11305400E94480188EC90E00E94D10E0895FB01BE
S1130550208131812115310509F454C04281538130
S1130560C9010197FC01EE0FFF1F880F991F880F27
S1130570991F880F991FE80FF91FE40FF51FEE0F5D
S1130580FF1FEB50FE4F80819181892BD9F5C90162
S1130590880F991F220F331F220F331F220F331F7F
S11305A0280F391FF901E40FF51FEE0FFF1FEB5061
S11305B0FE4F11821082DB018D919C91119701975E
S11305C011969C938E931296ED91FC9113979C0136
S11305D0220F331F880F991F880F991F880F991FA7
S11305E0820F931FE80FF91FEE0FFF1FEB50FE4F12
S11305F081E090E0918380830E94480188EC90E040
S11306000E94D10E0895CF93DF9300D000D000D084
S1130610CDB7DEB720E04FEF5FEFBE016F5F7F4FD6
S11306208091EF019091F0010E94210BBE016D5F5A
S11306307F4F89819A810E94870186E490E00E941D
S1130640D10EE8CF309906C061EF71E080E090E010
S11306500E948701319906C061EF71E082E090E069
S11306600E948701369906C061EF71E081E090E055
S11306700E948701379906C061EF71E083E090E042
S11306800E94870184E690E00E94D10EDBCF0E9495
S113069048018CE390E00E94D10EF9CFE5EFF1E040
S11306A02DE033E009C011921192E817F907D9F748
S11306B0FC012817390719F0CF014496F4CFE1EF74
S11306C0F1E086E090E09183808389E090E0938379
S11306D0828381E090E09093800280937F020E9465
S11306E0480161E070E080E090E00E94240F81E026
S11306F00E94CD0A90932A0380932903E12CF12CC4
S113070004E020E030E045E550E06EE071E08DE586
S113071090E00E94500C06E020E030E045E550E017
S113072068E171E087E493E00E94500C03E020E06C
S113073030E045E550E068E271E083E093E00E9438
S1130740500C02E020E030E045E550E063E371E066
S113075082E293E00E94500C6FE084E491E00E94F6
S11307606A04FFCF5A9A08955D9A5D985C9A5C98E2
S11307705A980895809582B985B1836085B985B109
S113078093709095892385B90895CF93C0916201A0
S1130790C1110EC00E94B20380910D0390910E030B
S11307A00E94BA030E94B40381E08093620114C0E2
S11307B0EC2FF0E0EE0FFF1FE35FFC4F808191818F
S11307C00E94BA030E94B403CF5FCE3018F4C093E2
S11307D0620102C010926201CF91089508950E94AF
S11307E0730440E062E084E10E94FB099093F0010D
S11307F08093EF015E98E12CF12C00E020E030E0E2
S113080045E550E064E571E08EE493E00E94500C0D
S113081085EC93E00E942F0478940E94670DFFCF2B
S1130820CF93DF9300D0CDB7DEB76A838091730393
S113083090917403009771F0198220E0AE014F5F2C
S11308405F4FBE016E5F7F4F0E94E70A898181116D
S11308500E943F060F900F90DF91CF9108959093DF
S11308607203809371038AE087BD84B5826084BD7E
S1130870EEE6F0E080818260808385B5856085BD89
S113088008951F920F920FB60F9211242F933F9346
S11308904F935F936F937F938F939F93AF93BF9384
S11308A0EF93FF93E0917103F0917203309709F095
S11308B00995FF91EF91BF91AF919F918F917F9196
S11308C06F915F914F913F912F910F900FBE0F90B9
S11308D01F901895462FBC01809175039091760363
S11308E00E94A70708958F929F92AF92BF92CF92D2
S11308F0DF92EF920F938EE493E00E94CC048BE29C
S113090093E00E94CC040F2EF0E18F2EF4E09F2E92
S1130910F02D0F2EFBE2AF2EF3E0BF2EF02D0F2EA5
S1130920FEE4CF2EF3E0DF2EF02DE12C00E023E0F7
S113093040E052EC61E070E080E00E942D0790936B
S113094076038093750388B1836C88B95B9A8AB106
S113095084678AB95E9A81B18FEF81B984B183606B
S113096084B984B18C6384B90F91EF90DF90CF90F8
S1130970BF90AF909F908F90089595B1937C95B957
S113098025B134E0839FC0011124822B85B90895D9
S113099085B1837C85B90895FC0110A211A212A22D
S11309A00895FC0182A18823D9F081A1DF01A80F59
S11309B0B11D8C91DB018C9321A130E02F5F3F4F5F
S11309C02F713078332334F421503109206E3F6F76
S11309D02F5F3F4F21A382A1815082A380E008951D
S11309E081E00895FC0142A14032B8F420A130E036
S11309F0E20FF31F60832F5F3F4F2F713078332353
S1130A0034F421503109206E3F6F2F5F3F4FFC01BA
S1130A1020A34F5F42A380E0089582E00895FC0183
S1130A200396928381832FEF3FEF3483238396834E
S1130A3085839087878310820895FC011186108630
S1130A400895CF93DF939C01FB01DC011196CD91B6
S1130A50DC911297D383C2838C819D819583848397
S1130A608C819D81DC0113967C936E9312977D8318
S1130A706C8331872087F90180818F5F8083DF91C8
S1130A80CF910895CF93DF93EB01488159814F3F74
S1130A902FEF520721F4FC01A781B0850DC0DC01C2
S1130AA0139601C0DF011296ED91FC9113972081FA
S1130AB0318142175307B0F71296ED91FC911397C9
S1130AC0FB83EA83D583C483BD83AC831396DC9311
S1130AD0CE93129799878887FC0120812F5F20830A
S1130AE0DF91CF910895CF93DF93FC01A085B18569
S1130AF0C281D381848195819D838C83C481D58176
S1130B00828193819B838A831196CD91DC91129784
S1130B10CE17DF0731F48C819D8112969C938E93BE
S1130B201197118610868C9181508C93DF91CF910F
S1130B30089531E1FC013083319722E2208331971B
S1130B40A3E3A08331976083319770833197108238
S1130B50319760E8608331971082319762E0608357
S1130B60319763E06083319764E06083319765E097
S1130B706083319766E06083319767E060833197E3
S1130B8068E06083319769E06083319760E1608356
S1130B9031973083319732E13083319733E13083B9
S1130BA0319734E13083319735E13083319736E141
S1130BB03083319737E13083319738E1308331978F
S1130BC039E13083319730E23083319731E2308339
S1130BD031972083319723E22083319740833197E3
S1130BE05083319726E22083319727E2208331977F
S1130BF028E22083319729E22083319720E3208360
S1130C00319721E32083869708951092890085EE19
S1130C10809388008BE080938100EFE6F0E0808190
S1130C2082608083A091C207B091C307CD91CDBFEC
S1130C30DD91DEBFFF91EF91DF91CF91BF91AF9135
S1130C409F918F917F916F915F914F913F912F91E0
S1130C501F910F91FF90EF90DF90CF90BF90AF90D6
S1130C609F908F907F906F905F904F903F902F90C8
S1130C701F900F900FBE0F90089581E008950F927A
S1130C800FB6F8940F921F9211242F923F924F9215
S1130C905F926F927F928F929F92AF92BF92CF9208
S1130CA0DF92EF92FF920F931F932F933F934F93F3
S1130CB05F936F937F938F939F93AF93BF93CF93E0
S1130CC0DF93EF93FF93A091C207B091C3070DB6D2
S1130CD00D920EB60D920E94330FA091C207B091EF
S1130CE0C307CD91CDBFDD91DEBFFF91EF91DF91C1
S1130CF0CF91BF91AF919F918F917F916F915F91B0
S1130D004F913F912F911F910F91FF90EF90DF90A2
S1130D10CF90BF90AF909F908F907F906F905F9097
S1130D204F903F902F901F900F900FBE0F900895FB
S1130D300F920FB6F8940F921F9211242F923F92A4
S1130D404F925F926F927F928F929F92AF92BF92D7
S1130D50CF92DF92EF92FF920F931F932F933F93C3
S1130D604F935F936F937F938F939F93AF93BF93AF
S1130D70CF93DF93EF93FF93A091C207B091C30782
S1130D800DB60D920EB60D920E94970D81110E9420
S1130D90330FA091C207B091C307CD91CDBFDD91B0
S1130DA0DEBFFF91EF91DF91CF91BF91AF919F9102
S1130DB08F917F916F915F914F913F912F911F91EF
S1130DC00F91FF90EF90DF90CF90BF90AF909F90E6
S1130DD08F907F906F905F904F903F902F901F90D7
S1130DE00F900FBE0F9008950E9498061895CF9308
S1130DF0DF93EC010E94910D809177039091780329
S1130E00892B31F48CE793E09093780380937703F4
S1130E102091790330917A03CE01820F931F873E8C
S1130E2043E0940770F42817390770F4C0917703EE
S1130E30D0917803C20FD31F90937A0380937903E0
S1130E4005C0C0E0D0E002C0C0E0D0E00E94520E75
S1130E50CE01DF91CF91089508954F925F926F92E2
S1130E607F928F929F92AF92BF92CF92DF92FF9226
S1130E700F931F93CF93DF93CDB7DEB7F82E2A01DC
S1130E803B0188E090E00E9419118C018F2D90E0C5
S1130E90880F991FFC01ED59F84F11830083FC0161
S1130EA0E65FFE4F80819181D80111969C938E93C9
S1130EB01396BC92AE9212971596DC92CE9214972A
S1130EC017969C928E921697FFB6F894ED91FC912A
S1130ED011973697808182608083CD90DC90D30116
S1130EE0C201880F991FAA1FBB1F880F991FAA1F31
S1130EF0BB1F9C01AD01220F331F441F551F60E02F
S1130F0070E081EE90E00E94F7102150F6013297D4
S1130F102083D801ED91FC911197359788E980835E
S1130F20ED91FC91349786E08083FFBEC801DF9188
S1130F30CF911F910F91FF90DF90CF90BF90AF9012
S1130F409F908F907F906F905F904F900895EF9255
S1130F50FF920F931F93CF93DF93FC01A281B38180
S1130F60109779F0E42FF0E092965C9120E230E063
S1130F70251B31092E173F071CF17C01411104C0C8
S1130F8016C04230F8F4F9CFEB014150042F10E0C1
S1130F900F5F1F4F060F171F6991D70112968D918E
S1130FA09C9113970E94F204C017D107A9F7D701A7
S1130FB0ED91FC91359780818062808380E003C04D
S1130FC082E001C082E0DF91CF911F910F91FF90E9
S1130FD0EF9008951F920F920FB60F9211242F9342
S1130FE03F934F935F936F937F938F939F93AF93AD
S1130FF0BF93CF93EF93FF93E0916307F09164075E
S11310003097A1F0C091C6006C2F848195810E9415
S1131010F2048091630790916407DC011696ED91C8
S1131020FC911797309711F06C2F0995FF91EF9170
S1131030CF91BF91AF919F918F917F916F915F916C
S11310404F913F912F910F900FBE0F901F901895C5
S11310501F920F920FB60F9211242F933F934F9329
S11310605F936F937F938F939F93AF93BF93EF930C
S1131070FF93CF93DF931F92CDB7DEB7E091630761
S1131080F0916407309799F0BE016F5F7F4F8281C2
S113109093810E94D104811104C089818093C60088
S11310A00BC0E1ECF0E080818F7D808305C0E1EC32
S11310B0F0E080818F7D80830F90DF91CF91FF914D
S11310C0EF91BF91AF919F918F917F916F915F91BC
S11310D04F913F912F910F900FBE0F901F90189535
S11310E01F920F920FB60F9211242F933F934F9399
S11310F05F936F937F938F939F93AF93BF93CF939C
S1131100EF93FF93E0916507F09166073097A1F0A4
S1131110C091CE006C2F848195810E94F20480914D
S1131120650790916607DC011696ED91FC9117977F
S1131130309711F06C2F0995FF91EF91CF91BF91EA
S1131140AF919F918F917F916F915F914F913F915B
S11311502F910F900FBE0F901F9018951F920F9212
S11311600FB60F9211242F933F934F935F936F9376
S11311707F938F939F93AF93BF93EF93FF93CF93FB
S1131180DF931F92CDB7DEB7E0916507F091660754
S1131190309799F0BE016F5F7F4F828193810E94E7
S11311A0D104811104C089818093CE000BC0E9EC85
S11311B0F0E080818F7D808305C0E9ECF0E08081E0
S11311C08F7D80830F90DF91CF91FF91EF91BF913D
S11311D0AF919F918F917F916F915F914F913F91CB
S11311E02F910F900FBE0F901F9018950F931F9380
S11311F0CF93DF93EC01042F1A8D8C8D81110CC0D9
S113120088819981892B09F044C08A819B810E943D
S1131210A5101B821A8244C0411118C0482F50E007
S11312208C819D810E94A2122C8D8C819D81820FC4
S1131230911D9D838C832A813B818217930758F1EA
S1131240888199819D838C8380E02AC0482F50E057
S11312508E819F810E94A2128C8D90E09195819540
S113126091092E813F81280F391F3F832E834881A6
S113127059812417350730F42A813B81820F931F4B
S11312809F838E83023049F4112349F0115080E08A
S113129007C080E005C080E003C080E001C080E0BA
S11312A01F5F1A8FDF91CF911F910F910895FC0159
S11312B0448D4423A9F050E026813781240F351F43
S11312C037832683828193812817390720F0808110
S11312D0918197838683CB01668177810E94A212D4
S11312E00895EF92FF920F931F93CF938C010FB643
S11312F0F8940F92FC01C68D1C16ACF481898111FF
S113130006C011C0F8019189911105C00CC0780183
S1131310F1E1EF0EF11CC7010E94BA0F81110E9486
S11313203F10C15079F78FEFF801868F0F900FBEF1
S11313300FB6F8940F92C58D1C16ACF480858111FC
S113134006C011C0F8019085911105C00CC0780148
S1131350F8E0EF0EF11CC7010E94BA0F81110E9440
S11313603F10C15079F78FEFF801858F0F900FBEB2
S1131370CF911F910F91FF90EF900895CF93DF933A
S1131380EC010FB6F8940F92488159812C8D30E00E
S11313907B8D729FC001739F900D1124FA01E80F99
S11313A0F91FFB83EA831A8E5D834C83821B930BA4
S11313B0840F951F9F838E838FEF8D8F8E8F611186
S11313C00CC08885882389F0CE0108960E94BA0F44
S11313D0882359F00E943F0608C0CE0108960E9457
S11313E00F05CE0141960E940F050F900FBE81E0BC
S11313F0DF91CF910895FF920F931F93CF93DF93C3
S1131400082F162FF42E6623C9F0869FC0011124DD
S113141081960E94F706EC01009749F416C00B8FE1
S11314201C8F61E0CE010E94BE09F8A20EC0819615
S113143099838883F4CFD983C883F1CF81E290E084
S11314400E94F706EC01892BB1F7CE01DF91CF9111
S11314501F910F91FF9008959F92AF92BF92CF92E8
S1131460DF92EF92FF920F931F93CF93DF9300D0FD
S113147000D01F92CDB7DEB78C016B015D834C8326
S1131480A22EB12C992493947C0188E0E80EF11CDF
S11314900FB6F8940F92F801328D938D391718F026
S11314A0F2E0AF1219C04A2DB601C8010E94F60835
S11314B0F8019189992349F0C80141960E94BA0F15
S11314C0882331F00E943F0603C081110E943F0629
S11314D00F900FBE81E050C0EC81FD81EF2B21F411
S11314E00F900FBE80E048C0B11005C0CE01019638
S11314F00E940210B92C0F900FBE0E94910D0FB6DE
S1131500F8940F92F801858D8F3F09F4158EF80138
S1131510868D8F3F09F4168E0F900FBEBE016C5F4F
S11315207F4FCE0101960E940D1081111FC00FB68E
S1131530F8940F92F801928D0F900FBE838D98133B
S11315400FC06C817D81C7010E94A70FC8010E9452
S113155071090E94520E81119BCF0E943F0698CFC1
S1131560C8010E9471090E94520E92CFC8010E94C4
S113157071090E94520E80E00F900F900F900F900F
S11315800F90DF91CF911F910F91FF90EF90DF901B
S1131590CF90BF90AF909F900895CF93DF93482F43
S11315A060E081E00E94FB09EC01009761F01B827E
S11315B01A82198218821E8220E040E050E060E026
S11315C070E00E942C0ACE01DF91CF910895EF9232
S11315D0FF920F931F93CF93DF938A01FC01528DE7
S11315E0338D531710F02230F1F4422F7801EC01BF
S11315F01E8D0E94F6081F3F81F489898823A9F073
S1131600CE0141960E94BA0F882389F0E114F104B7
S113161081F081E0F70180830DC0FF24F394F10E83
S1131620FE8E81E007C080E005C081E003C081E058
S113163001C081E0DF91CF911F910F91FF90EF9056
S113164008958F929F92AF92BF92CF92DF92EF92C2
S1131650FF920F931F93CF93DF9300D000D01F927C
S1131660CDB7DEB78C015B015D834C83822EE12C08
S1131670992493946C0181E1C80ED11C0FB6F8949F
S11316800F92F801F28CFF2091F1C680D780B5014A
S1131690C8010E945709811019C0FA94F801F28E0A
S11316A080819181892B29F40E94E510F8019383AC
S11316B08283F80180858823B1F0C80108960E94CE
S11316C0BA0F882381F00E943F060DC0F801D7822B
S11316D0C6828189882339F0C80141960E94BA0FD5
S11316E081110E943F060F900FBE81E064C04C81BF
S11316F05D81452B21F40F900FBE80E05CC0E110AA
S113170005C0CE0101960E940210E92C0F900FBE75
S11317100E94910D0FB6F8940F92F801858D8F3FBA
S113172009F4158EF801968D9F3F09F4168E0F90DB
S11317300FBEBE016C5F7F4FCE0101960E940D105B
S113174081112BC00FB6F8940F92F801828D0F907F
S11317500FBE81111CC080819181892B49F40FB681
S1131760F8940F92828193810E9443100F900FBED0
S11317706C817D81C6010E94A70FC8010E94710976
S11317800E94520E81117ACF0E943F0677CFC80182
S11317900E9471090E94520E71CFC8010E94710902
S11317A00E94520E0FB6F8940F92F801828D0F909A
S11317B00FBE811163CF0F900F900F900F900F9079
S11317C0DF91CF911F910F91FF90EF90DF90CF9019
S11317D0BF90AF909F908F900895E0918A07F09109
S11317E08B078081811107C08FEF9FEF90936B0768
S11317F080936A070895E0918A07F0918B0705802A
S1131800F681E02D0680F781E02D8281938190930B
S11318106B0780936A0708950F931F93CF93DF9309
S1131820EC0100917207109173078091C2079091A7
S1131830C30702960E947305C00FD11FE091C2072F
S1131840F091C307D383C283C017D10768F46091B2
S1131850C2077091C30780918807909189076E5FD2
S11318607F4F0E94420517C06091C2077091C30761
S113187080918A0790918B076E5F7F4F0E9442058B
S113188080916A0790916B07C817D90720F4D09309
S11318906B07C0936A07DF91CF911F910F91089551
S11318A04F925F926F927F928F929F92AF92BF926C
S11318B0CF92DF92EF92FF920F93CF93DF934C017D
S11318C0EB016A012901CA010E94F7065C01892B18
S11318D009F4ECC08CE290E00E94F7063C0100970A
S11318E0B9F0FC01B08EA78AA60165EA70E0C501D3
S11318F00E94AB12F1E0CF1AD108F3018789908DD1
S1131900C80ED91E8881818F8881811105C014C0B9
S1131910C5010E942C07CAC0D3015A96FE01319614
S11319209E01285F3F4FEF0181918D938881882329
S113193019F0E217F307B9F7F30110A2043008F025
S113194003E0F301068B03A314A2E3012296CE0164
S11319500E941D05C3010C960E941D05F3017186AA
S1131960608684E090E0801B910995878487738A60
S1131970628A16A215A217A210A611A612A613A671
S1131980A201B401C6010E949905F30191838083E9
S1131990E114F10419F0F701718260820FB6F89432
S11319A00F92809174078F5F809374078091C207B0
S11319B09091C307892BA9F57092C3076092C2075F
S11319C0809174078130F1F58EE997E00E940F054C
S11319D087EA97E00E940F0580EB97E00E940F05CD
S11319E089EB97E00E940F0585E997E00E940F05B7
S11319F08CE897E00E940F058FE797E00E940F059F
S1131A0086E797E00E940F0585E997E090938B079E
S1131A1080938A078CE897E09093890780938807DE
S1131A2011C08091700781110DC0E091C207F0913F
S1131A30C3079689F3018689891720F07092C3073A
S1131A406092C20780916C078F5F80936C07F301EB
S1131A5081A3868990917107981710F48093710778
S1131A6090E09C01220F331F220F331F220F331FDC
S1131A70820F931FBE018256984F0E9421050F903A
S1131A800FBE80917007882369F0E091C207F0913E
S1131A90C3079689F3018689981730F40E943F069C
S1131AA081E005C081E003C081E001C08FEFDF91D8
S1131AB0CF910F91FF90EF90DF90CF90BF90AF90B8
S1131AC09F908F907F906F905F904F900895EF92CA
S1131AD0FF920F930F2EF8E6EF2EF7E0FF2EF02D76
S1131AE000E020E030E045E550E06CE571E085EE93
S1131AF09EE00E94500C813081F4F8948FEF9FEFA8
S1131B0090936B0780936A0781E08093700710922B
S1131B107307109272070E9405060F91FF90EF90D1
S1131B200895809167078F5F809367070895CF9228
S1131B30DF92EF92FF920F931F93CF93DF938091E5
S1131B406707811199C0E0907207F09073078FEFD7
S1131B50E81AF80AF0927307E0927207E114F104AC
S1131B60B9F480918A0790918B072091880730916E
S1131B70890730938B0720938A0790938907809372
S1131B80880780916D078F5F80936D070E94ED0B2E
S1131B9080916A0790916B07E816F90610F4D12C2E
S1131BA053C0D12CCC24C394E0918A07F0918B07C5
S1131BB09081911107C08FEF9FEF90936B078093F3
S1131BC06A0742C0E0918A07F0918B070580F6818D
S1131BD0E02DC681D7812A813B81E216F30628F4E1
S1131BE030936B0720936A072FC08E010E5F1F4F3F
S1131BF0C8010E9473058C899D89892B21F0CE012F
S1131C000C960E9473052E8980917107821710F437
S1131C102093710730E0C901880F991F880F991F1D
S1131C20880F991F820F931FB8018256984F0E9404
S1131C302105E091C207F091C3079E898689981710
S1131C4008F4B2CFDC2CB0CFE091C207F091C30707
S1131C50868990E0FC01EE0FFF1FEE0FFF1FEE0FD1
S1131C60FF1F8E0F9F1FFC01E256F84F80818230C8
S1131C7048F0DD24D39406C080916F078F5F809372
S1131C806F07D12C80916E07882311F0DD24D39443
S1131C908D2DDF91CF911F910F91FF90EF90DF90E9
S1131CA0CF900895DF92EF92FF920F931F93CF93FB
S1131CB0DF930FB6F8940F92809167078150809359
S1131CC067078091670781115FC080917407811154
S1131CD033C05DC0D7011596ED91FC911697C6816E
S1131CE0D781CE010C960E9473058E010E5F1F4FA3
S1131CF0C8010E9473052E8980917107821710F420
S1131D002093710730E0C901880F991F880F991F2C
S1131D10880F991F820F931FB8018256984F0E9413
S1131D202105E091C207F091C3079E89868998171F
S1131D3068F0D0926E070AC0C0E0D0E00F2EFFE733
S1131D40EF2EF7E0FF2EF02DDD24D394F7018081F0
S1131D508111C0CFCD2B11F00E94ED0BC0916F0704
S1131D60CC2351F0D1E00E94970D8111D0936E07DE
S1131D70C150C9F710926F0780916E07882331F024
S1131D800E943F0681E003C080E001C080E00F9024
S1131D900FBEDF91CF911F910F91FF90EF90DF90D5
S1131DA00895CF93DF93EC01892B51F00E94910D9C
S1131DB060E0CE010E940C0C0E94520E811102C000
S1131DC00E943F06DF91CF91089506E717E00F2E9A
S1131DD0FEE9EF2EF7E0FF2EF02D29C00E94910DB1
S1131DE0D801CC910E94520ECC2309F10FB6F8947D
S1131DF00F92D8011596ED91FC911697C681D78163
S1131E00CE0102960E9473058091740781508093DD
S1131E107407809175078150809375070F900FBEEA
S1131E208F89988D0E942C07CE010E942C078091E7
S1131E3075078111D3CFF7018081823010F00E94A1
S1131E403F060E94EE03F3CF009721F48091C2076E
S1131E509091C3070FB6F8940F92FC0176A365A383
S1131E600F900FBE089580916707882321F081E0C9
S1131E7080936E07089510926E07E091C207F09167
S1131E80C30785A10E94C80420917107822F90E0A6
S1131E90FC01EE0FFF1FEE0FFF1FEE0FFF1FE80FF9
S1131EA0F91FE256F84F3081311111C02150822FB1
S1131EB090E0FC01EE0FFF1FEE0FFF1FEE0FFF1F60
S1131EC0E80FF91FE256F84F3081332379F3AC0160
S1131ED0440F551F440F551F440F551F480F591FDA
S1131EE0DA01A256B84F1196ED91FC911297028037
S1131EF0F381E02D1296FC93EE9311974F55584FB2
S1131F00E417F50729F442815381FD01528341838B
S1131F10FC01EE0FFF1FEE0FFF1FEE0FFF1F8E0FD2
S1131F209F1FFC01E256F84F0180F281E02D86816B
S1131F3097819093C3078093C20720937107E09120
S1131F40C207F091C30785A10E94BD040895CF93F1
S1131F50DF93EB012091C2073091C307B901645F9D
S1131F607F4F0E94420561E0CE010E940C0CDF917C
S1131F70CF9108950F931F93CF93DF93DC011596B0
S1131F80ED91FC911697C681D7818E01045F1F4F96
S1131F90C8010E9473058091670781111CC00A5013
S1131FA01109C8010E9473052E8980917107821757
S1131FB010F42093710730E0C901880F991F880F2E
S1131FC0991F880F991F820F931FB8018256984F4B
S1131FD00E94210505C0B8018FE797E00E94210502
S1131FE0E091C207F091C3079E898689891720F47E
S1131FF081E080936E0701C080E0DF91CF911F9153
S11320000F91089520916D07FC01208320917207A0
S113201030917307328321830895CF93DF93FC01BA
S11320200FB6F8940F922091720730917307809144
S11320306D079081981729F08181928128173907BB
S1132040B0F4A181B281EB0148815981C9018A1B95
S11320509B0B8417950768F4CF01A21BB30B4A0F9F
S11320605B1F598348830E94021080E003C081E013
S113207001C081E00F900FBEDF91CF91089581E000
S113208080936E0708950F931F93CF93DF93FC0102
S1132090892B09F455C02689A091C207B091C307C2
S11320A056968C91281708F04BC084859585992302
S11320B064F0A091C207B091C30756963C9184E0A6
S11320C090E0831B91099587848730E0C901880FCC
S11320D0991F880F991F880F991F280F391F22569F
S11320E0384F828593858217930719F58F01EF0185
S11320F02296CE010E947305E091C207F091C307B6
S11321002689F801268B80917107821710F4209399
S1132110710730E0C901880F991F880F991F880F34
S1132120991F820F931FBE018256984F0E9421056A
S113213007C0A091C207B091C30756968C91868BB5
S1132140DF91CF911F910F9108950F931F93CF9318
S1132150DF93FC01892B79F184A1815084A3268922
S113216093A1291751F181112AC0EF018F010E5F4C
S11321701F4FC8010E9473052BA12E8B44E050E031
S1132180421B51095D874C8780917107821710F4B7
S11321902093710730E0C901880F991F880F991F98
S11321A0880F991F820F931FB8018256984F0E947F
S11321B0210581E005C080E003C080E001C080E02B
S11321C0DF91CF911F910F9108958091C207909153
S11321D0C307892B39F0E091C207F091C30784A1AA
S11321E08F5F84A38091C2079091C3070895A1E2F1
S11321F01A2EAA1BBB1BFD010DC0AA1FBB1FEE1F7D
S1132200FF1FA217B307E407F50720F0A21BB30BC7
S1132210E40BF50B661F771F881F991F1A9469F743
S113222060957095809590959B01AC01BD01CF019F
S11322300895CF93DF938230910510F482E090E00B
S1132240E091C607F091C70720E030E0C0E0D0E09D
S1132250309711F14081518148175907C0F0481750
S1132260590761F482819381209719F09B838A83B3
S11322702BC09093C7078093C60726C0211531054C
S113228019F04217530718F49A01BE01DF01EF0158
S11322900280F381E02DDCCF2115310509F1281BE3
S11322A0390B2430310590F412968D919C9113973B
S11322B06115710521F0FB019383828304C090931F
S11322C0C7078093C607FD01329644C0FD01E20FA3
S11322D0F31F81939193225031092D933C933AC07B
S11322E02091C4073091C507232B41F420910201AA
S11322F0309103013093C5072093C4072091000156
S1132300309101012115310541F42DB73EB74091BB
S1132310040150910501241B350BE091C407F09191
S1132320C507E217F307A0F42E1B3F0B2817390744
S113233078F0AC014E5F5F4F2417350748F04E0F1D
S11323405F1F5093C5074093C4078193919302C0C4
S1132350E0E0F0E0CF01DF91CF9108950F931F9358
S1132360CF93DF93009709F48CC0FC01329713825A
S113237012820091C6071091C7070115110581F457
S113238020813181820F931F2091C4073091C507AA
S11323902817390779F5F093C507E093C40771C08E
S11323A0D80140E050E0AE17BF0750F412962D91CB
S11323B03C911397AD012115310509F1D901F3CFF2
S11323C09D01DA013383228360817181860F971F17
S11323D08217930769F4EC0128813981260F371F8E
S11323E02E5F3F4F318320838A819B819383828335
S11323F0452B29F4F093C707E093C60742C0139610
S1132400FC93EE931297ED01499159919E01240F8B
S1132410351FE217F30771F480819181840F951FB2
S1132420029611969C938E938281938113969C932A
S11324308E931297E0E0F0E0D80112968D919C9172
S11324401397009719F0F8018C01F6CF8D919C91A8
S113245098012E5F3F4F820F931F2091C407309144
S1132460C5072817390769F4309729F41092C7076C
S11324701092C60702C0138212821093C5070093FC
S1132480C407DF91CF911F910F9108958F929F926E
S1132490AF92BF92CF92DF92EF92FF92CF93DF93EE
S11324A0EC01688179818A819B81611571058105BF
S11324B0910521F464E279ED8BE597E02DE133EFAA
S11324C041E050E00E94B21249015A019B01AC0163
S11324D0A7EAB1E40E94D1126B017C01ACEEB4EF27
S11324E0A50194010E94DF12DC01CB018C0D9D1D1E
S11324F0AE1DBF1DB7FF03C00197A109B048888373
S11325009983AA83BB839F77DF91CF91FF90EF904C
S1132510DF90CF90BF90AF909F908F9008950E94CE
S11325204612089586E091E00E9446120895A0E0C4
S1132530B0E08093060190930701A0930801B09343
S113254009010895FB01DC0102C001900D92415084
S11325505040D8F70895DC0101C06D9341505040BC
S1132560E0F70895052E97FB1EF400940E94C9120B
S113257057FD07D00E94F71007FC03D04EF40C94CB
S1132580C91250954095309521953F4F4F4F5F4F5D
S1132590089590958095709561957F4F8F4F9F4FCB
S11325A008950E94E412A59F900DB49F900DA49FDE
S11325B0800D911D11240895B7FF0C94D1120E942F
S11325C0D112821B930B0895A29FB001B39FC00147
S11325D0A39F700D811D1124911DB29F700D811D4B
S10D25E01124911D0895F894FFCF13
S11325EA0000C807200001000000C600CE004F62A8
S11325FA737461636C657300446973706C617920E8
S113260A757064617465720047616D65206C6F67EB
S113261A6963004A6F79737469636B2073616D70BF
S113262A6C6572005468656E207765205374617214
S113263A74210A00537461727475700049444C45DC
S105264A00008A
S9030000FC
