S01100004669727374546573742E737265636B
S11300000C943E000C945B000C945B000C945B001D
S11300100C945B000C945B000C945B000C945B00F0
S11300200C945B000C945B000C945B000C945B00E0
S11300300C945B000C94D4050C945B000C945B0052
S11300400C9421030C945B000C945B000C945B00F7
S11300500C94CA060C9408070C945B000C945B0087
S11300600C945B000C945B000C945B000C945B00A0
S11300700C9450070C948E070C945B0011241FBE43
S1130080CFEFD8E0DEBFCDBF11E0A0E0B1E0ECEBF4
S1130090FFE102C005900D92AA33B107D9F727E01A
S11300A0AAE3B1E001C01D92A031B207E1F70E94BA
S11300B0D3020C94DC0F0C94000061E070E080E04B
S11300C090E00E941E0D40E061E08EE10E94C108B4
S11300D090937202809371020E940A0381E00E944D
S11300E093099093700280936F02E12CF12C05E048
S11300F020E030E045E550E06AE071E086E392E01C
S11301000E944A0A04E020E030E045E550E062E164
S113011071E088E892E00E944A0A6FE08CE191E085
S11301200E944A03FFCFCF92DF92EF92FF920F9388
S11301301F93CF93DF93C3E5D2E04BE351E003E594
S113014012E0C12CD12C61E070E0DE01198218822A
S1130150FA018C2D9D2D219131912130310579F4B5
S1130160ED90FC9011979B01082E02C0220F331FC3
S11301700A94E2F72E293F2911963C932E93019677
S11301808A30910541F722964C5E5F4F4017510724
S1130190E1F6DF91CF911F910F91FF90EF90DF90E7
S11301A0CF9008958130910509F462C040F0823007
S11301B0910509F4A2C0039709F4FCC00895DB017A
S11301C012962D913C911397C90101968A3091059D
S11301D008F04BC14D915C91DA01AA0FBB1FFA01E3
S11301E0EE0FFF1FEE0FFF1FEE0FFF1FEA0FFB1FA7
S11301F0E80FF91FEE0FFF1FE55CFE4F8081918130
S1130200892B09F032C1FD01440F551F440F551FBE
S1130210440F551FE40FF51FE20FF31FEE0FFF1FEE
S1130220E55CFE4F11821082FB01208131818281C5
S11302309381019693838283F901EE0FFF1F220FAE
S1130240331F220F331F220F331FE20FF31FE80F58
S1130250F91FEE0FFF1FE55CFE4F81E090E09183F4
S113026080830E94930088EC90E00E94CB0C089558
S1130270DB0112968D919C911397009709F4F5C0B8
S11302802D913C911197F901EE0FFF1F220F331F9F
S1130290220F331F220F331FE20FF31FE80FF91F42
S11302A0EE0FFF1FE55CFE4F1182108212968D91B6
S11302B09C911397019713969C938E9312972D916B
S11302C03C91F901EE0FFF1F220F331F220F331F42
S11302D0220F331FE20FF31FE80FF91FEE0FFF1F6A
S11302E0E55CFE4F81E090E0918380830E9493005F
S11302F088EC90E00E94CB0C0895FB0120813181B1
S1130300C90101968E30910508F0AFC04281538136
S1130310FC01EE0FFF1F880F991F880F991F880F8C
S1130320991FE80FF91FE40FF51FEE0FFF1FE55C9F
S1130330FE4F80819181892B09F097C0C901880FF4
S1130340991F220F331F220F331F220F331F280F31
S1130350391FF901E40FF51FEE0FFF1FE55CFE4F97
S113036011821082DB018D919C9111970196119657
S11303709C938E931296ED91FC9113979C01220FFE
S1130380331F880F991F880F991F880F991F820F99
S1130390931FE80FF91FEE0FFF1FE55CFE4F81E08E
S11303A090E0918380830E94930088EC90E00E9407
S11303B0CB0C0895FB01208131812115310509F40D
S11303C054C042815381C9010197FC01EE0FFF1F04
S11303D0880F991F880F991F880F991FE80FF91F1D
S11303E0E40FF51FEE0FFF1FE55CFE4F8081918146
S11303F0892BD9F5C901880F991F220F331F220FAA
S1130400331F220F331F280F391FF901E40FF51F83
S1130410EE0FFF1FE55CFE4F11821082DB018D9110
S11304209C911197019711969C938E931296ED913E
S1130430FC9113979C01220F331F880F991F880F7B
S1130440991F880F991F820F931FE80FF91FEE0F52
S1130450FF1FE55CFE4F81E090E0918380830E9462
S1130460930088EC90E00E94CB0C0895CF93DF9327
S113047000D000D0CDB7DEB762E070E080E090E05D
S11304800E941E0DEBE3F1E023E532E009C0119276
S11304901192E817F907D9F7FC012817390719F061
S11304A0CF014496F4CF1A8219821C821B8281E008
S11304B090E090933C0180933B019093C001809322
S11304C0BF010E949300309907C0BE016F5F7F4F48
S11304D080E090E00E94D200319907C0BE016F5FB6
S11304E07F4F82E090E00E94D200369907C0BE019F
S11304F06F5F7F4F81E090E00E94D2003799E3CF95
S1130500BE016F5F7F4F83E090E00E94D200DBCF9B
S11305100BE311E0C1E0D0E0F801D7A3C6A30E9429
S1130520930088EC90E00E94CB0CF6CF5A9A089581
S11305305D9A5D985C9A5C985A980895809582B902
S113054085B1836085B985B193709095892385B908
S11305500895CF93C0913A01C1110EC00E94960232
S113056080915302909154020E949E020E9498022C
S113057081E080933A0114C0EC2FF0E0EE0FFF1FEE
S1130580ED5AFD4F808191810E949E020E94980243
S1130590CF5FCE3018F4C0933A0102C010923A01F2
S11305A0CF91089508950E9453035E98E12CF12C95
S11305B000E020E030E045E550E06CE271E08DE5DC
S11305C090E00E944A0A89EA92E00E940F0378941C
S11305D00E94610BFFCFCF93DF9300D0CDB7DEB77E
S11305E06A838091BB029091BC02009771F01982DA
S11305F020E0AE014F5F5F4FBE016E5F7F4F0E94F0
S1130600AD09898181110E941F050F900F90DF9120
S1130610CF9108959093BC028093BB020895909368
S1130620BA028093B9028AE087BD84B5826084BD32
S1130630EEE6F0E080818260808385B5856085BDCB
S113064008951F920F920FB60F9211242F933F9388
S11306504F935F936F937F938F939F93AF93BF93C6
S1130660EF93FF93E091B902F091BA02309709F049
S11306700995FF91EF91BF91AF919F918F917F91D8
S11306806F915F914F913F912F910F900FBE0F90FB
S11306901F901895462FBC018091BD029091BE0217
S11306A00E94870608958F929F92AF92BF92CF9235
S11306B0DF92EF920F9386E992E00E94AC0383E706
S11306C092E00E94AC030F2EFBEE8F2EF2E09F2EE1
S11306D0F02D0F2EF3E7AF2EF2E0BF2EF02D0F2EEC
S11306E0F6E9CF2EF2E0DF2EF02DE12C00E023E03E
S11306F040E052EC61E070E080E00E940D069093CF
S1130700BE028093BD0288B1836C88B95B9A8AB1BA
S113071084678AB95E9A81B18FEF81B984B18360AD
S113072084B984B18C6384B90F91EF90DF90CF903A
S1130730BF90AF909F908F90089595B1937C95B999
S113074025B134E0839FC0011124822B85B908951B
S113075085B1837C85B90895FC0110A211A212A26F
S11307600895FC0182A18823D9F081A1DF01A80F9B
S1130770B11D8C91DB018C9321A130E02F5F3F4FA1
S11307802F713078332334F421503109206E3F6FB8
S11307902F5F3F4F21A382A1815082A380E008955F
S11307A081E00895FC0142A14032B8F420A130E078
S11307B0E20FF31F60832F5F3F4F2F713078332395
S11307C034F421503109206E3F6F2F5F3F4FFC01FD
S11307D020A34F5F42A380E0089582E00895FC01C6
S11307E00396928381832FEF3FEF34832383968391
S11307F085839087878310820895FC011186108673
S11308000895CF93DF939C01FB01DC011196CD91F8
S1130810DC911297D383C2838C819D8195838483D9
S11308208C819D81DC0113967C936E9312977D835A
S11308306C8331872087F90180818F5F8083DF910A
S1130840CF910895CF93DF93EB01488159814F3FB6
S11308502FEF520721F4FC01A781B0850DC0DC0104
S1130860139601C0DF011296ED91FC91139720813C
S1130870318142175307B0F71296ED91FC9113970B
S1130880FB83EA83D583C483BD83AC831396DC9353
S1130890CE93129799878887FC0120812F5F20834C
S11308A0DF91CF910895CF93DF93FC01A085B185AB
S11308B0C281D381848195819D838C83C481D581B8
S11308C0828193819B838A831196CD91DC911297C7
S11308D0CE17DF0731F48C819D8112969C938E9301
S11308E01197118610868C9181508C93DF91CF9152
S11308F0089531E1FC013083319722E2208331975E
S1130900A3E3A0833197608331977083319710827A
S1130910319760E8608331971082319762E0608399
S1130920319763E06083319764E06083319765E0D9
S11309306083319766E06083319767E06083319725
S113094068E06083319769E06083319760E1608398
S113095031973083319732E13083319733E13083FB
S1130960319734E13083319735E13083319736E183
S11309703083319737E13083319738E130833197D1
S113098039E13083319730E23083319731E230837B
S113099031972083319723E2208331974083319725
S11309A05083319726E22083319727E220833197C1
S11309B028E22083319729E22083319720E32083A2
S11309C0319721E32083869708951092890085EE5C
S11309D0809388008BE080938100EFE6F0E08081D3
S11309E082608083A0910A07B0910B07CD91CDBF9F
S11309F0DD91DEBFFF91EF91DF91CF91BF91AF9178
S1130A009F918F917F916F915F914F913F912F9122
S1130A101F910F91FF90EF90DF90CF90BF90AF9018
S1130A209F908F907F906F905F904F903F902F900A
S1130A301F900F900FBE0F90089581E008950F92BC
S1130A400FB6F8940F921F9211242F923F924F9257
S1130A505F926F927F928F929F92AF92BF92CF924A
S1130A60DF92EF92FF920F931F932F933F934F9335
S1130A705F936F937F938F939F93AF93BF93CF9322
S1130A80DF93EF93FF93A0910A07B0910B070DB684
S1130A900D920EB60D920E942D0DA0910A07B091F1
S1130AA00B07CD91CDBFDD91DEBFFF91EF91DF91BB
S1130AB0CF91BF91AF919F918F917F916F915F91F2
S1130AC04F913F912F911F910F91FF90EF90DF90E5
S1130AD0CF90BF90AF909F908F907F906F905F90DA
S1130AE04F903F902F901F900F900FBE0F9008953E
S1130AF00F920FB6F8940F921F9211242F923F92E7
S1130B004F925F926F927F928F929F92AF92BF9219
S1130B10CF92DF92EF92FF920F931F932F933F9305
S1130B204F935F936F937F938F939F93AF93BF93F1
S1130B30CF93DF93EF93FF93A0910A07B0910B0734
S1130B400DB60D920EB60D920E94910B81110E946A
S1130B502D0DA0910A07B0910B07CD91CDBFDD916A
S1130B60DEBFFF91EF91DF91CF91BF91AF919F9144
S1130B708F917F916F915F914F913F912F911F9131
S1130B800F91FF90EF90DF90CF90BF90AF909F9028
S1130B908F907F906F905F904F903F902F901F9019
S1130BA00F900FBE0F9008950E9478051895CF936B
S1130BB0DF93EC010E948B0B8091BF029091C002E5
S1130BC0892B31F484EC92E09093C0028093BF02AD
S1130BD02091C1023091C202CE01820F931F873E41
S1130BE043E0940770F42817390770F4C091BF02EA
S1130BF0D091C002C20FD31F9093C2028093C1024E
S1130C0005C0C0E0D0E002C0C0E0D0E00E944C0CBF
S1130C10CE01DF91CF91089508954F925F926F9224
S1130C207F928F929F92AF92BF92CF92DF92FF9268
S1130C300F931F93CF93DF93CDB7DEB7F82E2A011E
S1130C403B0188E090E00E949F0E8C018F2D90E084
S1130C50880F991FFC01E555F94F11830083FC01AE
S1130C60EA5FFE4F80819181D80111969C938E9307
S1130C701396BC92AE9212971596DC92CE9214976C
S1130C8017969C928E921697FFB6F894ED91FC916C
S1130C9011973697808182608083CD90DC90D30158
S1130CA0C201880F991FAA1FBB1F880F991FAA1F73
S1130CB0BB1F9C01AD01220F331F441F551F60E071
S1130CC070E081EE90E00E947D0E2150F601329793
S1130CD02083D801ED91FC911197359788E98083A1
S1130CE0ED91FC91349786E08083FFBEC801DF91CB
S1130CF0CF911F910F91FF90DF90CF90BF90AF9055
S1130D009F908F907F906F905F904F900895EF9297
S1130D10FF920F931F93CF93DF93FC01A281B381C2
S1130D20109779F0E42FF0E092965C9120E230E0A5
S1130D30251B31092E173F071CF17C01411104C00A
S1130D4016C04230F8F4F9CFEB014150042F10E003
S1130D500F5F1F4F060F171F6991D70112968D91D0
S1130D609C9113970E94D203C017D107A9F7D7010A
S1130D70ED91FC91359780818062808380E003C08F
S1130D8082E001C082E0DF91CF911F910F91FF902B
S1130D90EF9008951F920F920FB60F9211242F9384
S1130DA03F934F935F936F937F938F939F93AF93EF
S1130DB0BF93CF93EF93FF93E091AB06F091AC0612
S1130DC03097A1F0C091C6006C2F848195810E9458
S1130DD0D2038091AB069091AC06DC011696ED919E
S1130DE0FC911797309711F06C2F0995FF91EF91B3
S1130DF0CF91BF91AF919F918F917F916F915F91AF
S1130E004F913F912F910F900FBE0F901F90189507
S1130E101F920F920FB60F9211242F933F934F936B
S1130E205F936F937F938F939F93AF93BF93EF934E
S1130E30FF93CF93DF931F92CDB7DEB7E091AB065C
S1130E40F091AC06309799F0BE016F5F7F4F8281BD
S1130E5093810E94B103811104C089818093C600EB
S1130E600BC0E1ECF0E080818F7D808305C0E1EC74
S1130E70F0E080818F7D80830F90DF91CF91FF918F
S1130E80EF91BF91AF919F918F917F916F915F91FE
S1130E904F913F912F910F900FBE0F901F90189577
S1130EA01F920F920FB60F9211242F933F934F93DB
S1130EB05F936F937F938F939F93AF93BF93CF93DE
S1130EC0EF93FF93E091AD06F091AE063097A1F059
S1130ED0C091CE006C2F848195810E94D2038091B1
S1130EE0AD069091AE06DC011696ED91FC91179734
S1130EF0309711F06C2F0995FF91EF91CF91BF912D
S1130F00AF919F918F917F916F915F914F913F919D
S1130F102F910F900FBE0F901F9018951F920F9254
S1130F200FB60F9211242F933F934F935F936F93B8
S1130F307F938F939F93AF93BF93EF93FF93CF933D
S1130F40DF931F92CDB7DEB7E091AD06F091AE0608
S1130F50309799F0BE016F5F7F4F828193810E9429
S1130F60B103811104C089818093CE000BC0E9ECE8
S1130F70F0E080818F7D808305C0E9ECF0E0808122
S1130F808F7D80830F90DF91CF91FF91EF91BF917F
S1130F90AF919F918F917F916F915F914F913F910D
S1130FA02F910F900FBE0F901F9018950F931F93C2
S1130FB0CF93DF93EC01042F1A8D8C8D81110CC01B
S1130FC088819981892B09F044C08A819B810E9480
S1130FD03D0E1B821A8244C0411118C0482F50E0B4
S1130FE08C819D810E94CC0F2C8D8C819D81820FE0
S1130FF0911D9D838C832A813B818217930758F12D
S1131000888199819D838C8380E02AC0482F50E099
S11310108E819F810E94CC0F8C8D90E0919581955B
S113102091092E813F81280F391F3F832E834881E8
S113103059812417350730F42A813B81820F931F8D
S11310409F838E83023049F4112349F0115080E0CC
S113105007C080E005C080E003C080E001C080E0FC
S11310601F5F1A8FDF91CF911F910F910895EF9217
S1131070FF920F931F93CF938C010FB6F8940F92A6
S1131080FC01C68D1C16ACF48189811106C011C007
S1131090F8019189911105C00CC07801F1E1EF0EBE
S11310A0F11CC7010E94B40D81110E94390EC15078
S11310B079F78FEFF801868F0F900FBE0FB6F89473
S11310C00F92C58D1C16ACF48085811106C011C029
S11310D0F8019085911105C00CC07801F8E0EF0E7D
S11310E0F11CC7010E94B40D81110E94390EC15038
S11310F079F78FEFF801858F0F900FBECF911F9175
S11311000F91FF90EF900895CF93DF93EC010FB60A
S1131110F8940F92488159812C8D30E07B8D729F19
S1131120C001739F900D1124FA01E80FF91FFB838E
S1131130EA831A8E5D834C83821B930B840F951F65
S11311409F838E838FEF8D8F8E8F61110CC0888566
S1131150882389F0CE0108960E94B40D882359F0A3
S11311600E941F0508C0CE0108960E94EF03CE011D
S113117041960E94EF030F900FBE81E0DF91CF9163
S11311800895FF920F931F93CF93DF93082F162F89
S1131190F42E6623C9F0869FC001112481960E9413
S11311A0D705EC01009749F416C00B8F1C8F61E042
S11311B0CE010E948408F8A20EC081969983888388
S11311C0F4CFD983C883F1CF81E290E00E94D705A0
S11311D0EC01892BB1F7CE01DF91CF911F910F91D3
S11311E0FF9008959F92AF92BF92CF92DF92EF92B9
S11311F0FF920F931F93CF93DF9300D000D01F92E1
S1131200CDB7DEB78C016B015D834C83A22EB12C6C
S1131210992493947C0188E0E80EF11C0FB6F894AD
S11312200F92F801328D938D391718F0F2E0AF1256
S113123019C04A2DB601C8010E94D607F801918948
S1131240992349F0C80141960E94B40D882331F0D6
S11312500E941F0503C081110E941F050F900FBE3D
S113126081E050C0EC81FD81EF2B21F40F900FBE83
S113127080E048C0B11005C0CE0101960E94FC0D6B
S1131280B92C0F900FBE0E948B0B0FB6F8940F92DF
S1131290F801858D8F3F09F4158EF801868D8F3FF7
S11312A009F4168E0F900FBEBE016C5F7F4FCE0106
S11312B001960E94070E81111FC00FB6F8940F9279
S11312C0F801928D0F900FBE838D98130FC06C811F
S11312D07D81C7010E94A10DC8010E9437080E94A8
S11312E04C0C81119BCF0E941F0598CFC8010E940E
S11312F037080E944C0C92CFC8010E9437080E9404
S11313004C0C80E00F900F900F900F900F90DF9196
S1131310CF911F910F91FF90EF90DF90CF90BF90EE
S1131320AF909F900895CF93DF93482F60E081E0C2
S11313300E94C108EC01009761F01B821A82198295
S113134018821E8220E040E050E060E070E00E94DD
S1131350F208CE01DF91CF910895EF92FF920F939F
S11313601F93CF93DF938A01FC01528D338D531762
S113137010F02230F1F4422F7801EC011E8D0E940E
S1131380D6071F3F81F489898823A9F0CE014196AD
S11313900E94B40D882389F0E114F10481F081E006
S11313A0F70180830DC0FF24F394F10EFE8E81E0DB
S11313B007C080E005C081E003C081E001C081E096
S11313C0DF91CF911F910F91FF90EF900895E091DD
S11313D0D206F091D3068081811107C08FEF9FEF71
S11313E09093B3068093B2060895E091D206F091EB
S11313F0D3060580F681E02D0680F781E02D8281F9
S113140093819093B3068093B20608950F931F932C
S1131410CF93DF93EC010091BA061091BB06809143
S11314200A0790910B0702960E945304C00FD11F24
S1131430E0910A07F0910B07D383C283C017D10749
S113144068F460910A0770910B078091D00690911F
S1131450D1066E5F7F4F0E94220417C060910A0775
S113146070910B078091D2069091D3066E5F7F4FE7
S11314700E9422048091B2069091B306C817D9073E
S113148020F4D093B306C093B206DF91CF911F919D
S11314900F9108954F925F926F927F928F929F92D5
S11314A0AF92BF92CF92DF92EF92FF920F93CF93BE
S11314B0DF934C01EB016A012901CA010E94D7059F
S11314C05C01892B09F4ECC08CE290E00E94D70502
S11314D03C010097B9F0FC01B08EA78AA60165EA29
S11314E070E0C5010E94D50FF1E0CF1AD108F301D5
S11314F08789908DC80ED91E8881818F888181113A
S113150005C014C0C5010E940C06CAC0D3015A9676
S1131510FE0131969E01285F3F4FEF0181918D932B
S11315208881882319F0E217F307B9F7F30110A2B1
S1131530043008F003E0F301068B03A314A2E301D3
S11315402296CE010E94FD03C3010C960E94FD0366
S1131550F3017186608684E090E0801B9109958791
S11315608487738A628A16A215A217A210A611A6EE
S113157012A613A6A201B401C6010E947904F301C4
S113158091838083E114F10419F0F7017182608280
S11315900FB6F8940F928091BC068F5F8093BC06BF
S11315A080910A0790910B07892BA9F570920B077C
S11315B060920A078091BC068130F1F586EE96E0D0
S11315C00E94EF038FEE96E00E94EF0388EF96E00F
S11315D00E94EF0381E097E00E94EF038DED96E017
S11315E00E94EF0384ED96E00E94EF0387EC96E0FF
S11315F00E94EF038EEB96E00E94EF038DED96E0E0
S11316009093D3068093D20684ED96E09093D1060E
S11316108093D00611C08091B80681110DC0E0916D
S11316200A07F0910B079689F3018689891720F040
S113163070920B0760920A078091B4068F5F8093C3
S1131640B406F30181A386899091B906981710F422
S11316508093B90690E09C01220F331F220F331FA1
S1131660220F331F820F931FBE018A51994F0E948C
S113167001040F900FBE8091B806882369F0E091B1
S11316800A07F0910B079689F3018689981730F4BD
S11316900E941F0581E005C081E003C081E001C014
S11316A08FEFDF91CF910F91FF90EF90DF90CF906C
S11316B0BF90AF909F908F907F906F905F904F906E
S11316C00895EF92FF920F930F2EF0EBEF2EF6E0BA
S11316D0FF2EF02D00E020E030E045E550E064E32B
S11316E071E08FED9CE00E944A0A813081F4F89405
S11316F08FEF9FEF9093B3068093B20681E08093BF
S1131700B8061092BB061092BA060E94E5040F9127
S1131710FF90EF9008958091AF068F5F8093AF069E
S11317200895CF92DF92EF92FF920F931F93CF937E
S1131730DF938091AF06811199C0E090BA06F090D2
S1131740BB068FEFE81AF80AF092BB06E092BA06DD
S1131750E114F104B9F48091D2069091D30620915A
S1131760D0063091D1063093D3062093D2069093BD
S1131770D1068093D0068091B5068F5F8093B5061D
S11317800E94E7098091B2069091B306E816F90623
S113179010F4D12C53C0D12CCC24C394E091D206A4
S11317A0F091D3069081911107C08FEF9FEF909332
S11317B0B3068093B20642C0E091D206F091D306FC
S11317C00580F681E02DC681D7812A813B81E2160E
S11317D0F30628F43093B3062093B2062FC08E018B
S11317E00E5F1F4FC8010E9453048C899D89892B69
S11317F021F0CE010C960E9453042E898091B906E3
S1131800821710F42093B90630E0C901880F991F9C
S1131810880F991F880F991F820F931FB8018A514F
S1131820994F0E940104E0910A07F0910B079E89E9
S11318308689981708F4B2CFDC2CB0CFE0910A0760
S1131840F0910B07868990E0FC01EE0FFF1FEE0F6D
S1131850FF1FEE0FFF1F8E0F9F1FFC01EA51F94F70
S11318608081823048F0DD24D39406C08091B7068D
S11318708F5F8093B706D12C8091B606882311F030
S1131880DD24D3948D2DDF91CF911F910F91FF9083
S1131890EF90DF90CF900895DF92EF92FF920F9335
S11318A01F93CF93DF930FB6F8940F928091AF06F6
S11318B081508093AF068091AF0681115FC0809103
S11318C0BC06811133C05DC0D7011596ED91FC9122
S11318D01697C681D781CE010C960E9453048E01BF
S11318E00E5F1F4FC8010E9453042E898091B906D0
S11318F0821710F42093B90630E0C901880F991FAC
S1131900880F991F880F991F820F931FB8018A515E
S1131910994F0E940104E0910A07F0910B079E89F8
S11319208689981768F0D092B6060AC0C0E0D0E065
S11319300F2EF7ECEF2EF6E0FF2EF02DDD24D394DE
S1131940F70180818111C0CFCD2B11F00E94E709EE
S1131950C091B706CC2351F0D1E00E94910B8111C4
S1131960D093B606C150C9F71092B7068091B60657
S1131970882331F00E941F0581E003C080E001C08C
S113198080E00F900FBEDF91CF911F910F91FF90D8
S1131990EF90DF900895CF93DF93EC01892B51F002
S11319A00E948B0B60E0CE010E94060A0E944C0C40
S11319B0811102C00E941F05DF91CF9108950EEBA3
S11319C016E00F2EF6EEEF2EF6E0FF2EF02D29C0D6
S11319D00E948B0BD801CC910E944C0CCC2309F1B2
S11319E00FB6F8940F92D8011596ED91FC911697C5
S11319F0C681D781CE0102960E9453048091BC0611
S1131A0081508093BC068091BD0681508093BD06B1
S1131A100F900FBE8F89988D0E940C06CE010E94F4
S1131A200C068091BD068111D3CFF70180818230ED
S1131A3010F00E941F050E94D202F3CF009721F4F8
S1131A4080910A0790910B070FB6F8940F92FC014E
S1131A5076A365A30F900FBE08958091AF068823E7
S1131A6021F081E08093B60608951092B606E091C5
S1131A700A07F0910B0785A10E94A8032091B906DB
S1131A80822F90E0FC01EE0FFF1FEE0FFF1FEE0F01
S1131A90FF1FE80FF91FEA51F94F3081311111C0CE
S1131AA02150822F90E0FC01EE0FFF1FEE0FFF1F6D
S1131AB0EE0FFF1FE80FF91FEA51F94F308133236E
S1131AC079F3AC01440F551F440F551F440F551FA4
S1131AD0480F591FDA01AA51B94F1196ED91FC91A3
S1131AE012970280F381E02D1296FC93EE931197E6
S1131AF04751594FE417F50729F442815381FD01F9
S1131B0052834183FC01EE0FFF1FEE0FFF1FEE0F08
S1131B10FF1F8E0F9F1FFC01EA51F94F0180F281D4
S1131B20E02D8681978190930B0780930A07209379
S1131B30B906E0910A07F0910B0785A10E949D0365
S1131B400895CF93DF93EB0120910A0730910B079F
S1131B50B901645F7F4F0E94220461E0CE010E94BC
S1131B60060ADF91CF9108950F931F93CF93DF93CC
S1131B70DC011596ED91FC911697C681D7818E01F3
S1131B80045F1F4FC8010E9453048091AF06811166
S1131B901CC00A501109C8010E9453042E89809167
S1131BA0B906821710F42093B90630E0C901880FF2
S1131BB0991F880F991F880F991F820F931FB801CF
S1131BC08A51994F0E94010405C0B80187EC96E040
S1131BD00E940104E0910A07F0910B079E8986890F
S1131BE0891720F481E08093B60601C080E0DF917C
S1131BF0CF911F910F9108952091B506FC01208388
S1131C002091BA063091BB06328321830895CF9385
S1131C10DF93FC010FB6F8940F922091BA0630912D
S1131C20BB068091B5069081981729F08181928135
S1131C3028173907B0F4A181B281EB014881598199
S1131C40C9018A1B9B0B8417950768F4CF01A21B5B
S1131C50B30B4A0F5B1F598348830E94FC0D80E03D
S1131C6003C081E001C081E00F900FBEDF91CF91EE
S1131C70089581E08093B60608950F931F93CF9340
S1131C80DF93FC01892B79F184A1815084A32689F7
S1131C9093A1291751F181112AC0EF018F010E5F21
S1131CA01F4FC8010E9453042BA12E8B44E050E027
S1131CB0421B51095D874C878091B906821710F445
S1131CC02093B90630E0C901880F991F880F991F26
S1131CD0880F991F820F931FB8018A51994F0E9450
S1131CE0010481E005C080E003C080E001C080E021
S1131CF0DF91CF911F910F910895A1E21A2EAA1B93
S1131D00BB1BFD010DC0AA1FBB1FEE1FFF1FA217A7
S1131D10B307E407F50720F0A21BB30BE40BF50BA4
S1131D20661F771F881F991F1A9469F7609570952D
S1131D30809590959B01AC01BD01CF010895CF938F
S1131D40DF938230910510F482E090E0E0910E0779
S1131D50F0910F0720E030E0C0E0D0E0309711F1BF
S1131D604081518148175907C0F04817590761F459
S1131D7082819381209719F09B838A832BC090934F
S1131D800F0780930E0726C02115310519F042175D
S1131D90530718F49A01BE01DF01EF010280F381B9
S1131DA0E02DDCCF2115310509F1281B390B243036
S1131DB0310590F412968D919C91139761157105DC
S1131DC021F0FB019383828304C090930F078093D7
S1131DD00E07FD01329644C0FD01E20FF31F81930B
S1131DE09193225031092D933C933AC020910C07D2
S1131DF030910D07232B41F420910201309103010E
S1131E0030930D0720930C072091000130910101BC
S1131E102115310541F42DB73EB74091040150918D
S1131E200501241B350BE0910C07F0910D07E21717
S1131E30F307A0F42E1B3F0B2817390778F0AC01E9
S1131E404E5F5F4F2417350748F04E0F5F1F5093C6
S1131E500D0740930C078193919302C0E0E0F0E0FA
S1131E60CF01DF91CF9108950F931F93CF93DF9309
S1131E70009709F48CC0FC013297138212820091FE
S1131E800E0710910F070115110581F4208131818E
S1131E90820F931F20910C0730910D0728173907E3
S1131EA079F5F0930D07E0930C0771C0D80140E079
S1131EB050E0AE17BF0750F412962D913C91139742
S1131EC0AD012115310509F1D901F3CF9D01DA01E5
S1131ED03383228360817181860F971F8217930752
S1131EE069F4EC0128813981260F371F2E5F3F4F9B
S1131EF0318320838A819B8193838283452B29F4B8
S1131F00F0930F07E0930E0742C01396FC93EE93F1
S1131F101297ED01499159919E01240F351FE21743
S1131F20F30771F480819181840F951F02961196B5
S1131F309C938E938281938113969C938E93129794
S1131F40E0E0F0E0D80112968D919C9113970097F0
S1131F5019F0F8018C01F6CF8D919C9198012E5FB8
S1131F603F4F820F931F20910C0730910D072817C4
S1131F70390769F4309729F410920F0710920E076D
S1131F8002C01382128210930D0700930C07DF9195
S1131F90CF911F910F910895FB01DC0102C00190C4
S1131FA00D9241505040D8F70895DC0101C06D9363
S10F1FB041505040E0F70895F894FFCF32
S1131FBC000010072000C600CE00416E6F746865E7
S1131FCC72004F62737461636C6573005468656E60
S1131FDC207765205374617274210A005374617202
S10D1FEC7475700049444C45000070
S9030000FC
